:020000040800F2
:20000000F84F0020A1000008C5020008C5020008C5020008C5020008C5020008C5020008F6
:20002000C5020008C5020008C5020008C5020008C5020008C5020008C5020008C502000848
:20004000C5020008C5020008C5020008C5020008C5020008C5020008C5020008C502000828
:20006000C5020008C5020008C5020008C5020008C5020008C5020008C5020008C502000808
:20008000C5020008C5020008C502000805030008050300080503000843616E426F6F7421FC
:2000A00000F036BA144B10B5D3F80022441C42F00101C3F800120021C3F81C124FF0FC4168
:2000C000C3F840120D496405C3F84412C3F848424405C3F84C12C3F85042C3F85412072106
:2000E0000028C3F80C1208BF012122F00102C3F81C12C3F8002210BD006400400600E0FFE5
:20010000194A10B5936813F0E05F08D172B6536943F00103536162B64FF0FF3010BD5A0124
:200120001FD413F0006F0CBF0223012342681B01082A02F00F0428BF082203F1804303F589
:20014000CB43596821F00F012143596081689960C168D96001681046490541F00101196095
:20016000DCE70023E2E700BF00640040044A136823EA00031943034B11605960704700BF4A
:20018000C001002000000140F8B5354B0D46010953F82130044603F13F4101F57F01880A51
:2001A000012181400F202F4E012DB76941EA0701B161B16904F007014FEA810600FA06F057
:2001C0002BD0032D2BD0C2F10901C043B14026074BBF5E681E68304030404BBF0143014353
:2001E00059601960012A1CD0A4F10D03012B05D84FF080614FF0E060FFF7B8FF2D09012D58
:200200001AD10F2C01D0132C10D14FF480714FF44070BDE8F840FFF7A9BF2946D5E7002119
:20022000D3E704F00F018A401A61DDE71A3C012C14D84FF40071EAE7092D0FD1A4F118033D
:20024000012B04D84FF480414FF4C040E1E7303C012C03D84FF4C0410846DAE7F8BD00BF4C
:20026000D80F00080010024010B5014404464FF6FF708C4200D110BD14F8013B020A4340F2
:2002800083EA0313DBB2D80042EA032280EA13105040EEE7024AD368DB07FCD4704700BF84
:2002A00000200240054B1A69120641BF044A5A6002F188325A60FFF7EDBF00BF00200240BF
:2002C00023016745FEE7000072B6094B09490A4AC3E90012BFF34F8F0849094BCA6802F42C
:2002E000E0621343CB60BFF34F8F00BFFDE700BFF84F00203D24A8A945EC067B00ED00E0B1
:200300000400FA057FB5334BDB689C0732D03249324D0A682E46500744BFD30843F00040B8
:200320004FEA427358BF500D03F08043034300934C6804F00F0401948A680292CA68202183
:200340000392244AD1602A6832B3934227D1082C28BF0824AE7BC6F1C0039C420AD806F184
:20036000F800224602A92844344400F0FBFCAC7301236B7317494A69D3070BD58B6803F0D3
:20038000013323F080732BB122F001024A610122124B9A7204B070BDB3F57C7F04E0B3F5EB
:2003A0007C7F02D001329342E4D1D6E9043508339D42DFD205F0070406EB0414183404ABEC
:2003C000013513E90F0084E80F00756101237373D0E700BF00640040B065004000000020F2
:2003E0004FF0010CF8B505461D480B0950F823601C4F06F13F4303F57F03BC699B0A0CFA47
:2004000003F3234301F00F0401460020BB61BB690CFA04F451F8043B9E4218D194FAA4F361
:20042000002CB3FA83F308BF4FF0FF3303EB0010EFF3108772B67AB1346100220121FFF79C
:20044000A3FE87F310882846C5E90064F8BD01300728DFD10020EBE723043361EDE700BF64
:20046000D80F000800100240F8B514460B04023A43EA026343F4084343F0010391000546C2
:20048000023140F8023BFFF7EFFE04F1804240F06670174E013A40F4803045F8220094009D
:2004A000F17A271D347BA14228BF002407EB040322BF21463473F472602B0CD95B1A602B32
:2004C00014D8641A983122460A48314400F0C0FC00233473F37204F198003A4629463044EF
:2004E0003C4400F03FFC34730123B372F8BD00BF000000209800002007B50222F221684674
:20050000FFF7B2FF03B05DF804FB0000000000002DE98048C4A1D1E90001B7B0A44C00AF29
:20052000D4E900238B4208BF82420BD10023C4E90033A04BA04A9360A04A1B68126883F37F
:20054000088810479E489F4A9F49121A00F00AFC9E489F4A0021121A00F0E0FC9D4B1A6889
:2005600042F001021A6059689B4A0A405A601A684FF0006122F0847222F480321A601A6834
:2005800022F480221A605A6822F4FE025A604FF41F029A60884A91609049916014225A61BB
:2005A00000221221DA619A611A6842F480321A608B4A5A601A6842F080721A60894A1160D9
:2005C0001A689001FCD5884A5A605A6802F00C02082AFAD1EFF3108172B64FF001080026E3
:2005E000824B1A6842F001021A601B68804BC3F800801E6081F310884FF000714FF0E060BB
:20060000FFF7B4FD07F15805414632461720FFF7BBFD324617212846FFF7E2FE4146324607
:200620000620FFF7B1FD424606212846FFF7D8FE414632463046FFF7A7FD3246314628469B
:20064000FFF7CEFED4E900016A4AD36843F08073D360694B1A6842EA08020FF24419D9E946
:200660000089494508BF40451A6004D0514A1268013A033278D90026C4E90066EFF3108147
:2006800072B65E4B1A6842F000721A604FF000721B685B4B1A601E6081F310880122922135
:2006A0001820FFF771FD324692211920FFF76CFD0122544B1A605A68D207FCD5524A514CFA
:2006C000DA6144221A60606810F00100FBD1FFF7E9FC4E4B83F814034FF480121A6083F89A
:2006E00015034FF400121A6083F813034FF400221A60022363612CA3D3E90023C7E9162323
:20070000434C95E80300606021810123DFF8E8B06373404B1B7833B13F4BDBF804201B68F9
:200720009B1A002B38DB637BDBB2002B00F05B824FF00009DFF8F8A084F80D906369D4F8FB
:200740001080434500F0BC8008F0070204EB0213996923681001002B6CD05E1CB14269D1A4
:200760000020C4F80090A8E05A6802F52F2202F548625968891A0029FBDB2849284AC4E9E7
:200780000012284A5B681C491A444B689B1A002BFBDB0023C4E90033FFF796FDAFF3008038
:2007A0009B58A16CFAE3845958A72BB93AA45F45F84F00200020000800ED00E00420000892
:2007C0000000002000000020F40F000800000020CC010020001002400000FFF80000000870
:2007E00000E41D000020024002E41D00181002400C100240F0ED00E0001000E01C100240B0
:20080000101002400064004001001E0100E100E000000020B8010020BC0100209B58A16C1B
:20082000FAE3845980541A023D24A8A945EC067B04000020B1F57C7F24D12118CE690EB3BF
:2008400004EB021292F82020112A1FD0122A87D0C2B9BBB9082340F2F13CC7E916C32023C9
:2008600087F86030BAF80430DAF80000A7F865301123C7F8610087F867302846FFF740FC73
:200880000028FADB08F10103236157E7072E7B60F8D9213091F8276006225146204400F047
:2008A00031FA76007B6806F5807610B1B342E9D156E7B342E6D030462660FFF7F3FBE1E7C3
:2008C00094F80EA05FFA8AFAD146BAF1000F00F08A81DFF8588398F80030DE074AD4BAF115
:2008E000070F40F2808194F8F820012A3ED194F8F920882A3AD194F8FB600236B600A6F103
:200900000802782A32D8B245C0F06D81A21992F8F61099292AD192F8F720032A26D1B11FEF
:20092000B7487B60FFF7A0FCA11991F8F5C091F8F4207B6842EA0C22824217D123F00203B5
:2009400032462846AF4988F8003000F00BFABB6DC3F30742113A052A00F2D180DFE812F067
:200960004700830004010B011C01300143F0010388F80030A34E52460121304600F07CF9E1
:2009800038B198F80030A0EB060923F0010388F8003098F80030980708D443F002030222B6
:2009A000F121284688F80030FFF75EFD00224FF0010AA67BF6B2B6EB09080DD009EB0201FB
:2009C00002F1F800F831A8EB02022144204400F03FFA424684F80DA0EFF3108172B6A37B10
:2009E000DBB29E4200F0FB8081F31088E1E7E8468EB06B4638220021184600F08FFA824911
:200A0000824A0346C0E902124022DFF824C20261DCF8041000F11402DCF8000003C2BCF846
:200A200008009CF80A1010809170794A03F1240C02F10809E646106851680832AEE8030054
:200A40004A45F446F6D110681279CEF800008EF804201122A0215A6018460E22FFF704FD60
:200A6000C546B146A2E71B0E112B48D1D7F85C90664B994543D319F03F0840D1654B1B8859
:200A8000B3F5807F34BF4FF4806A4FF4006ACAF1000303EA090239EA03037A6056D14B4671
:200AA00009EB9A029A422DD800205B4A136801331360FFF7F7FB40B10222584B1A617A68E1
:200AC0005A6142221A61FFF7E5FB0122534B07F15E001A6130F8023F28F8093008F102084F
:200AE000FFF7D8FBB8F1400FF4D180224B4B1A614246494607F1600000F004F9A8B1FFF712
:200B0000FBFCAEE753F8040B0130CBD04022494607F1600000F0F6F8B0B909F14003AAF1BB
:200B2000400A03EB9A0A9A450AD81223C7F810900422FB60A02107F10800FFF795FC90E744
:200B400053F8042B0132EED00120AEE74B4609F110029A4202D8FFF7A5FBB6E753F8040B94
:200B60000130F6D04022C4E72B4B1B68002BC6DB3B611323DCE7FB6D07F1140C3B6103F107
:200B8000400E624618685968083303C273459446F7D11422FA60CDE715230322A02107F16A
:200BA0000800FB60FFF760FC01231D4A1370DBF804301C4A03F5DB0303F5BA43136050E790
:200BC0001422002107F1080000F0A8F9164B052293E8030016233861B982FB60AAE784F8B2
:200BE0000E8081F31088A37ADBB2002B3FF491AD0023A3722368EBB92373E37289E500BF96
:200C0000FA000020F80000200001010000200008C80F0008E0F7FF1FC4010020002002405D
:200C2000B8010020BC01002004000020C8010020BC0F00080133E67A94F80C90BB65A9EBAE
:200C40000603082B9846A8BF4FF00808002B10DD06F198014246214407F16000C7F85C803C
:200C600000F080F82846FFF74BFA002801DD4644E5E7E6724DE500BF830770B4CDB23DD084
:200C8000541E0AB30378AB421FD0431C05E014F1FF3419D30278AA4217D013F0030F1846A6
:200CA00003F10103F3D1032C11D84CB30378AB420BD00444431C02E00278AA4205D09C427C
:200CC000184603F10103F7D1002070BC704702460E02B6B22E4346EA0646136810467340C2
:200CE000A3F1013121EA030313F0803F02F10402DCD1043C032C1046EFD8D6E71446D2E759
:200D00002046E2E7032A70B412D940EA0105AD0704460B4620D11946204653F8045B54F83D
:200D2000046BAE4218D1043A032A20461946F2D8541E72B103780A789A4208BF241806D02A
:200D40000CE010F8013F11F8012F934206D1A042F7D1002070BC7047541EEBE7981A70BCAB
:200D6000704700BF844641EA000313F0030349D1403A23D30B6803604B6843608B68836070
:200D8000CB68C3600B6903614B6943618B698361CB69C3610B6A03624B6A43628B6A83628F
:200DA000CB6AC3620B6B03634B6B43638B6B8363CB6BC36340304031403ADBD230320BD321
:200DC0000B6803604B6843608B688360CB68C36010301031103AF3D20C3205D351F8043B8D
:200DE00040F8043B043AF9D2043208D0D2071CBF11F8013B00F8013B01D30B8803806046A8
:200E0000704700BF082A13D38B07B1D010F00303AED0C3F10403D21ADB071CBF11F8013B04
:200E200000F8013BA4D331F8023B20F8023B9FE7043AD9D3013A11F8013B00F8013BF9D25D
:200E40000B7803704B7843708B788370604670478842F0B40DD98B1883420AD9841832B1B5
:200E6000224613F8014D994202F8014DF9D1F0BC70470F2A0ED80346541E002AF7D0013461
:200E80000C44013B11F8012BA14203F8012FF9D1F0BC704740EA01039B073AD1A2F11007D1
:200EA0003F0901F1200606EB071601F1100300F1100453F8105C103344F8105C53F81C5C55
:200EC000103444F81C5C53F8185C44F8185C53F8145CB34244F8145CEBD17B1C1B0112F0DE
:200EE0000C0F194402F00F05034415D00E46043DAD0803EB850C1C1F56F8047B44F8047FB8
:200F00006445F9D10135AD002B44294402F00302B2E7541E0346B2E72A46ADE7F0B4860786
:200F200046D0541E002A3CD0CAB2034602E014F1FF3436D303F8012B9D07F8D1032C29D946
:200F4000CDB245EA05250F2C45EA054533D9A4F11006360903F1200707EB061703F11002DF
:200F600042E9045542E902551032BA42F8D1721C14F00C0F03EB021204F00F0613D0331F77
:200F800023F003030433134442F8045B9342FBD106F003042CB1C9B21C4403F8011B9C42C6
:200FA000FBD1F0BC704734461346002CF3D1F8E714460346C2E71A462646E0E773746D33FA
:200FC0003266313033786500333263353362322D646972747900000000080140000C014055
:140FE000001001400014014000180140001C01400020014040
:20200000005000209D20000899200008992000089920000899200008992000089920000805
:2020200099200008992000089920000899200008992000089920000899200008912500089B
:20204000992000089920000899200008992000089920000899200008992000089920000878
:20206000992000089920000899200008992000089920000899200008992000089920000858
:20208000992000089920000899200008112400081124000811240008FEE700BF72B6024B2D
:2020A000024A9D461047704700500020C53E000830B4D0E90324D36815496340D360437F73
:2020C000047F0133DBB284F00104012B4968856804774377026A17D0042B04D82A44826096
:2020E00030BC01207047436A2B44C91A8B1C48BF4B1D02EBA3032944064A194481604362D4
:20210000426030BC01207047491B4162E6E700BF001000E019210008F0B4D0E90321D368D8
:20212000476A4B40D360437F027F0133C67FDBB2D543B34282F0010202772DD200EBD3022D
:2021400092F8282003F007010A4105F0010502F001029542394607D017E092F8282022411E
:2021600002F00102954210D10133DBB2B34200EBD30203F007043944EFD38368074A194466
:20218000C0E90121F0BC012070478268437711448160F0BC012070473946EEE7514800089D
:2021A00038B5037F0446C56843B1038CAD0001330384A36801202B44A36038BDD0E90423DB
:2021C00092681A42F5D101230448237703F0B6FEA368ED002B440120A36038BD1C05002071
:2021E00038B5437B0446DB0705690AD50322438DAD00013343854273A36801202B44A360CA
:2022000038BDD0E9062392681A42F5D101230548637303F093FEA368ED002B440120A36075
:2022200038BD00BF2005002010B5037D0446D90702D5028B013202839A0704D5D4E91412BD
:202240008968114205D143F001032375044803F075FED4E9023213440120A36010BD00BFEB
:2022600000050020024608B5037D044843F00103137503F063FE002008BD00BF0405002088
:20228000024608B5037E044843F00103137603F055FE002008BD00BF0C05002010B5037D4C
:2022A00004465A070BD5C37D0133C375064803F045FED4E9023213440120A36010BD43F0F7
:2022C00004030375F2E700BFF0040020024608B5037D044843F00103137503F02FFE002003
:2022E00008BD00BFEC04002010B50446064803F025FED4E90231E27F0B4442F00102E277A9
:20230000A360012010BD00BF10050020D0E90923916810B519428269044614BF0120002091
:2023200002F001018842A3681CBF0132C4E906236269D21A002A04DBE26801201344A3606B
:2023400010BD94F82010226941F001011344636184F82010044803F0F1FDA368E2680120CC
:202360001344A36010BD00BFF8040020F8B5857F06469DB16F1E034600250122F9B200F156
:20238000080707EBC107D3E908108C680833044218BF154351009F42CAB2F4D1327CAA42EF
:2023A00007D0737C82EA05016B40DB43DBB20B420FD1337F75745AB2002A04DB013BDCB2E8
:2023C000FF2C1ED03477D6E9023213440120B360F8BDB17C22EA03022B4013430729337430
:2023E000E7D84A1C3144B2740848CB7403F0A6FDFF2375743377D6E9023213440120B360C5
:20240000F8BD024803F09AFDDCE700BFF40400204749CB689B0756D070B5464884B00268BD
:202420002024550725D5D308520702F0804243F0004313430093426802F00F02019285688E
:202440000295C0683C4D0390CC60296821B1994259D00131994221D0354A5169C80706D52D
:20246000936803F0013323F08073002B42D104B070BD530703F0804343EA525300934268F6
:2024800002F00F02019285680295C0682A4D0390CC60296811BBB3F57C7FDDD1D5E904361E
:2024A00008339E42D8D206F0070405EB041404AB183413E90F00013684E80F001F486E6160
:2024C00003F03CFDC8E71A4A5169CB0705D5936803F0013323F0807333B970478B4212D0DD
:2024E000B3F57C7FB5D1D9E721F001015161144803F024BD124821F00101516104B0BDE886
:20250000704003F01BBD082A28BF0822AE7B1446C6F1C0039A429FD806F1F800284402A9A7
:2025200005F0F0FC32190548AA7303F007FD93E700640040B06500403403002041030020E0
:202540003E030020054B1B6813B1A3F580735B08034A0621034803F0F9BC00BF3403002018
:20256000380300200884000870B584B00479089E4588008834440090CDE90145024803F05A
:20258000E5FC04B070BD00BFF0830008000000002DE9F04772B6454E48F6A049444DD6F8B1
:2025A00000A0444FDFF814810BE07A68991A90293BDCAAEB020000285FDB62B600293CDCDA
:2025C00072B62C686368002B4AD1D4E908036269C168013A83EA0103C36037D0D4E90231AC
:2025E000B4F910000B4408442168A360D1F808C06261E060A3EB0C02002AD6DB6868296093
:2026000082689A1A30EA220028BF084600E0084601688A689A1A002AF9DA63467A68216065
:20262000991A902904606C60C3DD0022224B59609A605A6062B6BDE8F0877A689A1A002A6E
:20264000BEDD7A689A1A002ABADDF6E7204603F085F92168A2688B6848B19C461346C9E76A
:20266000204698472168A2688B680028F5D16A682960944299D1696097E7414510DB95F9C0
:202680000900002806DA287A02EB090AC6F800A0687292E702F5E15232604FF4B471C4E707
:2026A000A87A0028EBD12E2003F000FB1405002000000020001000E010E000E0C0E6FEFF1C
:2026C00010B5047882B00C49204603F09DFB72B60A4A0369526841699B680B4062B6002B64
:2026E0000CBF04230023214600931E300023FFF73BFF02B010BD00BFD5380008001000E0E7
:2027000010B5047882B00C49204603F07DFB72B60A4A83695268C1699B680B4062B6002B43
:202720000CBF042300232146009328300023FFF71BFF02B010BD00BF59400008001000E030
:2027400010B504680749E0B203F05EFB90F85C202146BDE81040436EC2F34012024803F0C5
:20276000F5BB00BF21290008E88300082DE9F04707784549384603F047FB444BC1685A689E
:202780000469521AA24203D25A68521A9442FBD8D0E9015A0646B0F814C03C4B0CF1160C4E
:2027A00056F8161B5A688444B44562D016F801EB14461EF0800F4FF008082BD0D3F804904B
:2027C000A9EB0209B9F1590FF8D972B65A68D1F80C9085EA0909C1F80C9062B6141BA24524
:2027E0003BD94FEA4E0E5C68A41A2D2CFBD972B6CC686C40CC6062B6D3F804905C68A4EB83
:2028000009040D2CFAD9B8F10108CDD01EF0800F1446D3D1D3F80490A9EB0209B9F1590FA5
:20282000F8D972B65A68D1F80C9085EA0909C1F80C90D3F80490A9EB0209B9F10D0FF8D90D
:20284000D1F80C9085EA0909C1F80C9062B6141BA24502D94FEA4E0ED5E72D040B4B0D61EE
:202860005B683946BDE8F047C3600022084803F06DBB064B3946BDE8F0475B680122C360D5
:20288000034803F063BB00BFA5420008001000E0C883000838B504460A49007803F0B4FA48
:2028A000D4E90132E1681C0409D4848A9D18A54205D816331844BDE8384005F023BB242082
:2028C00003F0F4F9A542000838B514490446007803F09AFA2379C27E1A44C27672B6827CFE
:2028E0009A4205D80022FE238274037762B638BDD21A12F0FF050ED06C1EE2B2123300F13B
:2029000014041444034400F1130213F8011F02F8011BA242F9D1857462B638BD592A00087A
:2029200038B54FF4C27205460649007803F0E2FA0446054B28790549636003F065FA206133
:2029400038BD00BF2129000829220008954B000838B5502205460649007803F0CBFA0446C3
:20296000044B28790449636003F04EFA206138BD5129000865220008DD4E000838B55422FF
:2029800005460649007803F0B5FA0446044B28790449636003F038FA206138BD7D290008F0
:2029A00081220008954B000870B5067A032E12D8044650220B49007803F09CFA05460A4B13
:2029C00020790A496B6003F01FFA2861037CDB0704D56E7570BD292003F068F9282003F089
:2029E00065F900BFA92900089D220008DD4E000838B5502205460649007803F07BFA0446C3
:202A0000044B28790449636003F0FEF9206138BDF1290008CD220008DD4E000870B5067A65
:202A2000032E0FD8044620220849007803F062FA0546074B207907496B6003F0E5F9AE7793
:202A4000A86170BD272003F031F900BF1D2A0008E9220008DD4E000810B50479082C09D831
:202A6000221D0078D200054903F044FA044B8477436010BD222003F019F900BF592A000803
:202A80006D2300082DE9F0411F490646007803F0BBF9057F15F0020801D0BDE8F08137795A
:202AA000B1680A2F367B2BD80A2E29D804463A46283005F0310505F025FA45F00205F60044
:202AC000FB002577A67784F81D80E3772FB194F8283003F03F032A2B0FD0226A0B4B6262FC
:202AE000636072B60A4B20465B6803F56153A36003F086FC62B6BDE8F081064B6360F0E730
:202B0000232003F0D3F800BFF142000819210008001000E0B120000838B50E4905460078A8
:202B200003F072F9044603F043FC002323776A68E26002B938BDE383238484F8223072B637
:202B4000054AE368526820461344A36003F058FC62B638BDD5380008001000E038B51249C0
:202B60000546007803F050F9044603F021FC0023637363616A68226192B1D4E908121204BA
:202B80000A612385638584F82C3072B6074A2369526820461344A36003F032FC62B638BDB5
:202BA000D4E908321A6138BD59400008001000E038B50F490546007803F026F9044603F0C6
:202BC000F7FB237D23F0010323756B6803B938BD0022E360E2822283A27672B6054AE368E8
:202BE000526820461344A36003F00AFC62B638BD21290008001000E038B50E49054600780C
:202C000003F002F9044603F0D3FB002323766A6802B938BDE2606383A383A377636172B629
:202C2000054AE368526820461344A36003F0E8FB62B638BD7D290008001000E038B50D49BC
:202C40000546007803F0E0F8044603F0B1FB00232375AA6802B938BD6A682046A260AA6834
:202C60002377E260EA682383A2756383BDE8384003F0C6BBA929000838B50D490446007813
:202C800003F0C2F8054603F093FB6368AB60A368EB6003B938BD0022E36828462B612369EB
:202CA0006B6163696A772B77BDE8384003F0A8BB1D2A000838B50A490546007803F0A4F8A5
:202CC000044603F075FB6B682046A360AA68E260EA68C4E90423BDE8384003F091BB00BF76
:202CE0005939000838B511490546007803F08CF8044603F05DFB0023FE206A68A260A968FE
:202D0000E1602A7C207762742274A374E376EB6863771B0606D401B938BD2046BDE83840FF
:202D200003F06EBB202002F0C1FF00BF592A000838B505461C49007803F066F8AB68044678
:202D400003661BB980F85C30836538BD6B6817494366287B03F058F8002301222969A065B6
:202D600084F85D106869194684F85E002D7E04F16C00A4F87421C4F8783184F8685084F80E
:202D80007C31C4F88031C4F870314FF4827205F095F91DB9262384F85C3038BD012D04BFF5
:202DA000382384F85C3038BD21290008B54B0008F0B5124985B00646007803F025F8AF2386
:202DC00005460F4CADF80C30006903AB02220121676802F0FBFB9DF80D20636802F01F02B8
:202DE00002EB420254003178DB1B3A4605F116000094FFF7B9FB05B0F0BD00BF5129000842
:202E0000001000E02DE9F0430678054683B02249304602F0F9FF90F815802C79B8F1020F36
:202E2000AF681DD01D4D3B46006922460121D5F8049002F0CBFB6D68A5EB0903B3F5616FAE
:202E400094BF23460023B8F1010F18BF4D4600972A463146124803F079F803B0BDE8F08369
:202E60000E4B02691946D2E9025C4FEA0C422A615A6848324B68D31A002BFBDA72B6C5F843
:202E800010C04D6862B601213B460069224602F09DFB2346DBE700BFA9290008001000E0E3
:202EA000E0830008F0B5124985B00646007802F0ABFFB9230F4CADF80C30022203AB0546DD
:202EC00001210069676802F081FB9DF80D20636822F08002202A09D802EB82020092DB1BE5
:202EE0003A46317805F11600FFF73EFB05B0F0BDF1290008001000E02DE9F041204986B014
:202F00000646007802F080FF01233A250DF11302194604460069009204AA8DF8105002F0BD
:202F20001DFA02F03DFB9DF81330DB0602D5A38B0133A3837223DFF84C808DF80C3005AB8F
:202F4000D8F8047003AA206901210093022302F005FA02F025FB9DF814209DF81550120243
:202F6000D8F8043002F4F85215433178DB1B3A4604F11A000095FFF7F7FA06B0BDE8F0813F
:202F80007D290008001000E0F0B4072600244FF0FC41002814BF35460125114BD3F800223D
:202FA00042F00107C3F80072C3F81C42C3F84012441C0C49640522F001024005C3F84412FB
:202FC000C3F84842C3F84C12C3F85002C3F85412C3F80C62C3F81C52C3F80022F0BC7047D3
:202FE000006400400600E0FF184B30B49A6812F0E05F21D053011DD4154912F0006F154B59
:2030000018BF0B4644680268082C254628BF0825596804F00F0421F00F015205214342F0E9
:203020000102D0E9024059609C60D8601A60284630BC7047084BE5E772B65A6942F00102DB
:203040005A6162B64FF0FF35F1E700BF0064004090650040A06500408065004008B5002370
:20306000034A18461360FFF78FFF322002F01EFE340300200C4BDA68D20108D4DA680B4919
:2030800042F08072DA600B6843F001030B60074900EBC0030A46486800EBC30053681B1A21
:2030A000002BFBDB704700BFF0ED00E0001000E0F0B401240F26904B050953F825508F4F67
:2030C00005F13F4303F57F03D7F818C09B0A9C4044EA0C0400F00703BC619B00BC6906FAC1
:2030E00003F400EA060700295ED14AB3082606FA03F306076FEA040429D56E68002A04EA0F
:20310000060443EA04036B6029DD012303FA07F72F61A0F10D03012BC1F303112BD901292E
:2031200050D0022900F08580042977D0052956D0072900F0A380092900F0B480F0BC70478B
:20314000042606FA03F306076FEA0404D5D42E68002A04EA060443EA04032B60D5DCD8D068
:203160000123103703FA07F7A0F10D03012B2F61C1F30311D3D8624A624C1368012923F007
:20318000E06343F0806313606360D7D00229CBD1A0F12603032B65D8594A5A49136843F415
:2031A000406313604B60C9E7012934D040F20116B1424CD003292CD0CE054CD50D2606FAC9
:2031C00003F396E70F2815D1F0BC4D4A4D49136823F4407343F4807313604B6070471338F7
:2031E0000228ABD8464A4749136843F0010313604B60A3E71328E7D01A3801289ED8404A3B
:203200004049136823F4407343F4007313604B6094E700236DE701FA03F36AE7183801286B
:203220008CD8374A3749136843F0020313604B6084E7A0F11403012BAAD8314A3149136827
:2032400023F4406343F4006313604B6076E7052606FA03F34DE7002A3FF748AF092606FAC4
:2032600003F346E73C3803283FF668AF244A2549136843F4805313604B605FE7A0F11603D1
:20328000012B1FD9A0F13503012B2DD9383801283FF654AF1A4A1B49136843F03003136022
:2032A0004B604BE7A0F11803012B13D9303801283FF644AF124A1349136843F4C0431360D4
:2032C0004B603BE70E4A0F49136843F0040313604B6033E70A4A0B49136823F4C04343F410
:2032E000804313604B6029E7054A0649136843F0080313604B6021E7A484000800100240DE
:20330000080500200000014038B5002304460122416981690169036043600079114623616A
:20332000FFF7C6FE012260791146FFF7C1FE1B4B1D465B6803F5B4636A689342FCD84FF076
:20334000FF3240F201116079FFF7B2FE4FF0FF3240F201112079FFF7ABFE012240F2011126
:203360002079FFF7A5FE012240F201116079FFF79FFE4FF4004323606B68084A03F5B473FB
:2033800051688B42FCD800252420B4212522012325606060E1612262236038BD001000E0B7
:2033A00030B5214D8FB0046805944468069444690A9484690B940A9C31EA04042DD00A9CED
:2033C00014F4806F21D16C68E41A002CEBDB042405460B9B9A070A9B48BF44F02004DB05A2
:2033E00048BF44F08004FFF78FFF2B69029409930599069A0A9B0B9D0998CDE900500B483F
:2034000002F0A4FD20460FB030BD074A5268D21A002AACBF06240224DAE70A9C1440CED1D1
:2034200020460FB030BD00BF001000E0008400082DE9F04140F201140E4690460460002201
:20344000012105461F46FFF7ABFF60B10528044602D02046BDE8F0813B46002201212846F1
:20346000FFF79EFF50BB2E6116F0010603D02B6843F480632B603B46002202212846FFF7DD
:203480008FFF044640B10528E3D13B46002202212846FFF785FF88B9EFF3108272B6AB69E3
:2034A0002EB1B8F1010F04BF40F20121296082F31088DB07CDD42F2002F0F8FB0524C8E738
:2034C000BFF34F8F0549064BCA6802F4E0621343CB60BFF34F8F00BFFDE700BF00ED00E013
:2034E0000400FA0582B002AB03E90300DDE90030EFF3108272B61968C90602D5596B8142BB
:2035000003D082F3108802B070476FF010011960DB6C82F3108802B0704700BF00000000FD
:2035200038B5114B1B689A1E22F00702093B934200D038BD0AA5D5E90045D3E90023AB4290
:2035400008BFA242F5D14FF000631A68D31D23F007039A42EDD172B6C2E90001FFF7B0FFB6
:2035600043616E426F6F7421040000080000000008B503A1D1E90001FFF7D2FFFFF7A0FF00
:203580003D24A8A945EC067BB1B130B405464FF6FF70294415F8013B040A434083EA0313B8
:2035A000DBB2DA0044EA03248D4282EA131384EA0300EFD130BC70474FF6FF70704700BFF0
:2035C000134B984218D8134B98424FF0010308D8114A00F14040800A03FA00F01368184052
:2035E000704700F13F400D4A00F57F00800A03FA00F0136818407047012300F13F40084AF2
:2036000000F57E00800A03FA00F0136818407047FFFF0140FFFF00401C10024018100240E1
:2036200014100240194B10B4984224D8184B98424FF0010315D800F14040800A1549164A00
:2036400003FA00F0EFF3108472B6136803431360136811B1002308600B6084F3108810BC9D
:20366000704700F13F4000F57F00800A03FA00F00A490B4AE6E7012300F13F4000F57E00BC
:20368000800A03FA00F00021064ADBE7FFFF0140FFFF0040101002401C1002400C100240D5
:2036A000181002401410024070B5514C1646002304F1C00203E0083494422FD023798342ED
:2036C000F9D14C4B4D08A3FB0535FD294FEA95154FF00002A17988BF05F1FF35FFF7E8FCAD
:2036E0002068FFF76DFFE0B12368ADB21A68D2070ED4FE229D62DA625A6942F001025A611A
:203700006279013A032A70D8DFE802F0573F270F9A6AAA42F4D0342002F0C8FA352002F096
:20372000C5FA2068FFF77EFFDEE71A6A03F1400022F480521A62DA6922F4E642DA61DA69EF
:2037400042F4D842DA611E641A6A42F480521A621A6842F001021A6070BD1A6A03F13C0042
:2037600022F480721A62DA6922F07302DA61DA6942F06C02DA61DE631A6A42F480721A6239
:203780001A6842F001021A6070BD1A6A03F1380022F010021A629A6922F4E6429A619A693C
:2037A00042F4D8429A619E631A6A42F010021A621A6842F001021A6070BD1A6A03F134006F
:2037C00022F001021A629A6922F073029A619A6942F06C029A615E631A6A42F001021A623F
:2037E0001A6842F001021A6070BD332002F05EFAC084000809040281027A41680078FFF75F
:2038000053BF00BF10B582B002AB03E903002049DDE900348B4230D001F580618B422ED072
:2038200001F580618B422CD001F580618B422AD001F580618B4228D001F580618B4210D02A
:2038400001F580618B4208BF06200BD00020EFF3108472B60021FFF72BFC84F3108802B03F
:2038600010BD0520030194FAA4F0002CB0FA80F008BF4FF0FF301844E9E70023F3E701206B
:20388000F0E70220EEE70320ECE70420EAE700BF0008014070B56F2982B015D80C4B0446EA
:2038A000080953F820607EB1012501F00F018D40CDE9006502AB13E90300FFF7A3FF204644
:2038C000C4E9006502B070BD2B2002F0EFF900BFA4840008F0B5582283B006460D49007877
:2038E00002F008FB00270C4B0777436004460B49307902F089FA6D46A061B16828463A46BD
:20390000FFF7C8FF95E80300103484E8030003B0F0BD00BFD5380008A1210008DD4E000886
:2039200070B5064682B0FEF7FBFF3078094902F06BFA6C460546B16820460122FFF7AAFF66
:2039400094E80300022205F1500383E803002A7502B070BD2129000870B52C2282B005464D
:203960000A49007802F0C6FAD5E901126C4606462046FFF78FFF94E80300054A06F1240325
:2039800083E80300726002B070BD00BF593900080D230008F0B50E49054683B0007802F093
:2039A00033FA2B79827F9A420FD9D5E902126F46044638461E1DFFF76DFF97E8030004EB14
:2039C000C60484E8030003B0F0BD212002F06EF9592A000882B002AB03E90300EFF31081E8
:2039E00072B6DDE90020D3684340D36081F3108802B070472DE9F04FD0E905BAD0E909764E
:203A000080460D46016A91B0C369027A0091C06A05930C93009B0190D8F830100D93019BCF
:203A20000291D8F834000893029B0390CDE90EBAD8F838100993039B0EAC0491CDE90A76CF
:203A400094E803000693049B85EA02090793FFF7C1FF19F0100F4CD119F0200F50D119F03E
:203A6000400F54D119F0800F58D13C490A464968103153685B1A002BFBDB94E80300FFF7A4
:203A8000A9FF364A29011046C9B288F80810536813334268D21A002AFBDB059BCDE90EBAB6
:203AA0000C93009B4D400D93019B94E803000893029BCDE90A760993039B0693049B07930A
:203AC000FFF788FFE80642D4A9063AD46A062BD42B0630D4214B19465B6810334A68D21A95
:203AE000002AFBDB94E8030011B0BDE8F04FFFF771BF0CA903C9FFF76DFF19F0200FAED0E3
:203B00000AA903C9FFF766FF19F0400FAAD008A903C9FFF75FFF19F0800FA6D006AA92E8F0
:203B20000300FFF757FFA0E708AB93E80300FFF751FF2B06CED506AB93E80300FFF74AFFF6
:203B4000C8E70AAB93E80300FFF744FFBEE70CAB93E80300FFF73EFFB6E700BF001000E0F1
:203B60002DE9F04180460068D8F8045089B116464B1EDBB20133094CD71816F8011B6368B3
:203B80001B1AAB42FBD34046FFF734FFB7426068F3D1C8F80000BDE8F08100BF001000E07C
:203BA00010B507490446007802F02EF9D0E903231361A2682179BDE81040FFF7D1BF00BFE4
:203BC0004D41000810B507490446007802F01CF90369C2681B041361A2682179BDE81040AF
:203BE000FFF7BEBF4D4100082DE9F041082584B0E84600F1140300F10C020DEB05070C4689
:203C000092E8030087E8030093E8030088E80300134E23061CD472680E3273689B1A002B75
:203C2000FBDB97E80300FFF7D5FE72680E3273689B1A002BFBDB97E80300013D6400FFF79E
:203C4000C9FE15F0FF05E4B2E3D104B0BDE8F081E44398E80300FFF7BDFEE4B2DBE700BF0E
:203C6000001000E02DE9F84FD0E900A6174617F801BB0D460BF0F00191468046FFF7B4FFEB
:203C8000174C6368A3EB0A039E42FAD84FEA0B1101F0F0014046FFF7A7FF012D6468D8F886
:203CA000086019D0AB1EDBB202330D4D994417F801AB40460AF0F001FFF796FF6B681B1B31
:203CC0009E42FBD84FEA0A1101F0F0014046FFF78BFFB9456C68EAD1C8F80040BDE8F88F3C
:203CE000001000E038B509490446007802F08CF8FA210546FFF778FF217901B938BDA26837
:203D00002846BDE83840FFF7ADBF00BF1142000838B509490446007802F076F8F8210546D7
:203D2000FFF762FF217901B938BDA2682846BDE83840FFF797BF00BF1142000810B582B0F1
:203D400002AB03E903002248DDE90031834234D000F58060834232D000F58060834220D077
:203D600000F5806083422CD000F5806083422AD000F58060834228D000F58060834208BF26
:203D800006200FD00020EFF3108472B602B90904196100220121FFF78BF984F3108802B09F
:203DA00010BD0220040191FAA1F00029B0FA80F008BF4FF0FF302044E5E70024F3E701202C
:203DC000F0E70320EEE70420ECE70520EAE700BF00080140F0B56F2983B021D8124B05460E
:203DE000080953F82060DEB10124104806F13F4303F57F0387699B0A04FA03F33B4301F0F0
:203E00000F018C4083618369CDE9006402AB13E90300FFF793FF2846C5E9006403B0F0BDC8
:203E20002C2001F043FF00BFA4840008001002402DE9F047044682B008460F4604F01AFA4E
:203E4000804664F04F00C0B201F0F8FE102001F0F5FE022001F0F2FE08EB4803174EE40101
:203E60005B0002347E2B346025DCB8F1000F1ED0DFF84C907D1EC7F10107012209216846C4
:203E800015F8014FFFF7A6FF04EB440409EB440404F1FF3A05341AF8010F01F0A7FE5445FF
:203EA000F9D132687B19063243453260E5DB002002B0BDE8F0874FF01508D9E7FC040020CE
:203EC0002400002000224FF0FF3180B582B0930003F1604303F56143C3F88010BFF34F8F05
:203EE0000132082AC3F88011F1D1002318464A49CA180133F02B82F80003F9D10422474B0B
:203F00001A60BFF34F8F0023454A4FF020611C4610465160C21801330C2B1476FAD1BFF370
:203F20004F8FBFF36F8F62B63E4A3F4BD21A07D03E490A4451F8040B914243F8040BF9D1F2
:203F40003B4A3C4BD21A05D000211A4443F8041B9342FBD14FF41F0700244FF000661425AF
:203F6000354B122019461A6842F001021A60D3F804C0324A0CEA02025A601A6822F08472B6
:203F800022F480321A601A6822F480221A605A6822F4FE025A609F60214A294F96609760CA
:203FA0005D61DC619C611A68264C42F480321A605C601A68244C42F080721A6020600B6874
:203FC0009B01FCD5214B1C4A4B60536803F00C03082BFAD11E4C2046FFF724FB1D480022D0
:203FE0000368012123F0E06343F00073036063601720FFF75DF8684600221721FFF7EAFEAA
:20400000002201210620FFF753F8684601220621FFF7E0FE03F0D4FB00E100E010E000E0D6
:2040200000ED00E03403002000000020F4980008D005002034030020001002400000FFF813
:204040000020000800E41D000020024002E41D00000001400805002070B506466022154913
:2040600082B0007801F046FF337913495A1E032A41601CD86D4604460373B1682846012201
:20408000FFF708FC95E8030004F1180383E803000022F1682846FFF79DFE95E8030004F139
:2040A000200383E80300626A026102B070BD2A2001F0FCFD59400008E1210008F0B5224972
:2040C00083B00646007801F09FFE0746282001F0E3FE41F288336C460546436233690122A5
:2040E0005B0080F8203071682046FFF7D3FB94E8030005F1100383E8030001227168204642
:20410000FFF768FE94E8030085E803000122B1682046FFF7BFFB94E8030005F1180383E807
:2041200003000122B1682046FFF754FE94E8030005F1080383E803003B7A3D6043F001031B
:204140003B7203B0F0BD00BF954B0008F0B53C2283B005462C49007801F0CCFE6C46064684
:20416000696820460022FFF735FE94E8030006F10C0383E803000022A9682046FFF72AFE13
:2041800094E8030006F1140383E803000022E9682046FFF71FFE94E8030006F11C0383E838
:2041A0000300002229692046FFF714FE94E8030006F1240383E80300002269692046FFF77F
:2041C00009FE94E8030006F12C0383E803000022A9692046FFF7FEFD94E8030006F134038D
:2041E00083E8030072B6094F304600217C68FFF701FC7A6862B6EB69111B994202D2A41A7C
:204200001C44746003B0F0BD4D410008001000E0F0B51C2283B006462049007801F06AFEE8
:204220006D460446B16828460022FFF7D3FD95E8030004F10C0383E803000022F168284637
:20424000FFF7C8FD95E8030004F1140383E80300012228467168FFF7BDFD2046F821FFF71A
:20426000C3FC20462021FFF7BFFC72B60C4F204600217D68FFF7B8FC7B6862B62360316976
:204280005A1B8A4202D2E81A0144616071698A4202D2ED1A0D44A56003B0F0BD114200086F
:2042A000001000E070B582B06D460446416800222846FFF78FFDA3681A0413D49EB206F1A8
:2042C000180292B20949207801F014FE034695E8030083E80300E2689E829A6022691A61F2
:2042E00002B070BD252001F0E1FC00BFA54200082DE9F043342283B005461949007801F036
:20430000F9FD6C46064695F80890D5F8048019F1000218BF0122EF6841462046FFF7BAFA3F
:2043200094E8030006F1140383E80300012239462046FFF74FFD94E8030006F10C0383E848
:2043400003002B69B9F1000F33620CBF01231123B84508BF43F02003337703B0BDE8F083C6
:20436000F142000810B5044630F8052B82B023790090054801F0EAFD002223882271013384
:20438000238002B010BD00BFF883000810B5182484B003AB00690DF10B0200930121022388
:2043A0008DF80B4000F0DAFF9DF80C009DF80D3043EA002004B010BDF0B5184983B005469F
:2043C000007801F021FD037D04469B0711D4144F7E68FFF7DBFF40107B6800F00400009035
:2043E0009B1B3246297804F11600FEF7BDF803B0F0BD72B60A4A036D5268416D9B680B4037
:2044000062B6002B0CBF042300232978163000930023FEF7A9F803B0F0BD00BF21290008A0
:20442000001000E008B572B60449C36849680B44836001F0E5FF62B608BD00BF001000E0EB
:2044400038B50B490546007801F0DEFC044601F0AFFF002323756A6802B938BDA376E2600C
:20446000E38223832046BDE83840FFF7DBBF00BF5129000838B50B490546007801F0C4FC28
:20448000044601F095FF002323756A6802B938BDA376E260E38223832046BDE83840FFF731
:2044A000C1BF00BFF1290008F0B4847D511A2CB10125621E95400D4425FA04F1047FFE2924
:2044C00004F10305EDB204F1010704F1020609D80444074406441A0A61777B777277057735
:2044E000F0BC7047FF210122002304440744064461777A7773770577F0BC704770B5164603
:204500001D4682B0044600930A4633469DF818100E4801F01BFD15B92369B3420FD9637F2B
:20452000227F0133DBB29A42637701D902B070BD074B9B7A3BB10023637702B070BD6369AF
:20454000B342F8D2EBE7262001F0B0FBD883000800000020084B094903FB00F010B4084CBA
:204560004B680A46A4FB001003EB904053689842FCD810BC704700BF40190100001000E0D6
:2045800083DE1B4310B5044600F1080393E803000022FFF7D3FB606AFFF7DCFF04F110034A
:2045A00093E803000122FFF72DF91834E068FFF7D1FF94E80300BDE810400122FFF722B97C
:2045C0002DE9F843082604460D4600F1180800F1100700EB060918E0002299E80300FFF718
:2045E000ADFB606AFFF7B6FF97E803000122FFF709F9606AFFF7AEFF94E8030000226D0086
:20460000FFF79CFB013EEDB207D02B06E4D598E803000122FFF7F6F8E3E798E80300012274
:20462000FFF7F0F8606AFFF795FF97E803000122FFF7E8F8D4E906239568606A1D40FFF7CD
:2046400089FF94E803003246FFF778FB98E803000122FFF7D7F8281C18BF0120BDE8F883AB
:2046600038B504460D46406AFFF774FF04F1180393E803000122FFF7C5F804F1100393E8B6
:2046800003000122FFF7BEF8606AFFF763FF04F1080393E803000022FFF750FB606AFFF785
:2046A00059FF94E803000022FFF748FB29462046FFF786FF012808BF032038BD08B519207A
:2046C00001F0F4FA2DE9F04190F8108082B0B8F1030F36D806461D49007801F095FB0746A9
:2046E0001C2001F0D9FB6C460546012220467168FFF7D0F894E8030085E803000022B16872
:204700002046FFF767FB94E8030005F1080383E803000022F1682046FFF75CFB94E8030040
:2047200005F1100383E8030085F818803B7C13F0060F08D143F002033B743D6002B0BDE86A
:20474000F081FFF7BBFFFFF7B9FF00BFDD4E000810B5037F04469A060DD500F10C0393E80A
:2047600003000122FFF7EAFA237F03F0300343F00103237710BD03F0300343F00103D0E9BD
:2047800003211161237710BD012270B54169437F8E6800EBD304856903F0070102FA01F1D9
:2047A00094F828202E421ABF0A43D2B28A4384F828200133827FDBB29A4207D901218268F0
:2047C000446A437722448260084670BD0446FFF7BFFF237F044843F00803237701F0AEFB50
:2047E0000021084670BD00BF1805002038B5D0E90524926805462240017F0DD041F0040118
:2048000001776A7F511C3F2A69770ED8AA68696A01200A44AA6038BD4B07F2D50A49427723
:204820004160BDE83840FFF7AFBF00242846AC77FFF78EFF2B7F054843F008032B7701F056
:204840007DFB204638BD00BF894700081805002038B5857F0446B5B1027F93060AD40021F7
:20486000A368656A0D4A03EB850361770120A360626038BD00F1140302F0100293E8030054
:20488000FEF7C0FFEBE7FFF763FF237F044843F00803237701F052FB284638BDED47000897
:2048A0001805002008B51F2001F000FA70B518490646007801F0A8FA044601F0CFFA736818
:2048C00005464360B368038172B60022A369026023B1E3691860E06162B670BDC4E90600C2
:2048E00062B6204601F064FD0A4B62689A426B6807D0094A2046C4E90123BDE8704001F073
:204900007FBDA268D21A002AF3DA1E2001F0CEF9D94B0008A5480008154C000870B50C4974
:204920000546007801F070FA72B690F82030DB0701D462B670BD044600F10C06304601F0A9
:2049400037FD6B683046636101F05AFD62B670BDB54B000838B517490546007801F054FA32
:20496000044601F025FD6B68A360AB68A3612B7B84F82530CBB12A6984F8263062616A69FF
:204980000D4B002A14BF0322022284F82420287E0A49636001F038FAEB69206284F8273031
:2049A0002046BDE8384001F02BBD84F82430236238BD00BF2953000825590008B54B000880
:2049C00038B50E490546007801F01EFA0C490446287901F019FAEFF3108272B6236C4BB954
:2049E000C369084D04F13C01C4E90F35C16182F3108838BD172001F059F900BF254F00083A
:204A0000B54B00086D4C000810B504460A49007801F0FAF9626872B643694BB990F8443071
:204A2000826023F00803826180F8443062B610BD142001F03BF900BF254F000810B504461F
:204A40000949007801F0E0F96368002B14BF0223002372B690F8442022F00202134380F8B9
:204A6000443062B610BD00BF254F000838B51D490546007801F0C8F9044601F099FCA36AFD
:204A800063BB2A7994F83030002AB2FA82F2D4E9065112BF012000200904296183F01001DE
:204AA0005209C1F3001103F010038A4243EA000301D0226A12B984F8303038BD0A4843F056
:204AC000040340680949024484F830306261C4E901122046BDE8384001F092BC102001F04D
:204AE000E5F800BF15500008001000E0BD5C000870B51D490646007801F086F9044601F0A2
:204B0000ADF975684560B368836072B60022A36A026023B1E36A1860E06262B670BD94F80A
:204B20003030C4E90A005A0716D443F004029B07656184F830200AD4204601F039FC0B4BE6
:204B40002046C4E9013501F05BFC62B670BDA3685B1B002BF9DBEFE76269521B002AE4DA09
:204B6000112001F0A3F800BF15500008BD5C000810B507490446007801F046F972B6836A0F
:204B80001BB96368436262B610BD122001F08EF81550000800780C22014901F0ABB900BFD2
:204BA000954B000800781422014901F0A3B900BFDD4E000808B524220078044901F09AF98A
:204BC000034A044B4260036108BD00BFB54B000801530008B958000838B5027B0446816895
:204BE0000079FEF761FD202205460849207801F081F9D4E90412064BC560818243600261B6
:204C00000C21BDE83840183001F014B9D94B0008154C000838B504468069E368026805894C
:204C2000A2611D6001F032F8A069A38A58B9AB4201D0206900B938BDA3680B4A1844C4E934
:204C40000120012038BDAB42426801D0236913B9A260012038BDA1680B449B1A002BF7DA3C
:204C60001E2001F023F800BFA548000838B504463C3801F09DFB00220025237A54F8281C8E
:204C800044F8342C44F8242C54F80C2CD8064CBF521AA2EB5102002A54F8101C03F0140387
:204CA000C8BF524243F0080354F8140C44F80C2C0904DA06237244F8285C016105D409E055
:204CC000036844F8083C00F0E1FF54F8080C0028F6D138BD5B0754E9071258BF12040A6185
:204CE000F3E700BF30B5047883B00C49204601F08BF872B690F82420C36962B6D0E9035113
:204D0000A868C2F34002084214BF0120002021460090034801F01AF903B030BD29530008C4
:204D20009083000810B504780D49204601F06CF872B690F84430026B13F0100F436914BFD4
:204D4000D21AA2EB5302002AB8BF524262B605482146BDE8104002F1404201F0F7B800BFBB
:204D6000254F0008888300082DE9F04127490446007801F049F8037A2579DB07A46815D506
:204D8000066896F820103046FFF76AFC48B9254405E0304614F8011BFFF712FC08B9AC4275
:204DA000F7D13046BDE8F041FFF7ECBB184B07685E68017906F5AF2606F5C8663346384640
:204DC0002A46FEF735FBF0B905F1FF385FFA88F875B1651CA84400E00135227833463A6138
:204DE000802100223846FEF7DBFA45452C46F3D140F2012233463A603846BDE8F04180228A
:204E00000021FEF7CDBABDE8F08100BF954B0008001000E02DE9F84304462049007800F0DC
:204E2000F3FF6768267B022F34D8DFF87480054658F837402046FEF7C3FB814640B12B7A80
:204E4000760043F002032B722E712C60BDE8F8832046FEF7E7FB08EBC7072046FEF754FA15
:204E6000387901224FF4A171FEF722F9787901224FF4A171FEF71CF94FF400472420B421E3
:204E8000252201232760C4F800906060E16122622360D4E7302000F009FF00BF954B000821
:204EA0009485000870B504460A49007900F0ACFF257A064605F108022078074901F01AF825
:204EC00005710660E1682A46BDE87040053003F019B800BFDD4E0008A54E0008F0B5064611
:204EE00083B014220E49007801F004F8B7686D46B7FA87F20446716828465209FEF76AFF47
:204F000095E80300002F14BF0925012504F1080282E8030094F910302B43237403B0F0BD1D
:204F2000DD4E00082DE9F041054682B048220078304900F0DFFFEF680446002F27DD042257
:204F40006E4680F8442069683046FEF743FF96E8030004F1200383E803000022A968304693
:204F6000FEF738FF96E803004FF0404204F1280383E8030022632B691021E36104F134007E
:204F800000F058FF1C4B636002B0BDE8F0814FF000086E4680F84480696842463046FEF7DD
:204FA00019FF96E8030004F1200383E803004246A9683046FEF70EFF96E803004FF040427F
:204FC00004F1280383E8030022632B691021E36104F1340000F02EFFE369002BD2D1002F26
:204FE000D0D094F8443043F0100384F8443002B0BDE8F081254F0008715A0008034600B5C6
:20500000D3E9001283B06846FEF7E4FE03B05DF804FB00BF30B583B06D460446826841689C
:20502000003218BF01222846FEF7D4FE34221049207800F05FFF024695E8030002F11803A4
:2050400083E80300D4E90231003318BF012311B143F010035BB20C2182F83030236902F129
:205060002800136203B0BDE8304000F0E3BE00BF155000082DE9F84306462949007800F097
:20508000C3FE347A032C45D8037C054613F0060F40D17368F768042B3ED8224A03EB430343
:2050A0009B00D65802EB03083046FEF789FA8146A8B100231C485A1C20FA02F18F4227D24D
:2050C000082A1346F7D138232A7C1C4342F0040344F451742B74C5E90064BDE8F8833046A0
:2050E000FEF7A0FA98F8071098F804000122FDF7DFFF4A4698F8081098F80500FDF7D8FF59
:205100004A4698F8091098F80600FDF7D1FFD0E7DB00D9E7FFF7D2FA312000F0C7FD00BF24
:20512000DD4E0008AC8500080051250238B514490546007800F068FE044601F039F904F1C6
:20514000200393E80300FEF7CDF96B686361A360AB6823612B7B5A1C84F82B3084F82A2009
:205160002A69E260EA69D5E9050184F829206083A18303B938BD2046BDE8384001F040B959
:2051800085510008F8B54468054614B301222449134601E011F8012F94421E4605D0013380
:2051A000112BF7D12D2000F081FD1E48FEF708FAD0B1FE2C12D12C221B49287800F09AFE6B
:2051C00001231A49174A80F82A30466241600262F8BD1448FEF7F4F9264628B120460022A8
:2051E0000321FDF765FFE6E70E4F3846FEF71AFA01230A20BB60FDF73DFF09233946BB6023
:205200008B681A07FCD40523064A8B6093685B07FCD4074B0749D360074B11619360C8E7DF
:205220008185000800240140855100083D520008244992002449922401009E00D0E90831D3
:205240001A6812F0100F30D0920702D55A6B8A4205D0836803F5B4638360012070476FF0C1
:20526000100210B51A6090F82A2090F82B10DB6C8A429BB21DD301228A42038380F82A20C1
:2052800021D3428B04469A4223D8828B9A4220D3002384F82830174800F050FE6369E268A6
:2052A000012013446361A36010BD134A59639A60CFE7048B0132D2B223449BB28A420383CD
:2052C00080F82A20DDD28368026913448360012010BD94F8283094F829200133DBB29A4289
:2052E00084F82830D7D8054B9B7A002BD0D1182000F0DCFC240500200100DE0000000020B2
:2053000010B5044690F82030064843F0040384F8203000F013FEA368A26901201344A360C0
:2053200010BD00BF2805002070B5282282B006460949007800F0DEFDD6E901126D46044643
:205340002846FEF7A7FA95E8030004F10C0383E8030002B070BD00BF295300082DE9F04FE0
:2053600090F808C083B01CF0010F0F461546994604680C9E64D094F82010002F40F09C807E
:2053800041F001012046FFF76BF98246002840F0DB8009F1FF3B5FFA8BFBB9F1000F48D0BB
:2053A00004F10803B34404F1180904F110080193012299E80300FEF725FA08270025606A66
:2053C000FFF7C8F898E803000122FEF71BFA606AFFF7C0F8D4E9062394E8030092686D0023
:2053E0001A42EDB24FF0000218BF45F00105FEF7A5FC013FE3D199E803000122FEF702FA3D
:205400005E4540F0888099E803000122FEF7FAF9606AFFF79FF898E803000122FEF7F2F945
:20542000606AFFF797F894E803003A46FEF786FC35702046FFF7A6F8504603B0BDE8F08F9B
:20544000434B01795B6841F0010B03F5AF2808F5C868002F47D1594643464A462046FDF7EF
:20546000E7FF82460028E7D109F1FF35EDB2B9F1000F18D040F20127434600224021204664
:20548000FDF78EFF48B9EFF3108372B62269012D327008BF276083F31088013DEDB2FF2D2D
:2054A00006F10106E8D1434620464022002103B0BDE8F04FFDF774BF2046FFF7D1F8824618
:2054C0000028B6D1013FFFB201372F4415F8011B2046FFF775F882460028AAD1BD42F5D15F
:2054E00094F820104CE743463A462046FDF7A0FF82460028A0D1013FFFB201372F4415F8B1
:20550000012B43462261802100222046FDF748FFAF42F4D19FE7019B3A4693E80300FEF724
:205520000DFC606AFFF716F898E803000122FEF769F9606AFFF70EF894E803003A46FEF7DD
:20554000FDFB06F8015B33E74FF0040A71E700BF001000E02DE9F04182B00446067802AF99
:205560000D49304600F050FC257BA268EB1D03F4FC73ADEB030D0DF10808CDF800802B469F
:205580002179FFF7EBFE43462A463146034800F0DDFCBD46BDE8F081954B0008B0830008D2
:2055A000013808B503280FD8DFE800F00B0805021B2000F07BFB1C2000F078FB1A2000F0A8
:2055C00075FB1D2000F072FB08BD00BF2DE9F04F90F8108085B018F0060F34D018F002056B
:2055E00000918146046831D140682168884204D021F0400121602168206018F0010101919E
:2056000040F08F80511EC9B272B15A1800995E1E16F8013F2373A368DB07FCD5237BDBB2EA
:2056200001B133709642F3D1A36803F08203022BFAD1019B3BB1D9E9026008F00807002F1C
:2056400040F08380306105B0BDE8F08F267ED4E90401B60758BF0904016118F00101019168
:205660005FD1511EC9B2002AEDD05A1804F11007CDF80880A04614465E1ECDF80C904FF002
:20568000080B002516F801AF1EE097E80300FEF7A1F9D8E90223B9F1000FA8BF1B0413616C
:2056A00097E80300FEF796F9D8E9002392686D001A42EDB24FEA4A0A18BF45F00105BBF153
:2056C000010B5FFA8AFA24D098F818304FFA8AF9DA07DAD4D8E90223B9F1000FA8BF1B0495
:2056E000136197E80300FEF775F9D8E9002397E8030092686D001A42EDB218BF45F0010577
:205700004FEA4A0AFEF766F9BBF1010B5FFA8AFADAD1009B03B13570B442B0D1DDE90289AC
:2057200087E718F00807D9E902600ABF01043061316115B90121019164E7511EC9B2002AEE
:205740003FF47DAF012201928FE7000430617AE710B504460549007800F056FBA36822790C
:205760000021BDE81040FFF731BF00BFDD4E000870B5044605780949284600F045FBA66851
:205780002479334622460121FFF720FF334622462946BDE87040024800F0D8BBDD4E0008AF
:2057A000A883000810B5044600F002FE04F10C0000F0FEFDE36933B100221968C3E900222A
:2057C0000B460029F9D10023238484F82230E36110BD00BF38B50F490546007800F014FB16
:2057E000044672B6FFF7DEFF012384F820306B68A360AB68A36123B9EB6884F8223062B672
:2058000038BD204600F0FCFDEB6884F8223062B638BD00BFB54B00082DE9F041EFF310888E
:2058200072B690F82030DA071AD5044623F00502C36942F0040280F820200F4684F8211016
:205840005BB10025D3E900621846E6613946C3E900559047E369002BF4D1034800F06EFB1D
:2058600088F31088BDE8F0812805002070B5057882B006460E49284600F0C6FA044672B6AB
:205880003179FFF7C9FF204600F092FD04F10C0000F08EFD002294F8213084F8202062B66C
:2058A00004480092294600F051FB02B070BD00BFB54B00089883000808B50C3890F82210DB
:2058C000FFF7AAFF002008BD10B5D0E90312896890F82440114218BFE44304F00104034641
:2058E0006CB990F82620013A12F0FF0211D099689C6983F8262021440120996010BD93F8F8
:2059000025200748D96983F82620C3E90101012010BD90F82710006AFFF77EFF204610BD85
:205920002559000810B4D0E902329468D0E904121A4490F824300C4218BFDB4303F00103F1
:205940001BB1826010BC01207047034BC261436010BCFFF7B9BF00BFC9580008436B13B945
:2059600043611846704770B5D3E90051B3F9082090F8444056184563E5060282C6605A89CE
:205980000ED584684261214481601C7B016BE40710D40A440263184600F078F9012070BDBD
:2059A0008569540029448161816044611C7B016BE407EED5D0E90A45521AE1680263694054
:2059C0001846E16000F062F9012070BD38B527490546007800F018FA044600F03FFA6B6827
:2059E00043602B894381002B3DD00022EB680273038172B694F8443003F00101C3F34002D1
:205A0000914205D0027B83F0010342F0010202736269B2B913F0080203D000F037F962B6F2
:205A200038BD616B84F844300260A9B1A36B1860A0632046FFF792FF204600F0E1FC62B638
:205A400038BD0021626B84F8443001603AB1A36B1860A06362B638BDC4E90D00E9E7C4E95A
:205A60000D0062B638BD152000F020F9254F000838B5D0E90825D36815496B40D36043695C
:205A80004D68C269013B1544DA070446436102D50120A56038BD6BB1C1688369B0F91020C6
:205AA0000B440A44591B00298361C260F0DB8360012038BDFFF752FF0028EBD0A3685B1B37
:205AC000E8D5044A9342E3DA162000F0EFF800BF001000E0C0E6FEFF10B4D0E90614CA6801
:205AE00083686240CA6090F8301081F00102C90754BFC168016980F8302052070B4403D4F6
:205B0000836010BC012070474269991A0029F7DB1346034A8360426010BC0120704700BF17
:205B2000BD5C0008704700BF10B4D0E900348268EFF3108172B6DBB2012B07D0022B0BD000
:205B4000D2B2227081F3108810BC704792B2228081F3108810BC7047226081F3108810BCD1
:205B6000704700BFF0B40D4A03780D4D5C1C1268E3B22E7802EBC30205E0174652F8085B11
:205B80005C1C8D4205D0E3B29E42F6D80020F0BC704703707868F0BC704700BF5805002031
:205BA000540500200378DBB213B1002201230270184670470020704730B400240749084B51
:205BC0008868084D00F5DB020344074802F5BA420472AB60012030BC8A6070470C000020CA
:205BE00000DD6D80180000200000002030B583B00122092105466846FEF7ECF8684600227C
:205C00000A21FEF7E7F8082400221D216846FEF7E1F82B064CBF012200221F216846FEF719
:205C2000D9F801221D216846FEF7D4F8631E6D0013F0FF04EDB2E7D103B030BD30B583B0C0
:205C40000022092105466846FEF7C4F8684600220A21FEF7BFF8082400221D216846FEF778
:205C6000B9F82B064CBF012200221F216846FEF7B1F801221D216846FEF7ACF8631E6D00D0
:205C800013F0FF04EDB2E7D103B030BD054A0649136810B40C68013B04600860136010BC6F
:205CA000704700BF500500204005002008B5014672B6014802F058FA60050020F8B504465F
:205CC000806A00287ED003688568A362D4E9062345BB1B041361FFF7D9FF002D0CBF0121A6
:205CE000002194F8303018BF012683F01002C2F3001208BF002691422DD0216A59B3A368EE
:205D0000A26A46F004061944002A4ED194F83020616102F01002324384F83020B20728D5F8
:205D20002B4430E01361FFF7B1FF626AAA42D4D9216A002933D194F83030A06A03F01003B1
:205D40005BB2002844D1A16843F0030384F8303060616B181BE0A06A03F010035BB258B176
:205D60000027416846F00406334384F8303061613FB9A1600120F8BD334384F8303060611D
:205D8000F8BDA3682B445A1A002AF2DA626A1249521B2261C4E9023561600120F8BDA368CD
:205DA000A26A07261944002AB0D05368C91A00290BDB94F83020194602F0100206F00207B8
:205DC00053B2CFE71320FFF771FF1120FFF76EFF03260227C5E700BFD95A000808B5054AD7
:205DE000937A23B1022B1CBF0023937208BD0220FFF75CFF0000002008B5024B1878FFF7AA
:205E000055FF00BF5C05002008B5084B1B78834209D9074B1B6853F8302003EBC0038A42B7
:205E200001D1586808BD0A20FFF740FF540500205805002008B50023064A1288C0E9003310
:205E40002AB9054B1A788A42B8BF197008BD0C20FFF72CFF3E0500204405002038B5EFF304
:205E6000108572B60949086868B1094C094B22681B680132934238BF1346026823600A6025
:205E800085F3108838BD0D20FFF710FF400500204C0500205005002038B50A4D0A4B2C6853
:205EA00022189A420BD8C31C23F0030323440246002120462B6002F001F9204638BD0F20BA
:205EC000FFF7F4FE2C050020004E002038B5074C236843B90568E8B2C000FFF7DDFF044B6C
:205EE00020601D7038BD0820FFF7E0FE580500205405002038B50C4B1B78834210D90B4BD3
:205F00001B6853F8304003EBC0054CB9084C248834B943F830101046FFF7BEFF686038BD5D
:205F20000920FFF7C3FE00BF54050020580500203E05002008B50320FFF7B8FE0022024B6E
:205F40001A72012303707047000000200FB42DE9F04FDFF848B287B09BF80030109FDBB228
:205F600023B107B0BDE8F04F04B070470120DFF8308211AA98F80B1098F80C608BF80000B8
:205F8000B1420592914605D31E46194688F80C3088F80B30BC78A319602B254618D95B1A42
:205FA000602B07D900238BF8003007B0BDE8F04F04B07047761A983141443246734802F097
:205FC00017F8002388F80C6088F80B30BC78254606F1980308EB0302052C01923CD93B8823
:205FE000901C053C7F2B15460444FA787F6800F2BC8003F07F0300F8013BBB18CDE9023676
:20600000029B9F4223D08442C0F0BD8017F8013B072B00F2B880DFE803F05A5A5A5A5A44F5
:2060200004044D4655F8086B221A964228BF1646034603F8016B3246D9F80410184601F052
:2060400061FF8219029BA9469F421046DBD1019B039EC01AC51CECB24D4BDDF804901B78AC
:2060600008EB0602EF1E82F89840394689F801304846FDF789FA7E220346010A4D4409F80A
:206080000710264405F8023C05F8012C4148CDF8049088F80C60FFF751FF00238BF8003030
:2060A00083E74D4655F8041B421C0B786BB1944202D865E0944248D002F8013B11F8013F18
:2060C000002BF7D1131A013BDBB20370BAE74D4655F8043B421C03F120017F2931D903F587
:2060E0008056811CB6F5804F009134D32A4903F500268E4200F1030C32D903F18066B6F12E
:20610000805F00F1040A36D38646180F60F07F000EF8050B914650467246009ECDF800C078
:206120004FEA535C6CF07F0C89F800C04FEA933C6CF07F0C86F800C0DE09009966F07F06C7
:206140000E7003F07F0303707CE7231A013BDBB22246037076E7861C009010463246EBE766
:206160000646009800926246E0E7D90961F07F01A970E81C3DE71646814652466046CFE72F
:20618000002303705EE70520FFF790FDCC030020300300203E030020FFFF1F003C0500205B
:2061A000340300200368034AD9B203481370FFF7CDBE00BF5C050020688300080346024830
:2061C0005A681978FFF7C2BE78830008D0E90031EFF3108272B6DBB2012B08D0022B0DD0D2
:2061E0000978C9B282F310880748FFF7AFBE098889B282F310880448FFF7A8BE096882F37D
:2062000010880148FFF7A2BE8083000840F61643D0E9001299420DD840F61743D2B25018A6
:20622000984202D9C1F11702D2B2054B05480B44FFF78CBE024B00220B440248FFF786BEEC
:206240001086000860830008064A0749074B526809681B680648914294BF1946591CFFF7D7
:2062600075BE00BF001000E0BC050020C005002030840008024B03485968FFF767BE00BF87
:20628000001000E03884000800B50B4A0B4B11889B7A83B0A1F10A00094A0031009018BF82
:2062A0000121003318BF012312680648FFF74EFE03B05DF804FB00BF3E050020000000203B
:2062C0003405002070830008114B1888E0B130B4104A114B013815681C7816D02B46002280
:2062E00019460132234482420B60F9D104FB025200240A480A490B4B14601D60026809686E
:20630000094830BCFFF722BE70472A46F0E700BF3E050020480500204405002050050020FF
:20632000300500204005002008860008F8B5194D2B885BBB184A06461378032B1BD9174A75
:2063400000241068164F0146CA18BA4217D80134B4F5805F1146F7D12746101AFFF79CFD26
:20636000104A114B10601C602F80FFF7ADFF32680E4B1A60F8BD04210B461170DFE714B186
:206380000A46A7B2E9E70E20FFF790FC0B20FFF78DFC00BF3E050020440500202C0500204E
:2063A000004E002048050020300500203405002030B4EFF3108472B60E490A68824203D171
:2063C00011E083420CD01A461368002BF9D14B68834204BF084B4B6084F3108830BC704770
:2063E00003681360F3E7054B026885681A609D600B60ECE7000000200C00002024030020F6
:20640000F0B48368EFF3108572B6184A184E546831681B1B322B49BF5468846832348460A4
:206420008B68E31A002B01DA0BE011460A689368E31A002BF9DA0260086085F31088F0BC36
:20644000704700274FF0806C0A4B0B4A994208BF096801600949186033609C60576097600E
:20646000C1F804C085F31088F0BC7047001000E0000000202403002010E000E000ED00E038
:206480002DE9804891B09C4B02AF5C689B4991F90830002B00F05384974B5A6872B691F993
:2064A0000830002B40F0BE8762B6934B5B689B1A23447B610123914A91481372FFF772FB93
:2064C00048B3FF238F4C904D07F1280A87F8283021465046FFF746FBE8B190F820305A07E0
:2064E000F6D5854B5E6872B690F8202090F8213022F0040180F8201062B697F82810284666
:2065000002F001020096FFF721FD21465046FFF729FB0028E1D17D48FFF744FB00B3FF231C
:206520007B4C7C4D07F1280A87F8283021465046FFF718FBA0B190F82A2090F82B309A42E2
:20654000F4D172B690F82A2090F82B30934200F0238462B621465046FFF704FB0028EAD140
:206560006D48FFF71FFB20B3FF236C4C6C4D07F1280A87F8283021465046FFF7F3FAC0B19E
:20658000037FFF2BF7D172B6837C002B00F01184427F027762B6C27E133097F82810009084
:2065A0002846FFF7D3FC21465046FFF7DBFA0028E6D15C48FFF7F6FA18B3FF235A4C5B4D3C
:2065C00007F1280A87F8283021465046FFF7CAFAB8B1037F1B07F7D572B6037F23F0080362
:2065E000037762B6827F00F1280397F828102846D208FFF7ABFC21465046FFF7B3FA002878
:20660000E7D14B48FFF7CEFA30B3FF23494C4A4D07F1280A87F8283021465046FFF7A2FAB0
:20662000D0B190F82030DE07F6D572B690F82030826823F0010380F82030D0E9063062B681
:2066400097F8281000902846FFF780FC21465046FFF788FA0028E4D13848FFF7A3FA002876
:206660003DD0FF234FF00008DFF8DC9007F1240B87F8243049465846FFF774FA044670B369
:20668000E37FD907F6D572B6E37FA66823F00103E37762B6A37F032BECD8DFE813F0660286
:2066A00045021E020400A7F82880A06907F128030222012197F82450FEF788FF3A8D20460A
:2066C00052BA92B2314602F006030095FDF716FF49465846FFF746FA04460028D0D1184884
:2066E000FFF760FA00283CD0FF2307F1240B87F82430144D124E2DE0001000E0000000201C
:2067000028050020B54B0008988300082405002085510008A0830008F4040020592A00080C
:20672000B883000818050020F1420008C0830008F804002059390008D0830008100500200D
:20674000EC040020F12900081D2A0008237DDA0700F14A8429465846FFF704FA0446002805
:20676000F4D1A548FFF71EFA002853D0FF23994607F1240B87F82430A0495846FFF7F2F9AB
:206780000446002846D0237D5B07F5D572B60026E57DD4F808A02675E67562B6D4F80C801B
:2067A000AAEB0803BB6104F1180315F1FF3514D3227FD11CC9B22244302982F81D909677F0
:2067C000D6772177F1D9184697F82410FB61FDF7C9FD15F1FF35FB69EAD2637DFB61002B12
:2067E00000F07D84FB69012B00F0D484FB69022B00F0FC84217F3029BED904F1180097F8A3
:206800002410FDF7AFFD7D495846FFF7ABF904460028B8D17A48FFF7C5F998B1FF2307F1D2
:20682000240B87F82430774DDFF8D48103E0237EDE0700F1C18229465846FFF793F90446F0
:206840000028F4D17048FFF7ADF990B1FF236F4E87F82030DFF8B08103E0237DD80700F1AD
:20686000D382314607F12000FFF77CF904460028F3D16748FFF796F9002873D0FF234FF093
:20688000000A07F1240B87F8243062495846FFF769F90446002865D0237DD907F5D597F8D3
:2068A0002430BB60FDF772FD72B6237D23F00103237562B60207E8D5A67E07F1280806F16E
:2068C0001B0525442069424687F828A0022301210095FEF743FD0121AB1C2069424687F84D
:2068E000281000930223FEF739FDA17E94F85C200431CBB2FB61A376930624D52644F07EC5
:2069000095F803806B7848EA0068A87848EA0348D4F8703148EA0028984514D03E4BC4F880
:206920007081B8F1805FD3F804E080F06E8512F00403BB6100F0E784950700F10D86236E9B
:20694000984500F2FC85FB692F2B9ED904F11600B968FDF707FD2F495846FFF703F904463C
:20696000002899D12D48FFF71DF980B1FF2307F1280A87F828302A4D03E0437B002B40F03D
:20698000958229465046FFF7EDF80028F5D12548FFF708F990B1FF2307F1240B87F8243051
:2069A000214D002603E0237F002B40F0E48229465846FFF7D7F804460028F4D14AF6AA22E8
:2069C0001A4B1A60144B5A6872B619490B689B1A002BB8BF0A6062B61648FFF7E3F800288A
:2069E00000F03C81144A53691469A34200F0D280161D40F2F13829E0F0040020A9290008A7
:206A00000C0500207D29000804050020512900080005002021290008001000E02005002040
:206A2000594000081C050020D538000800300040140500204103002034030020C44A0134B8
:206A4000146153691469A34200F0A480C04904F0070213010D68194489691DB1681C81429C
:206A600000F08985B1F57C7FE8D1B949C818D0F81CC0BCF1000FE1D001EB021292F8202001
:206A8000012A00F02184002A00F00384022AD5D1BCF1060FD2D9AE4A2133D0183146062283
:206AA00001F000FA0028C9D1A7A1D1E90001FCF737FD72B60124A749A74BCA69A74842F07C
:206AC000C052CA611A6842F480721A6084621A6822F480721A60FCF7F3FC0125BD62A0693B
:206AE000294607F12803032297F824A0FEF76EFD0722BB6A3A852946A0691DBA022207F1B4
:206B00002803FEF763FD97F829302D0A05F0010C23F00303AAB231462046CDF800A043EAF0
:206B20000C03FDF7EBFCA5E50C23BB62A06907F128030422012197F824A0FEF747FD0F2363
:206B4000BD6A3B85A06907F12803022201212DBAFEF73CFD97F8293025F07F42314620462C
:206B6000CDF800A0FDF7CAFC84E5C7F82880A06907F128030422012197F82450FEF726FD97
:206B8000BA6A314612BA2046009502F00703FDF7B5FC6FE56E4B93F80E905FFA89FABAF135
:206BA000000F5BD06E4E3478E2071FD4BAF1040F54D9674A92F8F890A9F105033B2B0ED8BB
:206BC00092F8F9B02BF00F03102B08D1CA4545D302F1F70519F805307E2B00F0F184B9F12D
:206BE0007E0F00F0D58444F001043470DFF89891524648467E2101F00FF9002800F0888400
:206C000004F0FE04A0EB0909A307347009F1010900F1828444F0020434705248FFF796F99B
:206C20004FF0FF340022DFF86481494B9D7BEDB2B5EB090640F05C84EFF3108172B6444BD0
:206C40009B7BDBB29D4240F01E84414B9E7381F31088012C02D14348FFF778F94248FEF7C6
:206C6000A1FF60B33A4B3A4A1B68002B00F00E83D57A167B0133721B082A1446A8BF082469
:206C8000002ABB6219DD07F1280A07E02544731B082B1C46A8BF0824002B0EDD2C4B05F104
:206CA00098011944224607F13000FC6201F02AF95046FCF799F90028E8DC254BDD722B4BA0
:206CC0002B4D2C4E5C687B6929683268E01A01310244B0F5803F2960326080F04E8200FBC3
:206CE00000F3DFF8AC80FF33D8F800C00CEB1323634538BF4FF0FF33DFF898901E48D9F869
:206D000000A02044A0EB0A000028C8F80030FFF6BDAB1A48FFF71AF9A24503D9184A13685A
:206D20000133136000231749C8F8003033602B6091F90830C9F80040002B7FF4ADAB7C6185
:206D4000FFF7B8BBAFF300809B58A16CFAE38459340300200010024000700040006C0040E9
:206D6000CC0500209C9800083E030020001000E038050020C405002000D68AEA2884000851
:206D8000C0050020000000202C04002041030020C8050020BC050020013380F82A304269BB
:206DA000038B62B697F828102846FFF7CFF8FFF7BDBB62B6FFF7DFBBE38A97F824902F2B1B
:206DC000206940F2AB8107F12806742304F11F01324687F82830302300910121FEF7BEFAF8
:206DE000FEF7DEFB3022E38A4946303BE382A27704F11A00FDF7B6FAE38A2F2B40F2AD81B4
:206E00004046FFF79BF816E50023AF21A822BB62B984C7F82B3087F82820206907F12803C4
:206E20000722012194F81AA097F82090FEF7CEFB07F12403022201212069FEF7C7FB97F890
:206E4000292004EB0A030AF11B0597F825A0DA7697F82A3025446B7097F82B300AF03F0BD3
:206E6000AB7097F82C300AF0400AEB7097F82D302B7197F82E306B71A37E0633DBB22D2BDD
:206E8000A3760DD8BAF1000F02D0238B01332383BBF1000F40F0EE824046FFF74FF8E0E4FE
:206EA000494604F11600FDF75DFAEBE70024D0E906B9D0E9081C90F80CE097F828300EF148
:206EC0001706FB6172B6CB6883EA0C03CB60C54B5A680E32C34B5B689B1A002BFADBCB686C
:206EE00083EA0C03CB60DBF8083019EA030F14BF4FF001084FF0000862B6BA4B5A680E324A
:206F0000B84B5B689B1A002BFADB013E731C48EA4404D7D172B60023417B437362B601220E
:206F200024FA0EF302FA0EF21E0202F1FF3248BF43F07F43A24300F083824FF000434361F6
:206F4000802300218C460E4690F82C20141DE4B202442F2C82F82D6082F82EC082F82F10E3
:206F600082F8303080F82C407FF60BADF9692830FDF7F8F9FFE43E8587F82A60A06907F1D7
:206F800028030322012197F82480FEF71FFB267797F8293097F8281097F82A201B0243EACE
:206FA0000143134394F82220190202F1040148BF43F07F432244C9B24FEA132C180C82F863
:206FC00023302F294FEA136382F824C082F8250082F8263084F822107FF6E9AC414604F156
:206FE0001E00FDF7BFF9E2E40023F222C7E90A3387F8303087F82820206907F12803092260
:20700000012197F82480FEF7E1FAA27E97F82A1002F11B0311F0F00023441CD0F0281AD00B
:20702000FF2122441971D97099705970D176A37E0533DBB22E2BA37604D9414604F1160017
:20704000FDF790F9237D204623F001032375FDF7E9F9FFF77FBB97F82CE01EF0F00001D08E
:20706000F028DDD197F82EC01CF0F00001D0F028D6D197F82F009028D2D197F8309029F0C0
:207080008009B9F1200FCBD897F829002244D07697F82B004FEA8C02587001F01F0102F03B
:2070A00060000EF01F0297F82DE041EA4C1102431A7183F802E0D970A37E0533DBB22E2B78
:2070C000A37600F25383B9F11E0F40F27482238B013323833046FEF731FFFFF73BBB32236C
:2070E000404E3B85206907F1280302220121D6F80480FEF76BFA7368A3EB0803B3F5616FB8
:2071000040F2A5810222237FD91CF8692344C9B25D77D8779A772177FFF76DBB722307F1A2
:20712000280687F8203007F12002022301210096FEF714F9FEF734FA97F8283097F8292077
:207140001B0203F4F8531343A18A9AB2914238BFA2822F2BE28200F3FD82237E23F001032D
:20716000237672B61F4B20465A68E3681344A360FFF746F962B6FFF75EBBB0F5801F2BD27A
:20718000DFF8648000F1FF03D8F800C01B0A00FB03C3ADE54FF67F63124E3B8507F1280AC8
:2071A0005346206902220021D6F80480FEF70EFA7368A3EB0808B8F5616F1E4640F26781A5
:2071C00002200022237FD91CC9B223445D779877DA772177FFF70FBB4FF0FF33DFF8088096
:2071E0008AE500BF001000E0C80500202369D3E9021003040B61CA4B5B684833C84A526898
:207200009A1A002AFADA72B6C54B08615D6862B6002342F28432C7F82A303A85C7F82E303C
:20722000206907F1280301210A22FEF7CFF9052307F1290107F12F00082211F8016F7340D0
:2072400013F0800F4FEA430318BF83F01D03013ADBB2F5D18142EFD1DB43207F97F831C065
:20726000DBB2C11C9C45C9B200F1010E00F1020600F0948103232044A644264480F81D9047
:207280008EF81D3072772177FFF7B5BA1373D37215E5002D7FF4D2AB01230821202230682C
:2072A00087F83730C7E90A81B38887F83020C7F83100A7F8353007F128052846FBF794FE98
:2072C0000028FADBFFF7BABBBCF1070F7FF6B6AB90F82790934A21334FEA4909D018314653
:2072E000062209F5807900F0DDFD002840F040814D453FF4A3AB8B4B4846C3F80090FBF7D8
:2073000043FEFFF79BBBD0067FF51DAB864B94F86CC1B8FBF3F91E230CF10100B0FBF3F3D5
:20732000D4F8786104EB8C0C0136C4F87861E56E3860DCF87C0019462D1AAB197A4DE366A0
:2073400005FB19887B60A56FDCF8F43003FB1059656F00FB105008FB06954FF01E09FD60AE
:20736000256F06FB0600EB1A43443B61FB683D68A3673B696067236709FB1159CCF87C6035
:20738000CCF8F48094F8746184F86C911D2E40F2C7811E26FD6806FB00F306FB05F53969DC
:2073A0007E6801FB165506FB163095FBF0F0D4F88031C4F880018342D1BF002594F87C513C
:2073C0000135EDB2110784F87C5100F1AE8194F875313BB940F2DC5398427FF7B4AA0123FE
:2073E00084F8753141F27C53984240F3A18042F23413984240F3A48142F21073BA699842DA
:20740000C8BF02220523BA6193E084F85CA0C4F864E094F85E10A06DFEF7FEF9A37EFB6123
:20742000FFF791BA4FF6FF7340490B8162B630BF72B63E4B93F90830002BF7D1FFF734B8EE
:207440008C070CD54FF080434361402379E597F8282016063FD50322237F991855E64269EC
:20746000002A40F06F81DEB2C3F3072CC3F307411B0E69E5237D204623F001032375FCF72C
:20748000D1FFFFF7EEB981F31088FFF7CEBBC0233B85F969534602222069FEF797F897F896
:2074A000283097F8291083EA010282EA121282EA920282EA520212F001025ED1580640F129
:2074C00025810520237FE11803334D77CA7788772377FFF78FB997F829005302B96943EAD8
:2074E000400342462046FCF7DFFF217FFFF783B909EB020102F1F800F831B21A1944184428
:2075000000F076FD4046FEF719FD3246FFF794BBA307D1467FF57EAB4FF0FF34FFF782BBB7
:20752000001000E03403002080969800000000201B23BA699B1ADBB29D427FF604AA84F815
:207540005CA0C4F864E094F85D10A06DFEF764F9A37EFB61FFF7F7B9636EAEEB0303002B19
:20756000FFF6F1A922F0020284F85C20FFF7E7B94D457FF463AAFBF771FD03200021237F80
:20758000E218034455779077D1772377FFF732B94FF001094FF0FF34FFF744BB97F8303075
:2075A000DB0640F1B18097F82A3013F0800F40F0D48004235FE6B9F1010F3FF68BAD41E5D0
:2075C000A9F10308F83241461046FBF7DDFF6A1C6B1E18F8021019F80330904443EA012397
:2075E00083427FF4FCAA704924F002040B7834705B457FF412AB013303F00F03EA1C43F071
:20760000100390450B707CD9684A694EC7F81C9092F800A0E9461AF0800F5DD101320AF190
:20762000FF335C2B00F2A8804FEA0A1A06EB0A018B788C689B00073303F4FF63ADEB030D51
:2076400002A8054691F804C0A44464451FD0904554D314F8013B042B2FD812F8013B05F1B2
:20766000040E03F06001602903F07F0B08D16BF01F0B05E012F8013B03F07F0141EACB1B91
:207680001B06F7D46445C5F800B07546DFD1494B9B7A23B106EB0A03DB78D90725D5B244DF
:2076A000DAF80C30BA619847CD46BA699045AFD8D7F81C900124FFF7B5BA072B1ED11346B1
:2076C00013F801EB03EB0E02904517D3294641F808EB6B600D46B8E753784FEACA1A0AF4B8
:2076E0007E5A43EA0A0A023299E7324B3248D97ABA61FEF72BFCCD46BA69D7E70620FEF72D
:20770000D5FA0124FFF78EBA0523B4E5890041EA83233246B9692046FCF7C6FEFFF76AB84D
:20772000013684F87461B86941E6636EAEEB0303002BFFF608A922F0080284F85C2046E6F8
:207740000F23F6E6D6B2C2F3072CC2F30741130EFFF7FABB2069FFF738BB4544DFF85CC0F4
:20776000A5EB0A0AE2450AD9012384E5414604F11600FCF7F7FDA6E40420FEF797FA97F892
:207780002B5097F82E205B0243EA45032044A6442644C2F345021D0A42778EF81D3075776C
:2077A0002177FFF728B800BF300300202E040020289200080000002018840008E87F010009
:2077C000002445F2555540F6FF704CF6CC42BB4BBB4923F0030380B50B60BA4BBA491D6067
:2077E0005C6098601A60CA68B84B42F08072CA601A6890B042F001021A605C60EFF3108138
:2078000072B6202607254FF08060B14BB14A82F823601D605C609C60506081F31088AE4DCF
:207820002846FBF7FFFE012292211820FBF740FC224692211920FBF73BFC01232A462B6013
:207840005368D907FCD54421A448A34BD06111605A6812F00102FBD101264FF0FC4C4FF457
:2078600000150727D3F800029D4C9E4940EA060E20F00100C3F800E2C3F81C22C3F840C286
:20788000C3F84442C3F84852C3F84C42C3F85022C3F85442C3F80C72C3F81C62C3F800025C
:2078A00081F814234FF48010086081F815230D6081F813234FF400220A608B498B4ED1E9DA
:2078C0000021D00D40EA4120504006FB00F4884D81EAD15105FB0144A0FB05010C440221DF
:2078E000844FDFF858E280EAD43047400EFB07F28148DFF84CC260400CFB00245961A7FBD8
:207900000C0180F0F55282F41D22214482F4C86281F0B4430EFB02F183F4E50383F4EA4382
:2079200083F04D030CFB0311A2FB0C340C44D90D41EA442183EA010206FB02F184EAD456CA
