:020000040800F2
:20000000F84F0020A1000008C5020008C5020008C5020008C5020008C5020008C5020008F6
:20002000C5020008C5020008C5020008C5020008C5020008C5020008C5020008C502000848
:20004000C5020008C5020008C5020008C5020008C5020008C5020008C5020008C502000828
:20006000C5020008C5020008C5020008C5020008C5020008C5020008C5020008C502000808
:20008000C5020008C5020008C502000805030008050300080503000843616E426F6F7421FC
:2000A00000F036BA144B10B5D3F80022441C42F00101C3F800120021C3F81C124FF0FC4168
:2000C000C3F840120D496405C3F84412C3F848424405C3F84C12C3F85042C3F85412072106
:2000E0000028C3F80C1208BF012122F00102C3F81C12C3F8002210BD006400400600E0FFE5
:20010000194A10B5936813F0E05F08D172B6536943F00103536162B64FF0FF3010BD5A0124
:200120001FD413F0006F0CBF0223012342681B01082A02F00F0428BF082203F1804303F589
:20014000CB43596821F00F012143596081689960C168D96001681046490541F00101196095
:20016000DCE70023E2E700BF00640040044A136823EA00031943034B11605960704700BF4A
:20018000C001002000000140F8B5354B0D46010953F82130044603F13F4101F57F01880A51
:2001A000012181400F202F4E012DB76941EA0701B161B16904F007014FEA810600FA06F057
:2001C0002BD0032D2BD0C2F10901C043B14026074BBF5E681E68304030404BBF0143014353
:2001E00059601960012A1CD0A4F10D03012B05D84FF080614FF0E060FFF7B8FF2D09012D58
:200200001AD10F2C01D0132C10D14FF480714FF44070BDE8F840FFF7A9BF2946D5E7002119
:20022000D3E704F00F018A401A61DDE71A3C012C14D84FF40071EAE7092D0FD1A4F118033D
:20024000012B04D84FF480414FF4C040E1E7303C012C03D84FF4C0410846DAE7F8BD00BF4C
:20026000881000080010024010B5014404464FF6FF708C4200D110BD14F8013B020A434041
:2002800083EA0313DBB2D80042EA032280EA13105040EEE7024AD368DB07FCD4704700BF84
:2002A00000200240054B1A69120641BF044A5A6002F188325A60FFF7EDBF00BF00200240BF
:2002C00023016745FEE7000072B6094B09490A4AC3E90012BFF34F8F0849094BCA6802F42C
:2002E000E0621343CB60BFF34F8F00BFFDE700BFF84F00203D24A8A945EC067B00ED00E0B1
:200300000400FA057FB5334BDB689C0732D03249324D0A682E46500744BFD30843F00040B8
:200320004FEA427358BF500D03F08043034300934C6804F00F0401948A680292CA68202183
:200340000392244AD1602A6832B3934227D1082C28BF0824AE7BC6F1C0039C420AD806F184
:20036000F800224602A92844344400F053FDAC7301236B7317494A69D3070BD58B6803F07A
:20038000013323F080732BB122F001024A610122124B9A7204B070BDB3F57C7F04E0B3F5EB
:2003A0007C7F02D001329342E4D1D6E9043508339D42DFD205F0070406EB0414183404ABEC
:2003C000013513E90F0084E80F00756101237373D0E700BF00640040B065004000000020F2
:2003E0004FF0010CF8B505461D480B0950F823601C4F06F13F4303F57F03BC699B0A0CFA47
:2004000003F3234301F00F0401460020BB61BB690CFA04F451F8043B9E4218D194FAA4F361
:20042000002CB3FA83F308BF4FF0FF3303EB0010EFF3108772B67AB1346100220121FFF79C
:20044000A3FE87F310882846C5E90064F8BD01300728DFD10020EBE723043361EDE700BF64
:200460008810000800100240F8B514460B04023A43EA026343F4084343F001039100054611
:20048000023140F8023BFFF7EFFE04F1804240F06670174E013A40F4803045F8220094009D
:2004A000F17A271D347BA14228BF002407EB040322BF21463473F472602B0CD95B1A602B32
:2004C00014D8641A983122460A48314400F018FD00233473F37204F198003A462946304496
:2004E0003C4400F097FC34730123B372F8BD00BF000000209800002007B50222F22168461C
:20050000FFF7B2FF03B05DF804FB0000000000002DE98048DDA1D1E90001B7B0BA4C00AFFA
:20052000D4E900238B4208BF82420BD10023C4E90033B64BB64A9360B64A1B68126883F33D
:2005400008881047B448B54AB549121A00F062FCB448B54A0021121A00F038FDB34B1A6854
:2005600042F001021A605968B14A0A405A601A684FF0006122F0847222F480321A601A681E
:2005800022F480221A605A6822F4FE025A604FF41F029A609E4A9160A649916014225A618F
:2005A00000221221DA619A611A6842F480321A60A14A5A601A6842F080721A609F4A1160AD
:2005C0001A689001FCD59E4A5A605A6802F00C02082AFAD1EFF3108172B601264FF00008CD
:2005E000984B1A6842F001021A601B68964B1E60C3F8008081F310884FF000714FF0E0608F
:20060000FFF7B4FD07F15805424631461720FFF7BBFD424617212846FFF7E2FE42460FF26D
:20062000E019D9E9008931460620FFF7ADFD324606212846FFF7D4FED4E90001834A49454B
:20064000D36808BF404543F08073D360804B1A6842EA06021A6005D06C4A1268013A03324A
:2006600040F21E810026C4E90066EFF3108172B6784B1A6842F000721A604FF000721B683E
:20068000754B1A601E6081F31088012292211820FFF77AFD324692211920FFF775FD01222C
:2006A0006E4B1A605A68D207FCD56D4A6B4CDA6144221A60606810F00100FBD1FFF7F2FC99
:2006C000684B83F814034FF480121A6083F815034FF400121A6083F813034FF400221A60B4
:2006E00002236361604B614ED3E90013CA0D42EA43224A40DFF89CC106FB02F15C4C9CF892
:2007000002009CF8038083EAD3539CF800A004FB03110004A2FB042380EA086080EA0A00D8
:200720009CF801A0194480EA0A20524B82EAD13280EAD050A0FB048953404F4ADFF858C1B9
:200740004A404E4906FB0099A3FB01AB0CFB03F001FB02028AEA080080EAD9300CFB00FCA8
:2007600093448BEA090301FB03CCA0FB01016144C20D42EA41224240564381EAD15304FB0D
:200780000366A2FB04231E4482EAD632C7E916263B4C95E80300606021810123DFF8B0B0A6
:2007A0006373384B1B783BB1374BDBF804201B689B1A002BC0F28C80637BDBB2002B00F041
:2007C0007E824FF00009DFF8D4A084F80D906369D4F81080434500F0C38008F0070204EB9A
:2007E0000213996923681001002B73D05E1CB14270D10020C4F80090AFE000BFAFF300804E
:200800009B58A16CFAE38459F84F00200020000800ED00E004200008000000200000002056
:20082000A410000800000020CC010020001002400000FFF80000000800E41D00002002403B
:2008400002E41D00181002400C100240F0ED00E0001000E01C1002401010024000640040AC
:2008600001001E0100E100E0E8F7FF1F9B592721375C32F41B017FCC5907286065196D1E4D
:2008800000000020B8010020BC0100203D24A8A945EC067BF0F7FF1FF25503880400002023
:2008A0005A6802F52F2202F548625968891A0029FBDBBC49BC4AC4E90012BC4A5B68BC4992
:2008C0001A444B689B1A002BFBDB0023C4E90033FFF7FAFCB1F57C7F24D12118CE690EB39B
:2008E00004EB021292F82020112A1FD0122A80D0C2B9BBB9082340F2F13CC7E916C3202330
:2009000087F86030BAF80430DAF80000A7F865301123C7F8610087F867302846FFF7F0FB23
:200920000028FADB08F10103236150E7072E7B60F8D9213091F8276006225146204400F0AD
:2009400039FA76007B6806F5807610B1B342E9D14FE7B342E6D030462660FFF7A3FBE1E771
:2009600094F80EA05FFA8AFAD146BAF1000F00F0A681DFF8608298F80030DE074AD4BAF151
:20098000070F40F29C8194F8F820012A3ED194F8F920882A3AD194F8FB600236B600A6F146
:2009A0000802782A32D8B245C0F08981A21992F8F61099292AD192F8F720032A26D1B11F33
:2009C0007C487B60FFF750FCA11991F8F5C091F8F4207B6842EA0C22824217D123F00203A0
:2009E00032462846744988F8003000F013FABB6DC3F30742113A052A00F2D180DFE812F0FA
:200A0000470083002001270138014C0143F0010388F80030684E52460121304600F084F903
:200A200038B198F80030A0EB060923F0010388F8003098F80030980708D443F00203022215
:200A4000F121284688F80030FFF70EFD00224FF0010AA67BF6B2B6EB09080DD009EB0201AA
:200A600002F1F800F831A8EB02022144204400F047FA424684F80DA0EFF3108172B6A37B67
:200A8000DBB29E4200F0178181F31088E1E7E8468EB06B4638220021184600F097FA474986
:200AA000474A0346C0E902124022DFF82CC10261DCF8041000F11402DCF8000003C2BCF8DA
:200AC00008009CF80A10108091703E4A03F1240C02F10809E646106851680832AEE80300EF
:200AE0004A45F446F6D110681279CEF800008EF804201122A0215A6018460E22FFF7B4FC11
:200B0000C546B146A2E71B0E112B48D1D7F85C902B4B994543D319F03F0840D12A4B1B882E
:200B2000B3F5807F34BF4FF4806A4FF4006ACAF1000303EA090239EA03037A6072D14B46B4
:200B400009EB9A029A4249D80020204A136801331360FFF7A7FB40B102221D4B1A617A68EA
:200B60005A6142221A61FFF795FB0122184B07F15E001A6130F8023F28F8093008F1020839
:200B8000FFF788FBB8F1400FF4D18022104B1A614246494607F1600000F00CF988B3FFF712
:200BA000ABFCAEE79B58A16CFAE3845980541A02001000E0FA000020F8000020000101002B
:200BC0000020000878100008E0F7FF1FC401002000200240C80100206C10000853F8040B5A
:200BE0000130AFD04022494607F1600000F0E2F8B0B909F14003AAF1400A03EB9A0A9A4536
:200C00000AD81223C7F810900422FB60A02107F10800FFF729FC74E753F8042B0132EED03B
:200C2000012092E74B4609F110029A4202D8FFF739FB9AE753F8040B0130F6D04022A8E7DA
:200C4000354B1B68002BAADB3B611323DCE7FB6D07F1140C3B6103F1400E62461868596805
:200C6000083303C273459446F7D11422FA60CDE715230322A02107F10800FB60FFF7F4FB78
:200C80000123264A1370DBF80430254A03F5DB0303F5BA43136034E71422002107F1080017
:200CA00000F094F91F4B052293E8030016233861B982FB60AAE784F80E8081F31088A37A7C
:200CC000DBB2002B3FF46DAD0023A372236813B92373E37265E50133E67A94F80C90BB656F
:200CE000A9EB0603082B9846A8BF4FF00808002B10DD06F198014246214407F16000C7F8E4
:200D00005C8000F087F82846FFF7FAF9002801DD4644E5E7E67244E5C4010020B801002096
:200D2000BC01002004000020830770B4CDB23DD0541E0AB30378AB421FD0431C05E014F1A9
:200D4000FF3419D30278AA4217D013F0030F184603F10103F3D1032C11D84CB30378AB4279
:200D60000BD00444431C02E00278AA4205D09C42184603F10103F7D1002070BC704702468D
:200D80000E02B6B22E4346EA0646136810467340A3F1013121EA030313F0803F02F10402D8
:200DA000DCD1043C032C1046EFD8D6E71446D2E72046E2E7032A70B412D940EA0105AD07DB
:200DC00004460B4620D11946204653F8045B54F8046BAE4218D1043A032A20461946F2D88A
:200DE000541E72B103780A789A4208BF241806D00CE010F8013F11F8012F934206D1A042B1
:200E0000F7D1002070BC7047541EEBE7981A70BC704700BF844641EA000313F0030349D154
:200E2000403A23D30B6803604B6843608B688360CB68C3600B6903614B6943618B698361E2
:200E4000CB69C3610B6A03624B6A43628B6A8362CB6AC3620B6B03634B6B43638B6B8363BE
:200E6000CB6BC36340304031403ADBD230320BD30B6803604B6843608B688360CB68C36076
:200E800010301031103AF3D20C3205D351F8043B40F8043B043AF9D2043208D0D2071CBFE2
:200EA00011F8013B00F8013B01D30B8803806046704700BF082A13D38B07B1D010F0030382
:200EC000AED0C3F10403D21ADB071CBF11F8013B00F8013BA4D331F8023B20F8023B9FE7FF
:200EE000043AD9D3013A11F8013B00F8013BF9D20B7803704B7843708B78837060467047CA
:200F00008842F0B40DD98B1883420AD9841832B1224613F8014D994202F8014DF9D1F0BC59
:200F200070470F2A0ED80346541E002AF7D001340C44013B11F8012BA14203F8012FF9D161
:200F4000F0BC704740EA01039B073AD1A2F110073F0901F1200606EB071601F1100300F145
:200F6000100453F8105C103344F8105C53F81C5C103444F81C5C53F8185C44F8185C53F846
:200F8000145CB34244F8145CEBD17B1C1B0112F00C0F194402F00F05034415D00E46043D90
:200FA000AD0803EB850C1C1F56F8047B44F8047F6445F9D10135AD002B44294402F003020D
:200FC000B2E7541E0346B2E72A46ADE7F0B4860746D0541E002A3CD0CAB2034602E014F185
:200FE000FF3436D303F8012B9D07F8D1032C29D9CDB245EA05250F2C45EA054533D9A4F1C3
:201000001006360903F1200707EB061703F1100242E9045542E902551032BA42F8D1721CB0
:2010200014F00C0F03EB021204F00F0613D0331F23F003030433134442F8045B9342FBD170
:2010400006F003042CB1C9B21C4403F8011B9C42FBD1F0BC704734461346002CF3D1F8E715
:2010600014460346C2E71A462646E0E773746D333266313033786500373433663463662DD3
:20108000646972747900000000080140000C0140001001400014014000180140001C014032
:0410A00000200140EB
:20200000005000209D20000899200008992000089920000899200008992000089920000805
:2020200099200008992000089920000899200008992000089920000899200008912500089B
:20204000992000089920000899200008992000089920000899200008992000089920000878
:20206000992000089920000899200008992000089920000899200008992000089920000858
:20208000992000089920000899200008112400081124000811240008FEE700BF72B6024B2D
:2020A000024A9D461047704700500020853E0008F0B4D0E90321D368476A4B40D360437FBB
:2020C000027F0133C67FDBB2D543B34282F0010202772DD200EBD30292F8282003F00701F2
:2020E0000A4105F0010502F001029542394607D017E092F82820224102F00102954210D19F
:202100000133DBB2B34200EBD30203F007043944EFD38368074A1944C0E90121F0BC0120DB
:2021200070478268437711448160F0BC012070473946EEE71148000830B4D0E90324D368D6
:2021400015496340D360437F047F0133DBB284F00104012B4968856804774377026A17D07A
:20216000042B04D82A44826030BC01207047436A2B44C91A8B1C48BF4B1D02EBA30329442B
:20218000064A194481604362426030BC01207047491B4162E6E700BF001000E0B12000084A
:2021A00038B5037F0446C56843B1038CAD0001330384A36801202B44A36038BDD0E90423DB
:2021C00092681A42F5D101230448237703F096FEA368ED002B440120A36038BD1C05002091
:2021E00038B5437B0446DB0705690AD50322438DAD00013343854273A36801202B44A360CA
:2022000038BDD0E9062392681A42F5D101230548637303F073FEA368ED002B440120A36095
:2022200038BD00BF2005002010B5037D0446D90702D5028B013202839A0704D5D4E91412BD
:202240008968114205D143F001032375044803F055FED4E9023213440120A36010BD00BF0B
:2022600000050020024608B5037D044843F00103137503F043FE002008BD00BF04050020A8
:20228000024608B5037E044843F00103137603F035FE002008BD00BF0C05002010B5037D6C
:2022A00004465A070BD5C37D0133C375064803F025FED4E9023213440120A36010BD43F017
:2022C00004030375F2E700BFF0040020024608B5037D044843F00103137503F00FFE002023
:2022E00008BD00BFEC04002010B50446064803F005FED4E90231E27F0B4442F00102E277C9
:20230000A360012010BD00BF10050020D0E90923916810B519428269044614BF0120002091
:2023200002F001018842A3681CBF0132C4E906236269D21A002A04DBE26801201344A3606B
:2023400010BD94F82010226941F001011344636184F82010044803F0D1FDA368E2680120EC
:202360001344A36010BD00BFF8040020F8B5857F06469DB16F1E034600250122F9B200F156
:20238000080707EBC107D3E908108C680833044218BF154351009F42CAB2F4D1327CAA42EF
:2023A00007D0737C82EA05016B40DB43DBB20B420FD1337F75745AB2002A04DB013BDCB2E8
:2023C000FF2C1ED03477D6E9023213440120B360F8BDB17C22EA03022B4013430729337430
:2023E000E7D84A1C3144B2740848CB7403F086FDFF2375743377D6E9023213440120B360E5
:20240000F8BD024803F07AFDDCE700BFF40400204749CB689B0756D070B5464884B00268DD
:202420002024550725D5D308520702F0804243F0004313430093426802F00F02019285688E
:202440000295C0683C4D0390CC60296821B1994259D00131994221D0354A5169C80706D52D
:20246000936803F0013323F08073002B42D104B070BD530703F0804343EA525300934268F6
:2024800002F00F02019285680295C0682A4D0390CC60296811BBB3F57C7FDDD1D5E904361E
:2024A00008339E42D8D206F0070405EB041404AB183413E90F00013684E80F001F486E6160
:2024C00003F01CFDC8E71A4A5169CB0705D5936803F0013323F0807333B970478B4212D0FD
:2024E000B3F57C7FB5D1D9E721F001015161144803F004BD124821F00101516104B0BDE8A6
:20250000704003F0FBBC082A28BF0822AE7B1446C6F1C0039A429FD806F1F800284402A9C8
:2025200005F004FC32190548AA7303F0E7FC93E700640040B06500403403002041030020ED
:202540003E030020054B1B6813B1A3F580735B08034A0621034803F0D9BC00BF3403002038
:20256000380300203082000870B584B00479089E4588008834440090CDE90145024803F034
:20258000C5FC04B070BD00BF18820008000000002DE9F04772B6454E48F6A049444DD6F8AA
:2025A00000A0444FDFF814810BE07A68991A90293BDCAAEB020000285FDB62B600293CDCDA
:2025C00072B62C686368002B4AD1D4E908036269C168013A83EA0103C36037D0D4E90231AC
:2025E000B4F910000B4408442168A360D1F808C06261E060A3EB0C02002AD6DB6868296093
:2026000082689A1A30EA220028BF084600E0084601688A689A1A002AF9DA63467A68216065
:20262000991A902904606C60C3DD0022224B59609A605A6062B6BDE8F0877A689A1A002A6E
:20264000BEDD7A689A1A002ABADDF6E7204603F065F92168A2688B6848B19C461346C9E78A
:20266000204698472168A2688B680028F5D16A682960944299D1696097E7414510DB95F9C0
:202680000900002806DA287A02EB090AC6F800A0687292E702F5E15232604FF4B471C4E707
:2026A000A87A0028EBD12E2003F0E0FA1405002000000020001000E010E000E0C0E6FEFF3D
:2026C00010B5047882B00C49204603F07DFB72B60A4A0369526841699B680B4062B6002B84
:2026E0000CBF04230023214600931E300023FFF73BFF02B010BD00BF95380008001000E027
:2027000010B5047882B00C49204603F05DFB72B60A4A83695268C1699B680B4062B6002B63
:202720000CBF042300232146009328300023FFF71BFF02B010BD00BF19400008001000E070
:2027400010B504680749E0B203F03EFB90F85C202146BDE81040436EC2F38002024803F0B5
:20276000D5BB00BF692900081082000838B505460E49007803F028FBAB68044603661BB91F
:2027800080F85C30836538BD6B6809494366287B03F01AFB06222B69A06584F85D306B6941
:2027A00084F85C2084F85E3038BD00BF69290008754B00082DE9F04707784549384603F036
:2027C00003FB444BC1685A680469521AA24203D25A68521A9442FBD8D0E9015A0646B0F810
:2027E00014C03C4B0CF1160C56F8161B5A688444B44562D016F801EB14461EF0800F4FF0FB
:2028000008082BD0D3F80490A9EB0209B9F1590FF8D972B65A68D1F80C9085EA0909C1F843
:202820000C9062B6141BA2453BD94FEA4E0E5C68A41A2D2CFBD972B6CC686C40CC6062B62A
:20284000D3F804905C68A4EB09040D2CFAD9B8F10108CDD01EF0800F1446D3D1D3F8049064
:20286000A9EB0209B9F1590FF8D972B65A68D1F80C9085EA0909C1F80C90D3F80490A9EBBE
:202880000209B9F10D0FF8D9D1F80C9085EA0909C1F80C9062B6141BA24502D94FEA4E0EBD
:2028A000D5E72D040B4B0D615B683946BDE8F047C3600022084803F029BB064B3946BDE868
:2028C000F0475B680122C360034803F01FBB00BF65420008001000E0F081000838B5044692
:2028E0000A49007803F070FAD4E90132E1681C0409D4848A9D18A54205D816331844BDE8A9
:20290000384005F013BA242003F0B0F96542000838B514490446007803F056FA2379C27EC3
:202920001A44C27672B6827C9A4205D80022FE238274037762B638BDD21A12F0FF050ED092
:202940006C1EE2B2123300F114041444034400F1130213F8011F02F8011BA242F9D185747E
:2029600062B638BD9D2A000838B5682205460649007803F09FFA0446044B2879044963601C
:2029800003F022FA206138BD6929000829220008554B000838B5502205460649007803F0B9
:2029A00089FA0446044B28790449636003F00CFA206138BD95290008652200089D4E000893
:2029C00038B5542205460649007803F073FA0446044B28790449636003F0F6F9206138BD80
:2029E000C129000881220008554B000870B5067A032E12D8044650220B49007803F05AFA03
:202A000005460A4B20790A496B6003F0DDF92861037CDB0704D56E7570BD292003F026F968
:202A2000282003F023F900BFED2900089D2200089D4E000838B5502205460649007803F044
:202A400039FA0446044B28790449636003F0BCF9206138BD352A0008CD2200089D4E00088A
:202A600070B5067A032E0FD8044620220849007803F020FA0546074B207907496B6003F0F3
:202A8000A3F9AE77A86170BD272003F0EFF800BF612A0008E92200089D4E000810B5047984
:202AA000082C09D8221D0078D200054903F002FA044B8477436010BD222003F0D7F800BFBE
:202AC0009D2A00086D2300082DE9F0411F490646007803F079F9057F15F0020801D0BDE8AE
:202AE000F0813779B1680A2F367B2BD80A2E29D804463A46283005F0310505F017F945F0EF
:202B00000205F600FB002577A67784F81D80E3772FB194F8283003F03F032A2B0FD0226AD8
:202B20000B4B6262636072B60A4B20465B6803F56153A36003F042FC62B6BDE8F081064BB3
:202B40006360F0E7232003F091F800BFB1420008B1200008001000E03921000838B50E49F3
:202B60000546007803F030F9044603F0FFFB002323776A68E26002B938BDE383238484F835
:202B8000223072B6054AE368526820461344A36003F014FC62B638BD95380008001000E0D2
:202BA00038B512490546007803F00EF9044603F0DDFB0023637363616A68226192B1D4E9E9
:202BC000081212040A612385638584F82C3072B6074A2369526820461344A36003F0EEFB97
:202BE00062B638BDD4E908321A6138BD19400008001000E038B50F490546007803F0E4F839
:202C0000044603F0B3FB237D23F0010323756B6803B938BD0022E360E2822283A27672B648
:202C2000054AE368526820461344A36003F0C6FB62B638BD69290008001000E038B50E49F1
:202C40000546007803F0C0F8044603F08FFB002323766A6802B938BDE2606383A383A37799
:202C6000636172B6054AE368526820461344A36003F0A4FB62B638BDC1290008001000E0D3
:202C800038B50D490546007803F09EF8044603F06DFB00232375AA6802B938BD6A6820464B
:202CA000A260AA682377E260EA682383A2756383BDE8384003F082BBED29000838B50D4981
:202CC0000446007803F080F8054603F04FFB6368AB60A368EB6003B938BD0022E368284687
:202CE0002B6123696B6163696A772B77BDE8384003F064BB612A000838B50A4905460078DC
:202D000003F062F8044603F031FB6B682046A360AA68E260EA68C4E90423BDE8384003F037
:202D20004DBB00BF1939000838B511490546007803F04AF8044603F019FB0023FE206A68CF
:202D4000A260A968E1602A7C207762742274A374E376EB6863771B0606D401B938BD2046C9
:202D6000BDE8384003F02ABB202002F07FFF00BF9D2A0008F0B5124985B00646007803F034
:202D800023F8AF2305460F4CADF80C30006903AB02220121676802F0F9FB9DF80D20636820
:202DA00002F01F0202EB420254003178DB1B3A4605F116000094FFF7D7FB05B0F0BD00BFD3
:202DC00095290008001000E02DE9F0430678054683B02249304602F0F7FF90F815802C796D
:202DE000B8F1020FAF681DD01D4D3B46006922460121D5F8049002F0C9FB6D68A5EB0903AF
:202E0000B3F5616F94BF23460023B8F1010F18BF4D4600972A463146124803F077F803B04B
:202E2000BDE8F0830E4B02691946D2E9025C4FEA0C422A615A6848324B68D31A002BFBDA50
:202E400072B6C5F810C04D6862B601213B460069224602F09BFB2346DBE700BFED290008EC
:202E6000001000E008820008F0B5124985B00646007802F0A9FFB9230F4CADF80C30022201
:202E800003AB054601210069676802F07FFB9DF80D20636822F08002202A09D802EB8202B6
:202EA0000092DB1B3A46317805F11600FFF75CFB05B0F0BD352A0008001000E02DE9F04108
:202EC000204986B00646007802F07EFF01233A250DF11302194604460069009204AA8DF8B3
:202EE000105002F01BFA02F03BFB9DF81330DB0602D5A38B0133A3837223DFF84C808DF86E
:202F00000C3005ABD8F8047003AA206901210093022302F003FA02F023FB9DF814209DF814
:202F200015501202D8F8043002F4F85215433178DB1B3A4604F11A000095FFF715FB06B0FD
:202F4000BDE8F081C1290008001000E0F0B4072600244FF0FC41002814BF35460125114B10
:202F6000D3F8002242F00107C3F80072C3F81C42C3F84012441C0C49640522F0010240055F
:202F8000C3F84412C3F84842C3F84C12C3F85002C3F85412C3F80C62C3F81C52C3F8002265
:202FA000F0BC7047006400400600E0FF184B30B49A6812F0E05F21D053011DD4154912F005
:202FC000006F154B18BF0B4644680268082C254628BF0825596804F00F0421F00F015205F1
:202FE000214342F00102D0E9024059609C60D8601A60284630BC7047084BE5E772B65A69BB
:2030000042F001025A6162B64FF0FF35F1E700BF0064004090650040A0650040806500405B
:2030200008B50023034A18461360FFF78FFF322002F01CFE340300200C4BDA68D20108D411
:20304000DA680B4942F08072DA600B6843F001030B60074900EBC0030A46486800EBC300BB
:2030600053681B1A002BFBDB704700BFF0ED00E0001000E0F0B401240F26904B050953F80A
:2030800025508F4F05F13F4303F57F03D7F818C09B0A9C4044EA0C0400F00703BC619B00D3
:2030A000BC6906FA03F400EA060700295ED14AB3082606FA03F306076FEA040429D56E6842
:2030C000002A04EA060443EA04036B6029DD012303FA07F72F61A0F10D03012BC1F3031185
:2030E0002BD9012950D0022900F08580042977D0052956D0072900F0A380092900F0B48001
:20310000F0BC7047042606FA03F306076FEA0404D5D42E68002A04EA060443EA04032B609E
:20312000D5DCD8D00123103703FA07F7A0F10D03012B2F61C1F30311D3D8624A624C13682B
:20314000012923F0E06343F0806313606360D7D00229CBD1A0F12603032B65D8594A5A49CA
:20316000136843F4406313604B60C9E7012934D040F20116B1424CD003292CD0CE054CD58A
:203180000D2606FA03F396E70F2815D1F0BC4D4A4D49136823F4407343F4807313604B6006
:2031A000704713380228ABD8464A4749136843F0010313604B60A3E71328E7D01A38012879
:2031C0009ED8404A4049136823F4407343F4007313604B6094E700236DE701FA03F36AE725
:2031E000183801288CD8374A3749136843F0020313604B6084E7A0F11403012BAAD8314AE4
:203200003149136823F4406343F4006313604B6076E7052606FA03F34DE7002A3FF748AF3E
:20322000092606FA03F346E73C3803283FF668AF244A2549136843F4805313604B605FE78C
:20324000A0F11603012B1FD9A0F13503012B2DD9383801283FF654AF1A4A1B49136843F05E
:20326000300313604B604BE7A0F11803012B13D9303801283FF644AF124A1349136843F4E4
:20328000C04313604B603BE70E4A0F49136843F0040313604B6033E70A4A0B49136823F414
:2032A000C04343F4804313604B6029E7054A0649136843F0080313604B6021E7CC82000810
:2032C00000100240080500200000014038B500230446012241698169016903604360007934
:2032E00011462361FFF7C6FE012260791146FFF7C1FE1B4B1D465B6803F5B4636A689342EF
:20330000FCD84FF0FF3240F201116079FFF7B2FE4FF0FF3240F201112079FFF7ABFE012297
:2033200040F201112079FFF7A5FE012240F201116079FFF79FFE4FF4004323606B68084A16
:2033400003F5B47351688B42FCD800252420B4212522012325606060E1612262236038BDC8
:20336000001000E030B5214D8FB0046805944468069444690A9484690B940A9C31EA0404E0
:203380002DD00A9C14F4806F21D16C68E41A002CEBDB042405460B9B9A070A9B48BF44F043
:2033A0002004DB0548BF44F08004FFF78FFF2B69029409930599069A0A9B0B9D0998CDE91E
:2033C00000500B4802F0A2FD20460FB030BD074A5268D21A002AACBF06240224DAE70A9C64
:2033E0001440CED120460FB030BD00BF001000E0288200082DE9F04140F201140E469046AF
:2034000004600022012105461F46FFF7ABFF60B10528044602D02046BDE8F0813B4600223B
:2034200001212846FFF79EFF50BB2E6116F0010603D02B6843F480632B603B4600220221F1
:203440002846FFF78FFF044640B10528E3D13B46002202212846FFF785FF88B9EFF31082FB
:2034600072B6AB692EB1B8F1010F04BF40F20121296082F31088DB07CDD42F2002F0F6FB16
:203480000524C8E7BFF34F8F0549064BCA6802F4E0621343CB60BFF34F8F00BFFDE700BF48
:2034A00000ED00E00400FA0582B002AB03E90300DDE90030EFF3108272B61968C90602D5B5
:2034C000596B814203D082F3108802B070476FF010011960DB6C82F3108802B0704700BFB7
:2034E00038B5114B1B689A1E22F00702093B934200D038BD0AA5D5E90045D3E90023AB42D1
:2035000008BFA242F5D14FF000631A68D31D23F007039A42EDD172B6C2E90001FFF7B2FFF4
:2035200043616E426F6F7421040000080000000008B503A1D1E90001FFF7D2FFFFF7A2FF3E
:203540003D24A8A945EC067BB1B130B405464FF6FF70294415F8013B040A434083EA0313F8
:20356000DBB2DA0044EA03248D4282EA131384EA0300EFD130BC70474FF6FF70704700BF30
:20358000134B984218D8134B98424FF0010308D8114A00F14040800A03FA00F01368184092
:2035A000704700F13F400D4A00F57F00800A03FA00F0136818407047012300F13F40084A32
:2035C00000F57E00800A03FA00F0136818407047FFFF0140FFFF00401C1002401810024022
:2035E00014100240194B10B4984224D8184B98424FF0010315D800F14040800A1549164A41
:2036000003FA00F0EFF3108472B6136803431360136811B1002308600B6084F3108810BCDD
:20362000704700F13F4000F57F00800A03FA00F00A490B4AE6E7012300F13F4000F57E00FC
:20364000800A03FA00F00021064ADBE7FFFF0140FFFF0040101002401C1002400C10024015
:20366000181002401410024070B5514C1646002304F1C00203E0083494422FD0237983422D
:20368000F9D14C4B4D08A3FB0535FD294FEA95154FF00002A17988BF05F1FF35FFF7EAFCEB
:2036A0002068FFF76DFFE0B12368ADB21A68D2070ED4FE229D62DA625A6942F001025A615A
:2036C0006279013A032A70D8DFE802F0573F270F9A6AAA42F4D0342002F0C8FA352002F0D7
:2036E000C5FA2068FFF77EFFDEE71A6A03F1400022F480521A62DA6922F4E642DA61DA6930
:2037000042F4D842DA611E641A6A42F480521A621A6842F001021A6070BD1A6A03F13C0082
:2037200022F480721A62DA6922F07302DA61DA6942F06C02DA61DE631A6A42F480721A6279
:203740001A6842F001021A6070BD1A6A03F1380022F010021A629A6922F4E6429A619A697C
:2037600042F4D8429A619E631A6A42F010021A621A6842F001021A6070BD1A6A03F13400AF
:2037800022F001021A629A6922F073029A619A6942F06C029A615E631A6A42F001021A627F
:2037A0001A6842F001021A6070BD332002F05EFAE882000809040281027A41680078FFF779
:2037C00053BF00BF10B582B002AB03E903002049DDE900348B4230D001F580618B422ED0B3
:2037E00001F580618B422CD001F580618B422AD001F580618B4228D001F580618B4210D06B
:2038000001F580618B4208BF06200BD00020EFF3108472B60021FFF72DFC84F3108802B07D
:2038200010BD0520030194FAA4F0002CB0FA80F008BF4FF0FF301844E9E70023F3E70120AB
:20384000F0E70220EEE70320ECE70420EAE700BF0008014070B56F2982B015D80C4B04462A
:20386000080953F820607EB1012501F00F018D40CDE9006502AB13E90300FFF7A3FF204684
:20388000C4E9006502B070BD2B2002F0EFF900BFCC820008F0B5582283B006460D49007891
:2038A00002F008FB00270C4B0777436004460B49307902F089FA6D46A061B16828463A46FD
:2038C000FFF7C8FF95E80300103484E8030003B0F0BD00BF95380008A12100089D4E000847
:2038E00070B5064682B0FFF73FF83078094902F06BFA6C460546B16820460122FFF7AAFF69
:2039000094E80300022205F1500383E803002A7502B070BD6929000870B52C2282B0054645
:203920000A49007802F0C6FAD5E901126C4606462046FFF78FFF94E80300054A06F1240365
:2039400083E80300726002B070BD00BF193900080D230008F0B50E49054683B0007802F013
:2039600033FA2B79827F9A420FD9D5E902126F46044638461E1DFFF76DFF97E8030004EB54
:20398000C60484E8030003B0F0BD212002F06EF99D2A000882B002AB03E90300EFF31081E4
:2039A00072B6DDE90020D3684340D36081F3108802B070472DE9F04FD0E905BAD0E909768E
:2039C00080460D46016A91B0C369027A0091C06A05930C93009B0190D8F830100D93019B10
:2039E0000291D8F834000893029B0390CDE90EBAD8F838100993039B0EAC0491CDE90A7610
:203A000094E803000693049B85EA02090793FFF7C1FF19F0100F4CD119F0200F50D119F07E
:203A2000400F54D119F0800F58D13C490A464968103153685B1A002BFBDB94E80300FFF7E4
:203A4000A9FF364A29011046C9B288F80810536813334268D21A002AFBDB059BCDE90EBAF6
:203A60000C93009B4D400D93019B94E803000893029BCDE90A760993039B0693049B07934A
:203A8000FFF788FFE80642D4A9063AD46A062BD42B0630D4214B19465B6810334A68D21AD5
:203AA000002AFBDB94E8030011B0BDE8F04FFFF771BF0CA903C9FFF76DFF19F0200FAED023
:203AC0000AA903C9FFF766FF19F0400FAAD008A903C9FFF75FFF19F0800FA6D006AA92E831
:203AE0000300FFF757FFA0E708AB93E80300FFF751FF2B06CED506AB93E80300FFF74AFF37
:203B0000C8E70AAB93E80300FFF744FFBEE70CAB93E80300FFF73EFFB6E700BF001000E031
:203B20002DE9F04180460068D8F8045089B116464B1EDBB20133094CD71816F8011B6368F3
:203B40001B1AAB42FBD34046FFF734FFB7426068F3D1C8F80000BDE8F08100BF001000E0BC
:203B600010B507490446007802F02EF9D0E903231361A2682179BDE81040FFF7D1BF00BF24
:203B80000D41000810B507490446007802F01CF90369C2681B041361A2682179BDE810402F
:203BA000FFF7BEBF0D4100082DE9F041082584B0E84600F1140300F10C020DEB05070C4609
:203BC00092E8030087E8030093E8030088E80300134E23061CD472680E3273689B1A002BB6
:203BE000FBDB97E80300FFF7D5FE72680E3273689B1A002BFBDB97E80300013D6400FFF7DF
:203C0000C9FE15F0FF05E4B2E3D104B0BDE8F081E44398E80300FFF7BDFEE4B2DBE700BF4E
:203C2000001000E02DE9F84FD0E900A6174617F801BB0D460BF0F00191468046FFF7B4FF2B
:203C4000174C6368A3EB0A039E42FAD84FEA0B1101F0F0014046FFF7A7FF012D6468D8F8C6
:203C6000086019D0AB1EDBB202330D4D994417F801AB40460AF0F001FFF796FF6B681B1B71
:203C80009E42FBD84FEA0A1101F0F0014046FFF78BFFB9456C68EAD1C8F80040BDE8F88F7C
:203CA000001000E038B509490446007802F08CF8FA210546FFF778FF217901B938BDA26877
:203CC0002846BDE83840FFF7ADBF00BFD141000838B509490446007802F076F8F821054659
:203CE000FFF762FF217901B938BDA2682846BDE83840FFF797BF00BFD141000810B582B073
:203D000002AB03E903002248DDE90031834234D000F58060834232D000F58060834220D0B7
:203D200000F5806083422CD000F5806083422AD000F58060834228D000F58060834208BF66
:203D400006200FD00020EFF3108472B602B90904196100220121FFF78DF984F3108802B0DD
:203D600010BD0220040191FAA1F00029B0FA80F008BF4FF0FF302044E5E70024F3E701206C
:203D8000F0E70320EEE70420ECE70520EAE700BF00080140F0B56F2983B021D8124B05464E
:203DA000080953F82060DEB10124104806F13F4303F57F0387699B0A04FA03F33B4301F030
:203DC0000F018C4083618369CDE9006402AB13E90300FFF793FF2846C5E9006403B0F0BD09
:203DE0002C2001F043FF00BFCC820008001002402DE9F047044682B008460F4604F04EF936
:203E0000804664F04F00C0B201F0F8FE102001F0F5FE022001F0F2FE08EB4803174EE40141
:203E20005B0002347E2B346025DCB8F1000F1ED0DFF84C907D1EC7F1010701220921684604
:203E400015F8014FFFF7A6FF04EB440409EB440404F1FF3A05341AF8010F01F0A7FE54453F
:203E6000F9D132687B19063243453260E5DB002002B0BDE8F0874FF01508D9E7FC0400200E
:203E80002400002000224FF0FF3180B582B0930003F1604303F56143C3F88010BFF34F8F45
:203EA0000132082AC3F88011F1D1002318464A49CA180133F02B82F80003F9D10422474B4B
:203EC0001A60BFF34F8F0023454A4FF020611C4610465160C21801330C2B1476FAD1BFF3B1
:203EE0004F8FBFF36F8F62B63E4A3F4BD21A07D03E490A4451F8040B914243F8040BF9D133
:203F00003B4A3C4BD21A05D000211A4443F8041B9342FBD14FF41F0700244FF000661425EF
:203F2000354B122019461A6842F001021A60D3F804C0324A0CEA02025A601A6822F08472F6
:203F400022F480321A601A6822F480221A605A6822F4FE025A609F60214A294F966097600A
:203F60005D61DC619C611A68264C42F480321A605C601A68244C42F080721A6020600B68B4
:203F80009B01FCD5214B1C4A4B60536803F00C03082BFAD11E4C2046FFF724FB1D48002210
:203FA0000368012123F0E06343F00073036063601720FFF75FF8684600221721FFF7EAFEE8
:203FC000002201210620FFF755F8684601220621FFF7E0FE03F006FB00E100E010E000E0E3
:203FE00000ED00E0340300200000002014970008D005002034030020001002400000FFF835
:204000000020000800E41D000020024002E41D00000001400805002070B506466022154953
:2040200082B0007801F046FF337913495A1E032A41601CD86D4604460373B1682846012241
:20404000FFF708FC95E8030004F1180383E803000022F1682846FFF79DFE95E8030004F179
:20406000200383E80300626A026102B070BD2A2001F0FCFD19400008E1210008F0B52249F2
:2040800083B00646007801F09FFE0746282001F0E3FE41F288336C460546436233690122E5
:2040A0005B0080F8203071682046FFF7D3FB94E8030005F1100383E8030001227168204682
:2040C000FFF768FE94E8030085E803000122B1682046FFF7BFFB94E8030005F1180383E848
:2040E00003000122B1682046FFF754FE94E8030005F1080383E803003B7A3D6043F001035C
:204100003B7203B0F0BD00BF554B0008F0B53C2283B005462C49007801F0CCFE6C46064604
:20412000696820460022FFF735FE94E8030006F10C0383E803000022A9682046FFF72AFE53
:2041400094E8030006F1140383E803000022E9682046FFF71FFE94E8030006F11C0383E878
:204160000300002229692046FFF714FE94E8030006F1240383E80300002269692046FFF7BF
:2041800009FE94E8030006F12C0383E803000022A9692046FFF7FEFD94E8030006F13403CD
:2041A00083E8030072B6094F304600217C68FFF701FC7A6862B6EB69111B994202D2A41ABC
:2041C0001C44746003B0F0BD0D410008001000E0F0B51C2283B006462049007801F06AFE69
:2041E0006D460446B16828460022FFF7D3FD95E8030004F10C0383E803000022F168284678
:20420000FFF7C8FD95E8030004F1140383E80300012228467168FFF7BDFD2046F821FFF75A
:20422000C3FC20462021FFF7BFFC72B60C4F204600217D68FFF7B8FC7B6862B623603169B6
:204240005A1B8A4202D2E81A0144616071698A4202D2ED1A0D44A56003B0F0BDD1410008F0
:20426000001000E070B582B06D460446416800222846FFF78FFDA3681A0413D49EB206F1E8
:20428000180292B20949207801F014FE034695E8030083E80300E2689E829A6022691A6132
:2042A00002B070BD252001F0E1FC00BF654200082DE9F043342283B005461949007801F0B6
:2042C000F9FD6C46064695F80890D5F8048019F1000218BF0122EF6841462046FFF7BAFA80
:2042E00094E8030006F1140383E80300012239462046FFF74FFD94E8030006F10C0383E889
:2043000003002B69B9F1000F33620CBF01231123B84508BF43F02003337703B0BDE8F08306
:20432000B142000810B5044630F8052B82B023790090054801F0EAFD002223882271013304
:20434000238002B010BD00BF2082000810B5182484B003AB00690DF10B02009301210223A1
:204360008DF80B4000F0DAFF9DF80C009DF80D3043EA002004B010BDF0B5184983B00546DF
:20438000007801F021FD037D04469B0711D4144F7E68FFF7DBFF40107B6800F00400009075
:2043A0009B1B3246297804F11600FEF7DDF803B0F0BD72B60A4A036D5268416D9B680B4057
:2043C00062B6002B0CBF042300232978163000930023FEF7C9F803B0F0BD00BF6929000879
:2043E000001000E008B572B60449C36849680B44836001F0E3FF62B608BD00BF001000E02E
:2044000038B50B490546007801F0DEFC044601F0ADFF002323756A6802B938BDA376E2604E
:20442000E38223832046BDE83840FFF7DBBF00BF9529000838B50B490546007801F0C4FC24
:20444000044601F093FF002323756A6802B938BDA376E260E38223832046BDE83840FFF773
:20446000C1BF00BF352A0008F0B4847D511A2CB10125621E95400D4425FA04F1047FFE291F
:2044800004F10305EDB204F1010704F1020609D80444074406441A0A61777B777277057775
:2044A000F0BC7047FF210122002304440744064461777A7773770577F0BC704770B5164643
:2044C0001D4682B0044600930A4633469DF818100E4801F01BFD15B92369B3420FD9637F6C
:2044E000227F0133DBB29A42637701D902B070BD074B9B7A3BB10023637702B070BD6369F0
:20450000B342F8D2EBE7262001F0B0FB0082000800000020084B094903FB00F010B4084CD3
:204520004B680A46A4FB001003EB904053689842FCD810BC704700BF40190100001000E016
:2045400083DE1B4310B5044600F1080393E803000022FFF7D3FB606AFFF7DCFF04F110038A
:2045600093E803000122FFF72DF91834E068FFF7D1FF94E80300BDE810400122FFF722B9BC
:204580002DE9F843082604460D4600F1180800F1100700EB060918E0002299E80300FFF758
:2045A000ADFB606AFFF7B6FF97E803000122FFF709F9606AFFF7AEFF94E8030000226D00C6
:2045C000FFF79CFB013EEDB207D02B06E4D598E803000122FFF7F6F8E3E798E803000122B5
:2045E000FFF7F0F8606AFFF795FF97E803000122FFF7E8F8D4E906239568606A1D40FFF70E
:2046000089FF94E803003246FFF778FB98E803000122FFF7D7F8281C18BF0120BDE8F883EB
:2046200038B504460D46406AFFF774FF04F1180393E803000122FFF7C5F804F1100393E8F6
:2046400003000122FFF7BEF8606AFFF763FF04F1080393E803000022FFF750FB606AFFF7C5
:2046600059FF94E803000022FFF748FB29462046FFF786FF012808BF032038BD08B51920BA
:2046800001F0F4FA2DE9F04190F8108082B0B8F1030F36D806461D49007801F095FB0746E9
:2046A0001C2001F0D9FB6C460546012220467168FFF7D0F894E8030085E803000022B168B2
:2046C0002046FFF767FB94E8030005F1080383E803000022F1682046FFF75CFB94E8030081
:2046E00005F1100383E8030085F818803B7C13F0060F08D143F002033B743D6002B0BDE8AB
:20470000F081FFF7BBFFFFF7B9FF00BF9D4E000810B5037F04469A060DD500F10C0393E88A
:2047200003000122FFF7EAFA237F03F0300343F00103237710BD03F0300343F00103D0E9FD
:2047400003211161237710BD012270B54169437F8E6800EBD304856903F0070102FA01F119
:2047600094F828202E421ABF0A43D2B28A4384F828200133827FDBB29A4207D90121826830
:20478000446A437722448260084670BD0446FFF7BFFF237F044843F00803237701F0AEFB90
:2047A0000021084670BD00BF1805002038B5D0E90524926805462240017F0DD041F0040158
:2047C00001776A7F511C3F2A69770ED8AA68696A01200A44AA6038BD4B07F2D50A49427764
:2047E0004160BDE83840FFF7AFBF00242846AC77FFF78EFF2B7F054843F008032B7701F097
:204800007DFB204638BD00BF494700081805002038B5857F0446B5B1027F93060AD4002177
:20482000A368656A0D4A03EB850361770120A360626038BD00F1140302F0100293E8030094
:20484000FEF7C0FFEBE7FFF763FF237F044843F00803237701F052FB284638BDAD47000817
:204860001805002008B51F2001F000FA70B518490646007801F0A8FA044601F0CFFA736858
:2048800005464360B368038172B60022A369026023B1E3691860E06162B670BDC4E9060002
:2048A00062B6204601F062FD0A4B62689A426B6807D0094A2046C4E90123BDE8704001F0B5
:2048C0007DBDA268D21A002AF3DA1E2001F0CEF9994B000865480008D54B000870B50C4978
:2048E0000546007801F070FA72B690F82030DB0701D462B670BD044600F10C06304601F0EA
:2049000035FD6B683046636101F058FD62B670BD754B000838B517490546007801F054FAB6
:20492000044601F023FD6B68A360AB68A3612B7B84F82530CBB12A6984F8263062616A6941
:204940000D4B002A14BF0322022284F82420287E0A49636001F038FAEB69206284F8273071
:204960002046BDE8384001F029BD84F82430236238BD00BFE9520008E5580008754B000884
:2049800038B50E490546007801F01EFA0C490446287901F019FAEFF3108272B6236C4BB994
:2049A000C369084D04F13C01C4E90F35C16182F3108838BD172001F059F900BFE54E0008BB
:2049C000754B00082D4C000810B504460A49007801F0FAF9626872B643694BB990F8443032
:2049E000826023F00803826180F8443062B610BD142001F03BF900BFE54E000810B50446A1
:204A00000949007801F0E0F96368002B14BF0223002372B690F8442022F00202134380F8F9
:204A2000443062B610BD00BFE54E000838B51D490546007801F0C8F9044601F097FCA36A80
:204A400063BB2A7994F83030002AB2FA82F2D4E9065112BF012000200904296183F010011E
:204A60005209C1F3001103F010038A4243EA000301D0226A12B984F8303038BD0A4843F096
:204A8000040340680949024484F830306261C4E901122046BDE8384001F090BC102001F08F
:204AA000E5F800BFD54F0008001000E07D5C000870B51D490646007801F086F9044601F063
:204AC000ADF975684560B368836072B60022A36A026023B1E36A1860E06262B670BD94F84B
:204AE0003030C4E90A005A0716D443F004029B07656184F830200AD4204601F037FC0B4B29
:204B00002046C4E9013501F059FC62B670BDA3685B1B002BF9DBEFE76269521B002AE4DA4B
:204B2000112001F0A3F800BFD54F00087D5C000810B507490446007801F046F972B6836AD0
:204B40001BB96368436262B610BD122001F08EF8D54F000800780C22014901F0ABB900BF53
:204B6000554B000800781422014901F0A3B900BF9D4E000808B524220078044901F09AF94A
:204B8000034A044B4260036108BD00BF754B0008C15200087958000838B5027B0446816896
:204BA0000079FEF761FD202205460849207801F081F9D4E90412064BC560818243600261F6
:204BC0000C21BDE83840183001F014B9994B0008D54B000838B504468069E368026805890E
:204BE000A2611D6001F032F8A069A38A58B9AB4201D0206900B938BDA3680B4A1844C4E975
:204C00000120012038BDAB42426801D0236913B9A260012038BDA1680B449B1A002BF7DA7C
:204C20001E2001F023F800BF6548000838B504463C3801F09BFB00220025237A54F8281C10
:204C400044F8342C44F8242C54F80C2CD8064CBF521AA2EB5102002A54F8101C03F01403C7
:204C6000C8BF524243F0080354F8140C44F80C2C0904DA06237244F8285C016105D409E095
:204C8000036844F8083C00F0E1FF54F8080C0028F6D138BD5B0754E9071258BF12040A61C5
:204CA000F3E700BF30B5047883B00C49204601F08BF872B690F82420C36962B6D0E9035153
:204CC000A868C2F34002084214BF0120002021460090034801F01AF903B030BDE952000846
:204CE000B881000810B504780D49204601F06CF872B690F84430026B13F0100F436914BFEF
:204D0000D21AA2EB5302002AB8BF524262B605482146BDE8104002F1404201F0F7B800BFFB
:204D2000E54E0008B08100082DE9F04127490446007801F049F8037A2579DB07A46815D561
:204D4000066896F820103046FFF76AFC48B9254405E0304614F8011BFFF712FC08B9AC42B5
:204D6000F7D13046BDE8F041FFF7ECBB184B07685E68017906F5AF2606F5C8663346384680
:204D80002A46FEF737FBF0B905F1FF385FFA88F875B1651CA84400E00135227833463A6176
:204DA000802100223846FEF7DDFA45452C46F3D140F2012233463A603846BDE8F0418022C8
:204DC0000021FEF7CFBABDE8F08100BF554B0008001000E02DE9F84304462049007800F05B
:204DE000F3FF6768267B022F34D8DFF87480054658F837402046FEF7C3FB814640B12B7AC1
:204E0000760043F002032B722E712C60BDE8F8832046FEF7E7FB08EBC7072046FEF756FA53
:204E2000387901224FF4A171FEF724F9787901224FF4A171FEF71EF94FF400472420B4211F
:204E4000252201232760C4F800906060E16122622360D4E7302000F009FF00BF554B0008A1
:204E6000BC83000870B504460A49007900F0ACFF257A064605F108022078074901F01AF83F
:204E800005710660E1682A46BDE87040053002F04DBF00BF9D4E0008654E0008F0B5064697
:204EA00083B014220E49007801F004F8B7686D46B7FA87F20446716828465209FEF76AFF87
:204EC00095E80300002F14BF0925012504F1080282E8030094F910302B43237403B0F0BD5E
:204EE0009D4E00082DE9F041054682B048220078304900F0DFFFEF680446002F27DD0422D8
:204F00006E4680F8442069683046FEF743FF96E8030004F1200383E803000022A9683046D3
:204F2000FEF738FF96E803004FF0404204F1280383E8030022632B691021E36104F13400BE
:204F400000F058FF1C4B636002B0BDE8F0814FF000086E4680F84480696842463046FEF71D
:204F600019FF96E8030004F1200383E803004246A9683046FEF70EFF96E803004FF04042BF
:204F800004F1280383E8030022632B691021E36104F1340000F02EFFE369002BD2D1002F66
:204FA000D0D094F8443043F0100384F8443002B0BDE8F081E54E0008315A0008034600B587
:204FC000D3E9001283B06846FEF7E4FE03B05DF804FB00BF30B583B06D46044682684168DD
:204FE000003218BF01222846FEF7D4FE34221049207800F05FFF024695E8030002F11803E5
:2050000083E80300D4E90231003318BF012311B143F010035BB20C2182F83030236902F169
:205020002800136203B0BDE8304000F0E3BE00BFD54F00082DE9F84306462949007800F018
:20504000C3FE347A032C45D8037C054613F0060F40D17368F768042B3ED8224A03EB430383
:205060009B00D65802EB03083046FEF789FA8146A8B100231C485A1C20FA02F18F4227D28D
:20508000082A1346F7D138232A7C1C4342F0040344F451742B74C5E90064BDE8F8833046E0
:2050A000FEF7A0FA98F8071098F804000122FDF7E1FF4A4698F8081098F80500FDF7DAFF95
:2050C0004A4698F8091098F80600FDF7D3FFD0E7DB00D9E7FFF7D2FA312000F0C7FD00BF63
:2050E0009D4E0008D48300080051250238B514490546007800F068FE044601F037F904F123
:20510000200393E80300FEF7CFF96B686361A360AB6823612B7B5A1C84F82B3084F82A2047
:205120002A69E260EA69D5E9050184F829206083A18303B938BD2046BDE8384001F03EB99B
:2051400045510008F8B54468054614B301222449134601E011F8012F94421E4605D0013300
:20516000112BF7D12D2000F081FD1E48FEF708FAD0B1FE2C12D12C221B49287800F09AFEAB
:2051800001231A49174A80F82A30466241600262F8BD1448FEF7F4F9264628B120460022E8
:2051A0000321FDF767FFE6E70E4F3846FEF71AFA01230A20BB60FDF73FFF09233946BB605F
:2051C0008B681A07FCD40523064A8B6093685B07FCD4074B0749D360074B11619360C8E720
:2051E000A98300080024014045510008FD510008244992002449922401009E00D0E908316F
:205200001A6812F0100F30D0920702D55A6B8A4205D0836803F5B4638360012070476FF001
:20522000100210B51A6090F82A2090F82B10DB6C8A429BB21DD301228A42038380F82A2001
:2052400021D3428B04469A4223D8828B9A4220D3002384F82830174800F050FE6369E268E6
:20526000012013446361A36010BD134A59639A60CFE7048B0132D2B223449BB28A4203830D
:2052800080F82A20DDD28368026913448360012010BD94F8283094F829200133DBB29A42C9
:2052A00084F82830D7D8054B9B7A002BD0D1182000F0DCFC240500200100DE0000000020F2
:2052C00010B5044690F82030064843F0040384F8203000F013FEA368A26901201344A36001
:2052E00010BD00BF2805002070B5282282B006460949007800F0DEFDD6E901126D46044684
:205300002846FEF7A7FA95E8030004F10C0383E8030002B070BD00BFE95200082DE9F04F61
:2053200090F808C083B01CF0010F0F461546994604680C9E64D094F82010002F40F09C80BE
:2053400041F001012046FFF76BF98246002840F0DB8009F1FF3B5FFA8BFBB9F1000F48D0FB
:2053600004F10803B34404F1180904F110080193012299E80300FEF725FA08270025606AA6
:20538000FFF7C8F898E803000122FEF71BFA606AFFF7C0F8D4E9062394E8030092686D0063
:2053A0001A42EDB24FF0000218BF45F00105FEF7A5FC013FE3D199E803000122FEF702FA7D
:2053C0005E4540F0888099E803000122FEF7FAF9606AFFF79FF898E803000122FEF7F2F986
:2053E000606AFFF797F894E803003A46FEF786FC35702046FFF7A6F8504603B0BDE8F08FDC
:20540000434B01795B6841F0010B03F5AF2808F5C868002F47D1594643464A462046FDF72F
:20542000E9FF82460028E7D109F1FF35EDB2B9F1000F18D040F201274346002240212046A2
:20544000FDF790FF48B9EFF3108372B62269012D327008BF276083F31088013DEDB2FF2D6B
:2054600006F10106E8D1434620464022002103B0BDE8F04FFDF776BF2046FFF7D1F8824656
:205480000028B6D1013FFFB201372F4415F8011B2046FFF775F882460028AAD1BD42F5D19F
:2054A00094F820104CE743463A462046FDF7A2FF82460028A0D1013FFFB201372F4415F8EF
:2054C000012B43462261802100222046FDF74AFFAF42F4D19FE7019B3A4693E80300FEF763
:2054E0000DFC606AFFF716F898E803000122FEF769F9606AFFF70EF894E803003A46FEF71E
:20550000FDFB06F8015B33E74FF0040A71E700BF001000E02DE9F04182B00446067802AFD9
:205520000D49304600F050FC257BA268EB1D03F4FC73ADEB030D0DF10808CDF800802B46DF
:205540002179FFF7EBFE43462A463146034800F0DDFCBD46BDE8F081554B0008D88100082C
:20556000013808B503280FD8DFE800F00B0805021B2000F07BFB1C2000F078FB1A2000F0E8
:2055800075FB1D2000F072FB08BD00BF2DE9F04F90F8108085B018F0060F34D018F00205AB
:2055A00000918146046831D140682168884204D021F0400121602168206018F001010191DE
:2055C00040F08F80511EC9B272B15A1800995E1E16F8013F2373A368DB07FCD5237BDBB22B
:2055E00001B133709642F3D1A36803F08203022BFAD1019B3BB1D9E9026008F00807002F5D
:2056000040F08380306105B0BDE8F08F267ED4E90401B60758BF0904016118F001010191A8
:205620005FD1511EC9B2002AEDD05A1804F11007CDF80880A04614465E1ECDF80C904FF042
:20564000080B002516F801AF1EE097E80300FEF7A1F9D8E90223B9F1000FA8BF1B041361AC
:2056600097E80300FEF796F9D8E9002392686D001A42EDB24FEA4A0A18BF45F00105BBF193
:20568000010B5FFA8AFA24D098F818304FFA8AF9DA07DAD4D8E90223B9F1000FA8BF1B04D5
:2056A000136197E80300FEF775F9D8E9002397E8030092686D001A42EDB218BF45F00105B7
:2056C0004FEA4A0AFEF766F9BBF1010B5FFA8AFADAD1009B03B13570B442B0D1DDE90289ED
:2056E00087E718F00807D9E902600ABF01043061316115B90121019164E7511EC9B2002A2F
:205700003FF47DAF012201928FE7000430617AE710B504460549007800F056FBA36822794C
:205720000021BDE81040FFF731BF00BF9D4E000870B5044605780949284600F045FBA668D1
:205740002479334622460121FFF720FF334622462946BDE87040024800F0D8BB9D4E00082F
:20576000D081000810B5044600F000FE04F10C0000F0FCFDE36933B100221968C3E9002248
:205780000B460029F9D10023238484F82230E36110BD00BF38B50F490546007800F014FB56
:2057A000044672B6FFF7DEFF012384F820306B68A360AB68A36123B9EB6884F8223062B6B2
:2057C00038BD204600F0FAFDEB6884F8223062B638BD00BF754B00082DE9F041EFF3108811
:2057E00072B690F82030DA071AD5044623F00502C36942F0040280F820200F4684F8211057
:205800005BB10025D3E900621846E6613946C3E900559047E369002BF4D1034800F06EFB5D
:2058200088F31088BDE8F0812805002070B5057882B006460E49284600F0C6FA044672B6EB
:205840003179FFF7C9FF204600F090FD04F10C0000F08CFD002294F8213084F8202062B6B0
:2058600004480092294600F051FB02B070BD00BF754B0008C081000808B50C3890F8221035
:20588000FFF7AAFF002008BD10B5D0E90312896890F82440114218BFE44304F00104034681
:2058A0006CB990F82620013A12F0FF0211D099689C6983F8262021440120996010BD93F838
:2058C00025200748D96983F82620C3E90101012010BD90F82710006AFFF77EFF204610BDC6
:2058E000E558000810B4D0E902329468D0E904121A4490F824300C4218BFDB4303F0010373
:205900001BB1826010BC01207047034BC261436010BCFFF7B9BF00BF89580008436B13B9C5
:2059200043611846704770B5D3E90051B3F9082090F8444056184563E5060282C6605A890E
:205940000ED584684261214481601C7B016BE40710D40A440263184600F078F9012070BDFD
:205960008569540029448161816044611C7B016BE407EED5D0E90A45521AE1680263694094
:205980001846E16000F062F9012070BD38B527490546007800F018FA044600F03FFA6B6867
:2059A00043602B894381002B3DD00022EB680273038172B694F8443003F00101C3F3400211
:2059C000914205D0027B83F0010342F0010202736269B2B913F0080203D000F037F962B633
:2059E00038BD616B84F844300260A9B1A36B1860A0632046FFF792FF204600F0DFFC62B67B
:205A000038BD0021626B84F8443001603AB1A36B1860A06362B638BDC4E90D00E9E7C4E99A
:205A20000D0062B638BD152000F020F9E54E000838B5D0E90825D36815496B40D3604369DD
:205A40004D68C269013B1544DA070446436102D50120A56038BD6BB1C1688369B0F9102006
:205A60000B440A44591B00298361C260F0DB8360012038BDFFF752FF0028EBD0A3685B1B77
:205A8000E8D5044A9342E3DA162000F0EFF800BF001000E0C0E6FEFF10B4D0E90614CA6841
:205AA00083686240CA6090F8301081F00102C90754BFC168016980F8302052070B4403D436
:205AC000836010BC012070474269991A0029F7DB1346034A8360426010BC0120704700BF58
:205AE0007D5C0008704700BF10B4D0E900348268EFF3108172B6DBB2012B07D0022B0BD081
:205B0000D2B2227081F3108810BC704792B2228081F3108810BC7047226081F3108810BC11
:205B2000704700BFF0B40D4A03780D4D5C1C1268E3B22E7802EBC30205E0174652F8085B51
:205B40005C1C8D4205D0E3B29E42F6D80020F0BC704703707868F0BC704700BF5805002071
:205B6000540500200378DBB213B1002201230270184670470020704730B400240749084B91
:205B80008868084D00F5DB020344074802F5BA420472AB60012030BC8A6070470C0000200A
:205BA00000DD6D80180000200000002030B583B00122092105466846FEF7ECF868460022BC
:205BC0000A21FEF7E7F8082400221D216846FEF7E1F82B064CBF012200221F216846FEF75A
:205BE000D9F801221D216846FEF7D4F8631E6D0013F0FF04EDB2E7D103B030BD30B583B001
:205C00000022092105466846FEF7C4F8684600220A21FEF7BFF8082400221D216846FEF7B8
:205C2000B9F82B064CBF012200221F216846FEF7B1F801221D216846FEF7ACF8631E6D0010
:205C400013F0FF04EDB2E7D103B030BD054A0649136810B40C68013B04600860136010BCAF
:205C6000704700BF500500204005002008B5014672B6014802F08CF960050020F8B504466C
:205C8000806A00287ED003688568A362D4E9062345BB1B041361FFF7D9FF002D0CBF0121E6
:205CA000002194F8303018BF012683F01002C2F3001208BF002691422DD0216A59B3A3682E
:205CC000A26A46F004061944002A4ED194F83020616102F01002324384F83020B20728D539
:205CE0002B4430E01361FFF7B1FF626AAA42D4D9216A002933D194F83030A06A03F01003F2
:205D00005BB2002844D1A16843F0030384F8303060616B181BE0A06A03F010035BB258B1B6
:205D20000027416846F00406334384F8303061613FB9A1600120F8BD334384F8303060615D
:205D4000F8BDA3682B445A1A002AF2DA626A1249521B2261C4E9023561600120F8BDA3680D
:205D6000A26A07261944002AB0D05368C91A00290BDB94F83020194602F0100206F00207F8
:205D800053B2CFE71320FFF771FF1120FFF76EFF03260227C5E700BF995A000808B5054A57
:205DA000937A23B1022B1CBF0023937208BD0220FFF75CFF0000002008B5024B1878FFF7EA
:205DC00055FF00BF5C05002008B5084B1B78834209D9074B1B6853F8302003EBC0038A42F8
:205DE00001D1586808BD0A20FFF740FF540500205805002008B50023064A1288C0E9003351
:205E00002AB9054B1A788A42B8BF197008BD0C20FFF72CFF3E0500204405002038B5EFF344
:205E2000108572B60949086868B1094C094B22681B680132934238BF1346026823600A6065
:205E400085F3108838BD0D20FFF710FF400500204C0500205005002038B50A4D0A4B2C6893
:205E600022189A420BD8C31C23F0030323440246002120462B6002F035F8204638BD0F20C7
:205E8000FFF7F4FE2C050020004E002038B5074C236843B90568E8B2C000FFF7DDFF044BAC
:205EA00020601D7038BD0820FFF7E0FE580500205405002038B50C4B1B78834210D90B4B13
:205EC0001B6853F8304003EBC0054CB9084C248834B943F830101046FFF7BEFF686038BD9E
:205EE0000920FFF7C3FE00BF54050020580500203E05002008B50320FFF7B8FE0022024BAF
:205F00001A72012303707047000000200FB42DE9F04FDFF848B287B09BF80030109FDBB268
:205F200023B107B0BDE8F04F04B070470120DFF8308211AA98F80B1098F80C608BF80000F8
:205F4000B1420592914605D31E46194688F80C3088F80B30BC78A319602B254618D95B1A82
:205F6000602B07D900238BF8003007B0BDE8F04F04B07047761A983141443246734801F0D8
:205F80004BFF002388F80C6088F80B30BC78254606F1980308EB0302052C01923CD93B8828
:205FA000901C053C7F2B15460444FA787F6800F2BC8003F07F0300F8013BBB18CDE90236B6
:205FC000029B9F4223D08442C0F0BD8017F8013B072B00F2B880DFE803F05A5A5A5A5A4436
:205FE00004044D4655F8086B221A964228BF1646034603F8016B3246D9F80410184601F093
:2060000095FE8219029BA9469F421046DBD1019B039EC01AC51CECB24D4BDDF804901B78B9
:2060200008EB0602EF1E82F89840394689F801304846FDF789FA7E220346010A4D4409F84A
:206040000710264405F8023C05F8012C4148CDF8049088F80C60FFF751FF00238BF8003070
:2060600083E74D4655F8041B421C0B786BB1944202D865E0944248D002F8013B11F8013F58
:20608000002BF7D1131A013BDBB20370BAE74D4655F8043B421C03F120017F2931D903F5C7
:2060A0008056811CB6F5804F009134D32A4903F500268E4200F1030C32D903F18066B6F16E
:2060C000805F00F1040A36D38646180F60F07F000EF8050B914650467246009ECDF800C0B9
:2060E0004FEA535C6CF07F0C89F800C04FEA933C6CF07F0C86F800C0DE09009966F07F0608
:206100000E7003F07F0303707CE7231A013BDBB22246037076E7861C009010463246EBE7A6
:206120000646009800926246E0E7D90961F07F01A970E81C3DE71646814652466046CFE76F
:20614000002303705EE70520FFF790FDCC030020300300203E030020FFFF1F003C0500209B
:20616000340300200368034AD9B203481370FFF7CDBE00BF5C05002090810008034602484A
:206180005A681978FFF7C2BEA0810008D0E90031EFF3108272B6DBB2012B08D0022B0DD0EC
:2061A0000978C9B282F310880748FFF7AFBE098889B282F310880448FFF7A8BE096882F3BD
:2061C00010880148FFF7A2BEA8810008D0E90012B1F5416F0CD2D2B25318B3F5416F02D936
:2061E000C1F11002D2B2054B05480B44FFF78EBE024B00220B440248FFF788BE3884000821
:2062000088810008064A0749074B526809681B680648914294BF1946591CFFF777BE00BF9B
:20622000001000E0BC050020C005002058820008024B03485968FFF769BE00BF001000E0A1
:206240006082000800B50B4A0B4B11889B7A83B0A1F10A00094A0031009018BF0121003337
:2062600018BF012312680648FFF750FE03B05DF804FB00BF3E050020000000203405002075
:2062800098810008114B1888E0B130B4104A114B013815681C7816D02B4600221946013261
:2062A000234482420B60F9D104FB025200240A480A490B4B14601D6002680968094830BC03
:2062C000FFF724BE70472A46F0E700BF3E0500204805002044050020500500203005002026
:2062E0004005002030840008F8B5194D2B885BBB184A06461378032B1BD9174A0024106849
:20630000164F0146CA18BA4217D80134B4F5805F1146F7D12746101AFFF79EFD104A114B4A
:2063200010601C602F80FFF7ADFF32680E4B1A60F8BD04210B461170DFE714B10A46A7B2D3
:20634000E9E70E20FFF792FC0B20FFF78FFC00BF3E050020440500202C050020004E0020C5
:2063600048050020300500203405002030B4EFF3108472B60E490A68824203D111E0834269
:206380000CD01A461368002BF9D14B68834204BF084B4B6084F3108830BC70470368136088
:2063A000F3E7054B026885681A609D600B60ECE7000000200C00002024030020F0B4836885
:2063C000EFF3108572B6184A184E546831681B1B322B49BF54688468323484608B68E31A84
:2063E000002B01DA0BE011460A689368E31A002BF9DA0260086085F31088F0BC7047002789
:206400004FF0806C0A4B0B4A994208BF096801600949186033609C6057609760C1F804C0AF
:2064200085F31088F0BC7047001000E0000000202403002010E000E000ED00E000000000F5
:206440002DE980488FB09D4B02AF5C689A469C4BF6337B609B4991F90830002B00F02F8483
:20646000DAF8042072B691F90830002B40F01F8762B6DAF804309B1A23443B610123914A66
:2064800091481372FFF76EFB48B3FF238F4C904D07F1200987F8203021464846FFF742FB52
:2064A000E8B190F820305A07F6D5DAF8046072B690F8202090F8213022F0040180F8201081
:2064C00062B697F82010284602F001020096FFF71DFD21464846FFF725FB0028E1D17D4832
:2064E000FFF740FB00B3FF237B4C7C4D07F1200987F8203021464846FFF714FBA0B190F843
:206500002A2090F82B309A42F4D172B690F82A2090F82B30934200F0D58362B621464846A6
:20652000FFF700FB0028EAD16D48FFF71BFB20B3FF236C4C6C4D07F1200987F82030214609
:206540004846FFF7EFFAC0B1037FFF2BF7D172B6837C002B00F0C283427F027762B6C27ED0
:20656000133097F8201000902846FFF7CFFC21464846FFF7D7FA0028E6D15C48FFF7F2FA39
:2065800018B3FF235A4C5B4D07F1200987F8203021464846FFF7C6FAB8B1037F1B07F7D54C
:2065A00072B6037F23F00803037762B6827F00F1280397F820102846D208FFF7A7FC21465D
:2065C0004846FFF7AFFA0028E7D14B48FFF7CAFA30B3FF23494C4A4D07F1200987F8203040
:2065E00021464846FFF79EFAD0B190F82030DE07F6D572B690F82030826823F0010380F896
:206600002030D0E9063062B697F8201000902846FFF77CFC21464846FFF784FA0028E4D1B2
:206620003848FFF79FFA00283BD0FF23DFF8E08007F11C0B3B7741465846FFF773FA04461C
:2066400000282ED0E37FD807F5D572B6E37FA66823F00103E37762B6A37F032BEBD8DFE80E
:2066600013F099017801510104004FF000033B84A06907F12003022201213D7FFEF786FF0D
:206680003A8C204652BA92B2314602F006030095FDF714FF41465846FFF744FA04460028A5
:2066A000D0D11948FFF75EFA00283ED0FF2307F11C0B3B77154DDFF850902FE0001000E049
:2066C000340300200000002028050020754B0008C08100082405002045510008C8810008AD
:2066E000F40400209D2A0008E081000818050020B1420008E8810008F8040020193900082B
:20670000F881000810050020EC040020352A0008612A0008237DD90700F145832946584673
:20672000FFF700FA04460028F4D1B548FFF71AFA002852D0FF23994607F11C0B3B77C7F850
:206740000CB0B049F868FFF7EDF90446002844D0237D5A07F5D572B60023E57DD4F80880F6
:206760002375E37562B6E66804F1180BA8EB06027A6115F1FF3513D3227FD11CC9B22244A6
:20678000302982F81D909377D3772177F1D9397F5846FDF7C7FD15F1FF354FF00003EBD27C
:2067A00094F815B0BBF1000F00F08E84BBF1010F00F08B85BBF1020F00F0B284227F302A31
:2067C000BFD904F11800397FFDF7ACFD8D49F868FFF7A8F904460028BAD18B48FFF7C2F971
:2067E00090B1FF2307F11C0B3B77884DDFF8189203E0237EDA0700F10D8329465846FFF726
:2068000091F904460028F4D18148FFF7ABF988B1FF23804E3B76DFF8F8B103E0237DDB0795
:2068200000F12083314607F11800FFF77BF904460028F3D17848FFF795F9002800F0BE8003
:20684000FF2307F11C0B3B774FF0000873495846FFF768F90446002800F0B080237DDD0737
:20686000F4D53B7F7B61FDF771FD72B6237D23F00103237562B60107E8D5A67E07F12009BE
:2068800006F11B05254420694A4687F82080022301210095FEF742FD0121AB1C20694A462E
:2068A00087F8201000930223FEF738FDA37E94F85C100433DBB24A07A3761BD52644F07E38
:2068C000EA786E7842EA0062A87842EA064242EA0022B2F1805F80F0A0848807DAF8045035
:2068E00000F18884206E824200F28D8401F0FD0184F85C102F2BA9D9796904F11600FDF7B2
:2069000011FDA1E701253D62A069294607F12003032297F81C90FEF739FE07223B6A3A8471
:206920002946A0691DBA022207F12003FEF72EFE97F821302D0A05F0010C23F00303AAB21A
:2069400031462046CDF8009043EA0C03FDF7B6FD71E60C233B62A06907F120030422012193
:2069600097F81C90FEF712FE0F233D6A3B84A06907F12003022201212DBAFEF707FE97F865
:20698000213025F07F4231462046CDF80090FDF795FD50E600233B62A06907F120030422D8
:2069A00001213D7FFEF7F2FD3A6A314612BA2046009502F00703FDF781FD3CE61848FFF74D
:2069C000D1F888B1FF2307F1200987F82030DFF85C8003E0437B002B40F0978241464846C6
:2069E000FFF7A0F80028F5D10E48FFF7BBF850B3FF2307F11C0B3B770B4D00261CE000BFED
:206A0000F0040020ED2900080C050020C12900080405002095290008000500206929000873
:206A2000200500201C0500209538000819400008237F002B40F07E8129465846FFF772F831
:206A400004460028F4D14AF6AA22A74B1A60DAF8042072B6A5490B689B1A002BB8BF0A6047
:206A600062B6A348FFF77EF8002800F0B780A14A536914699C4251D0161D40F2F13806E0C1
:206A80009C4A0134146153691469A34246D0994904F0070213010D68194489691DB1681C29
:206AA000814200F04084B1F57C7FE9D19149C818D0F81CC0BCF1000FE2D001EB021292F8AE
:206AC0002020012A00F0D583002A00F0B983022AD6D1BCF1060FD3D9864A2133D0183146E9
:206AE000062201F0F3F80028CAD17DA1D1E90001FCF7F6FC72B601247F49804BCA69804836
:206B000042F0C052CA611A6842F480721A6084621A6822F480721A60FCF7B4FC754B9D7B7D
:206B2000EBB27B61002B59D0764E3478E2071ED47B69042B52D96F4A92F8F8506B1F3B2B84
:206B40000FD892F8F9B02BF00F03102B09D17B69AB4243D302F1F70915F809307E2B00F020
:206B600050847E2D00F03B8444F0010434707A697E21654801F064F8002800F00984624B3C
:206B800004F0FE04C51AA307347005F1010500F1038444F0020434705C48FFF7B7F94FF0F7
:206BA000FF340022DFF84881524B9E7BF6B2B6EB050940F0DE83EFF3108172B64D4B9B7BF9
:206BC000DBB29E4240F0EB834A4B83F80E9081F31088012C02D14D48FFF798F94C48FEF74B
:206BE000C1FF60B3434B434A1B68002B00F08D83D47A167B0133321B082A1546A8BF082578
:206C0000002A3B6219DD07F1200907E02C44331B082B1D46A8BF0825002B0EDD354B04F13C
:206C2000980119442A4607F128007D6201F07EF84846FCF7BBF90028E8DC2E4BDC72354D1E
:206C4000354EDAF804403B6929683268E31A01311A44B3F5803F2960326080F0538203FB7A
:206C600003F3DFF8C880FF33D8F8000000EB1323834238BF4FF0FF33DFF8B4902748D9F854
:206C800000B02018A0EB0B000028C8F80030FFF6E1AB2348FFF73AF9A34503D9214A13689F
:206CA0000133136000232049C8F8003033602B6091F90830C9F80040002B7FF4D1AB3C6119
:206CC000FFF7DCBB013380F82A304269038B62B697F820102846FFF719F90BE462B62EE482
:206CE0009B58A16CFAE3845900300040140500204103002034030020001002400070004074
:206D0000006C0040CC0500202C040020BC9600083E03002038050020C405002000D68AEA3B
:206D200050820008C005002000000020C8050020BC0500203E8487F82260A06907F12003BF
:206D40000322012197F81C80FEF720FC267797F8213097F8201097F822201B0243EA014315
:206D6000134394F82220190202F1040148BF43F07F432244C9B2180A4FEA134C82F8233078
:206D80002F294FEA136382F8240082F825C082F8263084F822107FF64FAE414604F11E0065
:206DA000FDF7C0FA48E60023F222C7E9083387F8283087F82020206907F12003092201214E
:206DC0003E7FFEF7E3FBA17E97F8222001F11B0312F0F000234400F02A81F02800F027817F
:206DE000FF2221441A71DA709A705A70CA76A37E0533DBB22E2BA37604D9314604F116006D
:206E0000FDF790FA237D204623F001032375FDF7E9FA83E4E38A97F81C802F2B206940F254
:206E2000D88007F12006742304F11F01324687F82030302300910121FEF770FAFEF790FB04
:206E40003022E38A4146303BE382A27704F11A00FDF768FAE38A2F2B40F2D9804846FFF7C8
:206E60004DF8CAE40023AF21A8223B62B983C7F8233087F82020206907F1200307220121C9
:206E800094F81A9097F81880FEF780FB07F11C03022201212069FEF779FB97F8212004EB17
:206EA000090309F11B0597F81D90DA7697F8223025446B7097F8233009F03F02AB7097F835
:206EC000243009F04009EB7097F825302B7197F826306B71A37E0633DBB22D2BA3760CD844
:206EE000B9F1000F02D0238B01332383002A40F09E815846FFF702F894E4414604F116006E
:206F00007A61FDF70FFA7A69EAE70024D0E9081697F8203090F80CC0FB600CF11705D0E98A
:206F200006B37B6172B6CB687340CB60DAF804200E32DAF804309B1A002BFADBCB687A697C
:206F40007340CB60DBF808301A4214BF4FF0010E4FF0000E62B6DAF804200E32DAF804302A
:206F60009B1A002BFADB013D6B1C4EEA4404D9D172B60023417B437362B6012224FA0CF358
:206F800002FA0CF21D0202F1FF3248BF43F07F43A24300F01D814FF000434361802300215B
:206FA0000E460D4690F82C20141DE4B202442F2C82F82D5082F82E6082F82F1082F830305C
:206FC00080F82C407FF60AADF9682830FDF7AAF9FDE4722307F120063B7607F118020223D5
:206FE00001210096FEF79AF9FEF7BAFA97F8203097F821201B0203F4F8531343A18A9AB2CD
:20700000914238BFA2822F2BE28200F3B782237E23F00103237672B6DAF80420E368204678
:207020001344A360FFF7CAF962B6FFF7E6BB97F8240010F0F00C03D0BCF1F00F7FF4D0AE6F
:2070400097F826C01CF0F00E03D0BEF1F00F7FF4C7AE97F827E0BEF1900F7FF4C1AE97F8F3
:20706000288028F08008B8F1200F3FF6B9AE97F821E0214481F81BE097F823E04FEA8C0193
:2070800083F801E097F825E002F01F0201F0600100F01F0042EA4C120843187183F802E0D1
:2070A000DA70A37E0533DBB22E2BA37600F25982B8F11E0F40F28E81238B01332383484634
:2070C000FEF71CFFFFF72ABB32233B84206907F1200302220121DAF80460FEF757FADAF879
:2070E00004309B1BB3F5616F40F212810221237FDA1C2344D2B25D7783F81FB099772277FC
:20710000FFF75DBBB3F5801F5DD2DFF8A88403F1FF0CD8F800004FEA1C2C03FB0C03A7E5FF
:207120002369D3E9021003040B61DAF804304833DAF804209A1A002AFADA72B60861DAF8F6
:2071400004307B6162B6002342F28432C7F822303A84C7F826300A2207F120030121206924
:20716000FEF714FA052307F1210207F127014FF0080C12F8010F434013F0800F4FEA4303A8
:2071800018BF83F01D03BCF1010CDBB2F4D19142EDD1DB43217F97F829E0DBB2CA1C9E453C
:2071A000D2B201F1010501F1020000F01D81032321442544204481F81D906B7780F81DC01C
:2071C0002277FFF7FCBA4FF0FF33DFF8E88353E58C0704D54FF0804343614023DFE642699A
:2071E000002A40F0C481DDB2C3F30726C3F307411B0ED7E6606E281A0028FFF67BAB206EB9
:2072000082427FF673AB94F85D106566A06DFEF7E3FA0021A37EFFF76BBB84F85C8094F832
:207220005E10A06DFEF7D8FAA37EFFF763BB237D204623F001032375FDF7D4F8FFF7F2BAC0
:20724000002D7FF41DAC012308212022306887F82F30C7E90881B38887F82820C7F829009D
:20726000A7F82D30BD182846FBF7A0FE0028FADB06E4BCF1070F7FF603AC90F82790C64A22
:2072800021334FEA4909D0183146062209F5807900F01CFD002843D14D453FF4F1ABBE4BE2
:2072A0004846C3F80090FBF751FEFFF7E9BB4FF6FF73BA490B8162B630BF72B6B74B93F917
:2072C0000830002BF7D1FFF7D3B84FF67F6307F120083B842069434602220021DAF804606F
:2072E000FEF754F9DAF804309E1BB6F5616FBB601BD902200021237FDA1CD2B223445D7769
:207300009877D9772277FFF75ABA1373D37296E497F82020130645D50321237F5A18E8E61E
:207320004D457FF4ADABFBF77BFEC0233B845946434602222069FEF729F997F8203097F889
:20734000211083EA010282EA121282EA920282EA520212F0010232D1580640F1F880052008
:20736000237FE11803334D77CA7788772377FFF725BAA91802F1F800F831A9EB02021944FF
:20738000184400F049FD4046FEF7B8FD4A4612E4A3077D697FF5FDAB4FF0FF3401E481F32E
:2073A000108801E497F82100530243EA4003324679692046FDF758F8227FFFF700BA032063
:2073C0000021237FE218034455779077D1772377FFF7F4B9B8F1010F3FF671AE12E5012527
:2073E0004FF0FF34FFF7DDBB97F82830DB0640F1AC8097F822B01BF0800F40F0C1800423D5
:20740000D6E6A5F10308414602F1F800FCF79CF87B6809F1010118F80120EB5C884443EAC6
:20742000022383427FF49DAB5D4A24F00204137834705B457FF4B0AB013303F00F0309F116
:20744000030943F01003C845137078D9554A7D6192F800906D4619F0800F5ED1013209F1BB
:20746000FF335C2B00F295804F4B4FEA091903EB09018B788C689B00073303F4FF63ADEBA2
:20748000030D02A8064691F804C0A44464451FD0904557D314F8013B042B2FD812F8013B56
:2074A00006F1040E03F06001602903F07F0B08D16BF01F0B05E012F8013B03F07F0141EA42
:2074C000CB1B1B06F7D46445C6F800B07646DFD1324B9B7A23B1344B4B44DB78D90725D5B6
:2074E000314BFA609944D9F80C309847AD46FA689045ADD87D690124FFF753BB072B21D10B
:20750000134613F801EB03EB0E0290451AD3314641F808EB73600E46B8E753784FEAC9190C
:2075200009F47E5943EA0909023298E71B4B1F48D97AFA60FEF7EAFCAD46FA68D8E70124F7
:20754000FFF72FBB0620FEF791FB052330E6890041EA8323BA6879692046FCF785FFFFF735
:207560002DB9314604F11600FCF7DCFEA0E5D5B2C2F30726C2F30741130E13E5206952E413
:207580007B6933440A4EA3EB0808B04514D901230EE60420FEF76AFB3403002000000020AB
:2075A000300300202E0400204890000840820008E87F0100C805002097F823C097F82660A0
:2075C0004FEA4B2343EA4C03214425442044C6F345064FEA132C4E776B7780F81DC0227745
:2075E000FFF7EDB8002445F2555540F6FF704CF6CC42BC4BBC4923F0030380B50B60BB4B2B
:20760000BB491D605C6098601A60CA68B94B42F08072CA601A6890B042F001021A605C600A
:20762000EFF3108172B6202607254FF08060B24BB24A82F823601D605C609C60506081F3CF
:207640001088AF4D2846FBF7CDFF012292211820FBF710FD224692211920FBF70BFD0123EB
:207660002A462B605368D907FCD54421A548A44BD06111605A6812F00102FBD101264FF0C7
:20768000FC4C4FF400150727D3F800029E4C9F4940EA060E20F00100C3F800E2C3F81C2298
:2076A000C3F840C2C3F84442C3F84852C3F84C42C3F85022C3F85442C3F80C72C3F81C623E
:2076C000C3F8000281F814234FF48010086081F815230D6081F813234FF400220A608C4991
:2076E0008C4ED1E90021D00D40EA4120504006FB00F4894D81EAD15105FB0144A0FB05019F
:207700000C440221854FDFF85CE280EAD43047400EFB07F28248DFF850C260400CFB002498
:207720005961A7FB0C0180F07F4282F4880282F4A442214482F0570281F0F8430EFB02F17B
:2077400083F4401383F47B6383F008030CFB0311A2FB0C340C44D90D41EA442183EA01025E
:2077600006FB02F184EAD456A2FB052305FB06161E4482EAD632CDE906266A4C06AB93E802
:2077800003006060218104F10D00FEF7B7FB6648FEF7BCFB72B6654800F0F4FB054610B9B9
:2077A00062B6FEF74DFE72B6614B52499A7AD1F80480002A00F00E82022600224FF080648A
:2077C0005C4B5D495D4819609968036081605849C1E900038E72484B48495A609A604C6027
:2077E000574B584C1A70FEF74DFDFF2311268DF80F300EE090F83030D0E9061213F01003A0
:207800000BBF12040A610A613346002280F83030826221460DF10F00FEF784F90028E9D193
:20782000FF2304468DF81030474E04E0446321463C30FDF7FBF9314604A8FEF773F9002890
:20784000F4D1FF23414C8DF8113001E0FDF78AFF21460DF11100FEF765F90028F6D1FF23B6
:207860003B4E8DF812300AE004F1200393E80300FBF71AFE94F82B30002B40F0988131465C
