:020000040800F2
:20000000F8FF0124E1010008B9030008B9030008B9030008B9030008B9030008B903000842
:20002000B9030008B9030008B9030008B9030008B9030008B9030008B9030008B9030008A0
:20004000B9030008B9030008B9030008B9030008B9030008B9030008B9030008B903000880
:20006000B9030008B9030008B9030008B9030008B9030008B9030008B9030008B903000860
:20008000B9030008B9030008B9030008B9030008B9030008B9030008B9030008B903000840
:2000A000B9030008B9030008B9030008B9030008B9030008B9030008B9030008B903000820
:2000C000B9030008B9030008B9030008B9030008B9030008B9030008B9030008B903000800
:2000E000B9030008B9030008B9030008B9030008B9030008B9030008B9030008B9030008E0
:20010000B9030008B9030008B9030008B9030008B9030008B9030008B9030008B9030008BF
:20012000B9030008B9030008B9030008B9030008B9030008B9030008B9030008B90300089F
:20014000B9030008B9030008B9030008B9030008B9030008B9030008B9030008B90300087F
:20016000B9030008B9030008B9030008B9030008B9030008B9030008B9030008B90300085F
:20018000B9030008B9030008B9030008B9030008B9030008B9030008B9030008B90300083F
:2001A000B9030008B9030008B9030008B9030008B9030008B9030008B9030008B90300081F
:2001C000B9030008B9030008B9030008B9030008B90300088102000843616E426F6F7421F9
:2001E00000F0F6BA0209244B4FF00F0C53F8223003F1274202F57E02F0B5920A1F4D012448
:2002000000F00F07D5F8E06000F0070004FA02F28000324307FA04F60CFA00FCBC40C5F837
:20022000E020D5F8E020FA0803EB8202156A25EA0C054FEA111C01F00F010CFA00F0B14090
:200240002843106203221D6802FA06F025EA0002114319600221DA6801FA06F622EA0002DD
:20026000DA605A6822EA04045C609A6822EA000232439A60F0BD00BFF01800080044025819
:20028000124B5969C8060CD59A6922F010029A61DB6913F00F0F4FF001030CBF0C4A0D4A4E
:2002A0001370490311D50C4A9069D36900EA030123EA0003D361CA0702D5054B01221A7027
:2002C0008B0702D5054B01221A707047000008409101002490010024000808408F0100244A
:2002E0004101074A8B5802EB4010002B10B501DA9C0304D5034C43F0044304618B5010BD32
:20030000000B084040000800014B2022DA60704700E100E0044B2022C3F88C20BFF34F8F7A
:20032000BFF36F8F704700BF00E100E008B5FFF7F1FF074A136843F400131360054B012237
:200340001A70FFF7E1FF044B00221A7008BD00BF000908409101002498010024014410B5F0
:2003600004464FF6FF708C4200D110BD14F8013B020A434083EA0313DBB2D80042EA032203
:2003800080EA13105040EEE7024A1369DB07FCD4704700BF00200052054BDA68D20704D5C5
:2003A000044A5A6002F188325A60FFF7EDBF00BF0020005223016745FEE70000094BC3E946
:2003C000000103F01F020832BFF34F8F0649203AC1F868322033002AF9DCBFF34F8FBFF3AE
:2003E0006F8F7047F8FF012400ED00E00000000008B572B60AA1D1E90001FFF7DFFFBFF38E
:200400004F8F0549054BCA6802F4E0621343CB60BFF34F8F00BFFDE700ED00E00400FA0572
:200420003D24A8A945EC067B002300BF01339842FBD17047174BF7B51D6A174EC5F30A1514
:20044000A94228BF29460C460B464118032BA1EB030219D824F00303A20818446FF003032A
:2004600003FB02422AB10C4B1B6801A9019301F077F8E31C0335084A9B08C3EB9503013B39
:2004800006D2204603B0F0BD3768043B1760DDE71168F4E7000008400010084038B504467A
:2004A000114D686910F0100011D0EA6912F00D0013D1530C03F00B01022903D003F00F0375
:2004C000042B05D102F00F03A34208BF104638BD012B04D0033B012B01D92B6AE1E700215A
:2004E0000846FFF7A7FFDCE700000840144B73B5144646010503012203EB401005F18045BB
:20050000826044F4002205F501250261F25842F00442F25022460B19032AA3EB02010ADCE8
:2005200032B1002301A8019301F01AF8019B2B60204602B070BD0968043A2960ECE700BF3F
:200540000009084038B504460D46FFF7E3FE0020FFF7A4FF20B1FFF7D7FE6FF0010038BD3F
:200560000D4B1B68002B0FDA0C4A936943F010039361D2F81C3843F00103C2F81C38FFF7A7
:20058000C3FE4FF0FF30EAE72A462146FFF7AEFFFFF7BAFEE3E700BF000908400000084011
:2005A0002DE9F04707460D461646DFF8C080102DAA4628BF4FF0100A16F001093AD0FFF75E
:2005C000A9FE0020FFF76AFF00BBD8F818304FF0FF3443F01003C8F81830FFF795FE544540
:2005E0002ED127442C1B0FD1B9F1000F0BD10F2D01D9330708D4194B00221A70184B012213
:200600001A70BDE8F08702262546D0E7C0F34340022804D06FF00104FFF776FEDFE751468B
:200620003846FFF707FF04460020FFF759FEFFF76BFED4E751463846FFF784FF0446CEE7E2
:20064000013406D1074B1F60074B1D70034B1E70D7E7BDE8F047FFF769BE00BF98010024CF
:200660009101002494010024990100240000084070B50B041446023A054643EA02639100CD
:2006800043F40843023143F0010340F8023BFFF765FE04F1804240F066700B4C013A40F41D
:2006A0008030930045F822001A1D2378D618C02E08D806482946184400F052FF2670044BCB
:2006C00001221A7070BD00BF8E010024CE0000248F01002407B50222F2216846FFF7C8FFCA
:2006E00003B05DF804FB0000F8B506460B09204850F8235095B305F127431E4F4FF0010C62
:2007000003F57E03D7F8E0409B0A0CFA03F3234301F00F0401460020C7F8E0300CFA04F432
:20072000D7F8E03051F8043B9D4218D194FAA4F3002CB3FA83F308BF4FF0FF3303EB0010E0
:20074000EFF3108772B67AB1AC610121FFF74AFD87F310883046C6E90054F8BDFEE701300B
:200760000928DFD10020EBE72304AB61EDE700BFF01800080044025807B501222A2168465A
:20078000FFF7B2FF7820FFF74FFE684600222A21FFF7AAFF4FF4AF7003B05DF804EBFFF7CE
:2007A00043BE07B501222A216846FFF79DFF4FF4AF70FFF739FE684600222A21FFF794FF9B
:2007C000782003B05DF804EBFFF72EBE000000002DE98048AC4CBBB0A9A1D1E90001D4E9A5
:2007E000002300AF8B4208BF82420CD100200021FFF7E4FDA54BA64A9360A64A1B6812681A
:2008000083F308881047A448A44AA549121A00F0A7FEA448A44A0021121A00F0A3FFA34A4C
:20082000136803F00F03062B05D8136823F00F0343F0070313609E4B1A6842F001021A60C0
:2008400000221A619B4A19680A4098491A600A68160705D50A6822F00F0242F007020A604D
:20086000002295499A61DA611A6299629349D962934919635A639963DA6319645A641968AA
:2008800021F4802119601A668E4B1B681B0C1B04B3F1005F02D28C4B01221A608B4B43F2B1
:2008A000D2027B491A604FF0006300228B60804BDA641A655A659A65C3F8E820C3F8EC20A7
:2008C000C3F8F020C3F8E420C3F8F420804A8A60D3F8D82022F08052C3F8D820D3F80021C5
:2008E00022F08052C3F800217A4AD16821F0070141F00201D16051688D04FCD51A6842F4EA
:2009000080321A606A4B1A689003FCD59A6A22F0030242F002029A629A6A22F47C7242F089
:2009200050029A62DA6A22F00C0242F00802DA62DA6A22F48022DA62DA6A42F40032DA626D
:200940001A6B22F4FE0242F4E0221A63DA6A42F48032DA621A6B22F4FF7222F0010242F08C
:200960009F021A631A6B22F47E4242F400721A63584B9A6942F440429A619A699104FCD517
:20098000434B5A6912F4003211D1BFF34F8FBFF36F8FC3F85022BFF34F8FBFF36F8F5A697C
:2009A00042F400325A61BFF34F8FBFF36F8F384A536913F4803323D1C2F88430BFF34F8FEA
:2009C000D2F8803043F6E075C3F3C900C3F34E335B0103EA050C01464CEA81760139C2F897
:2009E0006062F9D2203B13F1200FF2D1BFF34F8F536943F480335361BFF34F8FBFF36F8FEF
:200A00002A4B1A6822F00F0242F002021A601A6822F0300242F020021A601A689207FCD58C
:200A2000234B9A6922F00F0242F008029A619A6922F0700242F040029A61DA6922F070022E
:200A400042F04002DA61DA6922F4E06242F48062DA611A6A22F0700242F040021A621A687F
:200A600042F080721A601A689601FCD51A6922F0070242F003021A610D4A13462CE000BF23
:200A80003D24A8A945EC067BF8FF01240000020800ED00E0040002080000002400000024A9
:200AA00014190008000000249C01002400200052004402587FEDF6EA000202020000FF01BA
:200AC000800201010010005C08810051004000520000000800480258116901F0380118292B
:200AE000FAD1116D21F0405141F080511165116841F4805111601A689504FCD5D3F8EC20E0
:200B000010200825C82642F00202C3F8EC20D3F8942042F00202C3F89420D3F8942022F0D8
:200B20000202C3F89420944A516821F040515160116841F06001116001215A6D22F440128B
:200B40005A655A6D42F440125A65FFF74BFB102100227818FFF7C8FD01214B20FFF742FB2E
:200B600000224B2107F11000FFF7BEFD01212A20FFF738FB00222A2107F11000FFF7B4FD7D
:200B80006420FFF751FC01222A2107F11000FFF7ABFDC820FFF748FC300640F1BF80FFF7BC
:200BA00000FE013D760015F0FF05F6B2F4D108250A26FFF7E1FDFFF7DFFDFFF7DDFDFFF744
:200BC000DBFDFFF7D9FDFFF7D7FDFFF7D5FDFFF7D3FD310640F1A580FFF7E3FD013D760002
:200BE00015F0FF05F6B2F4D1644AD36843F08073D4E90001D360624B5DA5D5E900451A684B
:200C0000A94242F0010208BFA0421A6005D05D4A1268013A033240F2878000200021FFF7BB
:200C2000CDFB594BDA68520140F19B80574A584CD2F8D83043F00063C2F8D8302369002B41
:200C4000FCDA544DA221544B0B20E3602B6843F003032B60C0232360FFF7C4FAA2210C20ED
:200C6000FFF7C0FA50234D48636203F580134C49A36210334B4AC4F80C311033C4F80431CD
:200C8000494B0360494B0B61494B0B6001232B61A2611022A360474B83F865232022DA6065
:200CA000A36BAB46444A43F48033A36340F2323400236B601480414CC7E902105910DE0700
:200CC00003F10103095D4CBF01F00F010909092988B294BF00F1300100F13701182B22F831
:200CE000021FEBD1364B1B7833B1254B5A68354B1B689B1A002B32DB334C2378DBB2002B2B
:200D00007BD000232370314B1A78002A66D0304B1978304B1868FFF743FC6EE0FFF72CFDBB
:200D20003FE7FFF729FD59E75A681C461D4602F5741202F5106263689B1A002BFBDB0CA196
:200D4000D1E90001FFF73AFB6368234A1A446B689B1A002BFBDB00200021FFF72FFBFFF737
:200D600047FBDA6842F08072DA605FE7AFF300809B58A16CFAE3845900840040F0ED00E0EE
:200D8000001000E00000020800480258004402580000084000080840401800400009084098
:200DA000000B08401000040002000008400008200200008800E100E00000002400E8F11FF3
:200DC00032000024340000249101002498010024990100249401002400B9AE0B934DFFF733
:200DE00099FA0020FFF75AFB002851D1904A936943F010039361FFF787FADFF8649299F8C6
:200E00000030DBB2FBB1002389F80030894B1D7805F14003802B00F23581874CFFF77AFA63
:200E200002202C44FFF73AFB002840F01D81804A936943F010039361FFF766FA002D40F04C
:200E400024817C4B1D707D4D2B78DBB2002B3FF449AF7B4E002334782B70002C3FF442AFC6
:200E6000402C214628BF4021FFF754FA754B1B681A0400F1D382FFF747FA641A06D0724827
:200E80002246014400F006FC01232B70347029E7C0F34346062E04D108212846FFF7CAFAAA
:200EA0009FE700210846FFF7C5FA042E99D1FB681B68002B24DB0020FFF712FA0823BA686D
:200EC0009360FFF721FA59494D780878202D4A888B88C98800F0918008D8062D1FD0092D6B
:200EE00058D0052D44D0FFF721FA86E7212D00F09080222DF7D12128F5D11943F3D179E019
:200F000043F09043FA681360FB681B68002BFBDB474B20221A611A699506FCD4CBE7802878
:200F2000E1D10020494D06462C68944204D16C689C4208BFD5E9020A01361035052EF3D108
:200F400040F20334A2420DD140F20942934209D13F4B93F800A018468A4506D806D20A2276
:200F60005146D8E60028F7D1BDE78A460222F7E70028B8D11943B6D1DBF8000020F4FE60DD
:200F800040EA02120846CBF80020FFF7DBFA0123237032E70028A6D1012AA4D10B43A2D147
:200FA000FFF7B8F92B4A4FF008132B49403A136503F1C65303F590231364284BC2F8303297
:200FC000C2F82012136103F1B04303F5810313601C4B1B68002BFBDB154B60221A61196911
:200FE00011F02001FBD1FFF78FF90123134A13701B4A1370022208468DE621287FF473AFD6
:2010000013437FF470AF07297FF46DAF0122154881E6A1287FF467AF13437FF464AF0629E5
:201020007FF661AF02220721F1E700BFC500002400000840C4000024440000248F01002413
:201040008E01002420090840CE0000245C1800080000002460090840408008944000080085
:20106000900100243800002440212046FFF7E2F904460220FFF734F9FFF746F9002C7FF761
:20108000DDAE2544012389F80030C84E96F8008018F0010F47D1072D7FF6D3AEC44B1A7868
:2010A000012A3CD15A78882A39D1DC780234A400A4F10802782A32D8A542FFF4C2AE1A1974
:2010C00012F8021C99292AD112F8011C032926D1A11F981C7A60FFF741F97A6812F8031C58
:2010E00012F8042C42EA0122824218D1B04B28F00208224607F16800194686F8008000F088
:201100002FFABB6EC3F30742113A042A00F24481DFE812F024006B0045016001720148F0A4
:20112000010886F80080A24C2A460121204600F097F988B13378041B23F0010333703378DA
:20114000980746D443F002030222F12107F168003370FFF78DFA3CE02C46F0E76E468EB091
:20116000382200216B46184600F0FCFA9149924A0346DFF85CC2C0E902124022DCF8041004
:20118000026100F11402DCF8000003C2BCF808009CF80A1003F1240C10809170874A02F169
:2011A00008081068083252F8041CE6464245AEE80300F446F5D11068A0211279CEF800002D
:2011C00018468EF8042011225A600E22FFF750FAB5462D1B3FF435AE75482A46011900F01A
:2011E00059FA012389F800302BE61B0E112B40F0D380D7F86C80724B984540F2CD8018F0F2
:201200003F0F40F0C9804FEA58467604B04550D108F5004243469A422AD80021694A1368AB
:2012200001331360FFF7B8F8002949D006F17843654A5B0C072B28BF07231B0243F084033D
:20124000D36013695B07FCD4BFF34F8F5F4A06F50033C2F85C6220369E42FAD1BFF34F8F3D
:20126000BFF36F8FFFF790F8574B0122DA6025E053F8041B0131CED04022414607F17000B1
:2012800000F03EF998B908F5004208F1400330329A4208D81223C7F820800422FB61A02166
:2012A00007F1180055E753F8041B0131F0D00121B4E708F1100243469A4260D8FFF76CF8C7
:2012C000414B0222DA603A6FC8F800207A6FC8F80420BA6FC8F80820FA6FC8F80C20D7F899
:2012E0008020C8F81020D7F88420C8F81420D7F88820C8F81820D7F88C20C8F81C201A698E
:201300005007FCD4FFF740F8D7F89030C8F82030D7F89430C8F82430D7F89830C8F8283083
:20132000D7F89C30C8F82C30D7F8A030C8F83030D7F8A430C8F83430D7F8A830C8F83830A1
:20134000D7F8AC30204AC8F83C3013695907FCD4FFF71AF808F01F034033BFF34F8F1B4917
:201360004246203BC1F85C222032002BF9DCBFF34F8FBFF36F8F144B0122DA6003E053F8D7
:20138000041B013198D04022414607F1700000F0B7F800283FF47EAFFFF79CF919E7094B3D
:2013A0001B68002BF8DB3B62132376E7CD00002444000024000101000000020810180008E7
:2013C000FFFF0108400000240020005200ED00E004180008FB6E07F1240603F1400C3B62D7
:2013E0001868083353F8041C3246634503C21646F6D11422FA6152E715230322A02107F1DF
:201400001800FB61FFF734F90123104A1370104B5A68104B1344104A1360DAE6002B08DACB
:20142000DBF81C3043F00203CBF81C30FEF76CFF58E40A4601200949FFF758F80146FEF765
:2014400063FF00283FF719AD4CE400BF32000024001000E0005A620234000024CE000024C9
:2014600001F0FF01102A2BDB10F0070F08D010F8013B013A8B422DD010F0070F42B3F6D132
:20148000F0B441EA012141EA014122F007047FF000070023F0E80256083C85EA010586EADF
:2014A000010685FA47F5A3FA87F586FA47F6A5FA87F68EB9EED1F0BC01F0FF0102F00702DA
:2014C00032B110F8013B013A83EA010313B1F8D10020704701387047002D06BF354603383D
:2014E000073815F0010F07D1013015F4807F02BF013015F4C03F0130F0BC0138704700BF01
:20150000032A70B412D940EA0105AD0704460B4620D11946204653F8045B54F8046BAE4205
:2015200018D1043A032A20461946F2D8541E72B103780A789A4208BF241806D00CE010F88D
:20154000013F11F8012F934206D1A042F7D1002070BC7047541EEBE7981A70BC704700BF21
:20156000844641EA000313F003036DD1403A41D351F8043B40F8043B51F8043B40F8043BA0
:2015800051F8043B40F8043B51F8043B40F8043B51F8043B40F8043B51F8043B40F8043B4F
:2015A00051F8043B40F8043B51F8043B40F8043B51F8043B40F8043B51F8043B40F8043B2F
:2015C00051F8043B40F8043B51F8043B40F8043B51F8043B40F8043B51F8043B40F8043B0F
:2015E00051F8043B40F8043B51F8043B40F8043B403ABDD2303211D351F8043B40F8043B9F
:2016000051F8043B40F8043B51F8043B40F8043B51F8043B40F8043B103AEDD20C3205D3AE
:2016200051F8043B40F8043B043AF9D2043208D0D2071CBF11F8013B00F8013B01D30B8800
:2016400003806046704700BF082A13D38B078DD010F003038AD0C3F10403D21ADB071CBF20
:2016600011F8013B00F8013B80D331F8023B20F8023B7BE7043AD9D3013A11F8013B00F81F
:20168000013BF9D20B7803704B7843708B788370604670478842F0B40DD98B1883420AD9E5
:2016A000841832B1224613F8014D02F8014D9942F9D1F0BC70470F2A0ED80346541E002A96
:2016C000F7D001340C44013B11F8012B03F8012FA142F9D1F0BC704740EA01039B073BD136
:2016E000A2F110073F0901F1200606EB071601F1100300F1100453F8105C44F8105C53F81E
:201700000C5C44F80C5C53F8085C44F8085C53F8045C44F8045C1033B34204F11004EAD12B
:201720007B1C1B0112F00C0F194402F00F05034415D0043DAD0803EB850C1C1F0E4656F8F8
:20174000047B44F8047F6445F9D10135AD002B44294402F00302B1E7541E0346B1E72A46C7
:20176000ACE700BFF0B4860746D0541E002A3CD0CAB2034602E014F1FF3436D303F8012B19
:201780009D07F8D1032C29D9CDB245EA05250F2C45EA054533D9A4F11006360903F120070E
:2017A00007EB061703F1100242E9045542E902551032BA42F8D1721C14F00C0F03EB021258
:2017C00004F00F0613D0331F23F003030433134442F8045B9342FBD106F003042CB1C9B295
:2017E0001C4403F8011B9C42FBD1F0BC704734461346002CF3D1F8E714460346C2E71A4617
:201800002646E0E773746D333268373530787800373433663463662D646972747900090283
:201820003E00020100C03209040000010202010005240010010424020605240600010705BC
:2018400083030800FF09040100020A000000070502024000000705810240000000010000C1
:2018600000000000AC1800081200000000020000000000001E1800083E0000000003000009
:2018800000000000BE180008040000000103000009040000C218000812000000020300005C
:2018A00009040000D6180008180000001201000202000010501D7761000101020301040392
:2018C000090412036B00610074006100700075006C00740000001803730074006D003300DE
:2018E00032006800370035003000780078000000000002580004025800080258000C025842
:14190000001002580014025800180258001C02580020025899
:020000040802F0
:2000000000000220610302085D0302085D0302085D0302085D0302085D0302085D030208D4
:200020005D0302085D0302085D0302085D0302085D0302085D0302085D030208B108020817
:200040005D0302085D0302085D0302085D0302085D0302085D0302085D0302085D03020850
:200060005D0302085D0302085D0302085D0302085D0302085D0302085D0302085D03020830
:200080005D0302085D0302085D030208310702085D0302085D0302085D0302085D03020838
:2000A0005D0302085D0302085D0302085D0302085D0302085D0302085D0302085D030208F0
:2000C0005D0302085D0302085D0302085D0302085D0302085D0302085D0302085D030208D0
:2000E0005D0302085D0302085D0302085D0302085D0302085D0302085D0302085D030208B0
:200100005D0302085D0302085D0302085D0302085D0302085D0302085D0302085D0302088F
:200120005D0302085D0302085D0302085D0302085D0302085D0302085D0302085D0302086F
:200140005D0302085D0302085D0302085D0302085D0302085D0302085D0302085D0302084F
:200160005D0302085D0302085D0302085D0302085D0302085D0302085D0302085D0302082F
:200180005D0302085D0302085D0302085D0302085D0302085D0302085D0302085D0302080F
:2001A0005D0302085D0302085D0302085D0302085D0302085D0302085D0302085D030208EF
:2001C0005D0302085D0302085D0302085D0302085D0302086904020802466FF07F4301200C
:2001E00091680B4493607047414B994210B4044627D8B1F1B04F16D2B1F1A44F3BD2B1F1CC
:20020000A04F2CD23B4B994243D83B4B994246D903F50C53013399425AD0384B012238483F
:200220000B44384912E001F1284101233648890A364A206003FA01F1C4E90121204610BC7C
:200240007047334B012233480B4433499B0A20606160204602FA03F3A36010BC704701F14A
:20026000304101232D48890A2D4A206003FA01F1C4E90121E2E701F12E4101232948890ADA
:20028000294A2060204603FA01F1C4E9012110BC7047264B012226480B442649D6E7264BD6
:2002A00099420FD801F14041B1F5004F4FEA912314D201222148224902FA03F3C4E90001AA
:2002C000A360BBE71F4B01221F480B441F49BDE71F4B93E8070084E80700AFE70122203BB7
:2002E0001C4902FA03F31C4A80E80E00A6E700BFFFFF0158FFFF0148FFFF01400000FEBFE5
:20030000D844025880440258F44402589C4402580000FEA7E044025888440258E4440258B2
:200320008C440258D44402587C4402580000FEB7DC44025884440258FFFF0040E8440258F2
:20034000904402580000FFBFF0440258984402586C700208EC44025894440258FEE700BFA7
:2003600072B6024B024A9D4610477047000002202921020830B4D0E9031485684B69154AA1
:200380006340046A4B61437F017F0133526881F00101DBB20177012B437717D0042B04D820
:2003A0002C448460012030BC7047436A2B44D21A931C48BF531D2A4404EBA304064B22443C
:2003C0004462C0E9013230BC01207047521B4262E6E700BF001000E0DD030208D0E9032183
:2003E000F0B45369476A4B405361437F057F0133C67F85F00102DBB20277B3422FD200EB8F
:20040000D30103F00702ED4391F8281005F0010541FA02F2394602F00102954207D017E0D8
:2004200092F82820224102F00102954210D101333944DBB2B34200EBD30203F00704EFD327
:200440008368084A1944F0BCC0E9012101207047826843771144F0BC8160012070473946D6
:20046000EEE700BF9D2D0208144B10B55C69E2060AD59A6922F010029A61DB6918070CBF14
:200480000F48104804F0CEF861030AD50E4B9C69DA6922EA04011440E207D96107D4A30702
:2004A00000D410BD0748BDE8104004F0BBB8044804F0B8F8A307F4D5F4E700BF00000840AB
:2004C000800C0020F80800200008084038B5037F0446C56843B1038CAD0001330384A36824
:2004E00001202B44A36038BDD0E9042312691A42F5D101230448ED00237704F093F8A36876
:2005000001202B44A36038BD8C0C002038B5437B04460569DB070AD5438D0322AD000133A1
:2005200042734385A36801202B44A36038BDD0E9062312691A42F5D101230548ED006373F8
:2005400004F070F8A36801202B44A36038BD00BF900C002010B5037D0446D90702D5028B5E
:20056000013202839A0704D5D4E914120969114205D143F001030548237504F053F8A36865
:200580000120E2681344A36010BD00BF680C00200246054808B5137D43F00103137504F0E1
:2005A00041F8002008BD00BF6C0C00200246054808B5137E43F00103137604F033F80020E4
:2005C00008BD00BF700C002010B5037D04465A070BD5C37D0133C375064804F023F8012001
:2005E000D4E902321344A36010BD43F004030375F2E700BF580C00200246054808B5137D33
:2006000043F00103137504F00DF8002008BD00BF540C002010B50446054804F003F8012092
:20062000E27FD4E9023102430B44E277A36010BD740C0020D0E9092310B5116904468269B3
:200640001942836802F0010114BF01200020884202D00132C4E906236269D21A002A04DBE7
:20066000E26801201344A36010BD94F82010226941F001010648134484F82010636103F066
:20068000D1FFA368E26801201344A36010BD00BF600C0020F8B5857F07469DB1691E00F1DE
:2006A000080603460025C9B2012206EBC1061C6A0833D86951002469044218BF15439E4233
:2006C000CAB2F4D13A7CAA4207D07B7C82EA05016B40DB43DBB20B420FD13B7F7D745AB2BD
:2006E000002A04DB013BDCB2FF2C1AD03C77BB680120FA681344BB60F8BD22EA0302B97C4C
:200700002B40072943EA02033B74E6D84A1C39440648BA74CB7403F085FFFF237D743B77C5
:20072000E5E7024803F07EFFE0E700BF5C0C0020F8B52B4B1C6DE60705D501221A65D3F845
:20074000A4104D0603D114F4606F3AD1F8BDC1F30521244801EBC103DB001A58034450004D
:2007600038D4C2F38A4EDF68D3E901C61E4D1C4BD5F85801C3F8A810D5F85431C31A1F2B32
:20078000E1D852006B6802F0804242EA0E021BB122F001018B42D6D000F01F03CCF3034C18
:2007A000411C11481B0103F5AE73EA502B44C3E901C6DF60C5F8581103F034FF14F4606FD0
:2007C000C4D0074B4FF4606207481A65BDE8F84003F028BF22F0604E4EF0004EC3E700BFF4
:2007E00000A00040B0AC0040F80800202DE9F0411B4B174642010125060347F40024D0189A
:20080000DFF86080032F82B0856006EB08050461D05840F00440D0501FDD381F8208541C6C
:2008200001EB840451F8043BA1422B60FAD1C2EB827200EB82021AB9384602B0BDE8F0815A
:200840000023214601A8019306F072F9019B384646F8083002B0BDE8F0810C463A46EAE775
:200860000009084000100840054B1B6813B1A3F580735B08034A0621034803F0DBBE00BF40
:2008800040070020440700201871020870B5054684B006482C79089E34446E882D88CDE9DD
:2008A0000146009503F0C6FE04B070BD087102082DE9F04772B6474E474DD6F800A0474F9F
:2008C000DFF82091DFF820810CE079685A1AB2F5487F3CDCAAEB0100002860DB62B6002A16
:2008E0003DDC72B62C686368002B4BD16269D4E90803013A416983EA0103436138D0B4F9CF
:2009000010106261D4E90230034408442168C4E90230D1F808C0A3EB0C02002AD5DB686833
:20092000296082689A1A30EA220028BF084600E0084601688A689A1A002AF9DA21606346BB
:20094000796804605A1A6C60B2F5487FC2DD244B00215A609960596062B6BDE8F0877A68F3
:200960009A1A002ABDDD7A689A1A002AB9DDF6E7204603F0A1FB2168A2688B6848B19C4676
:200980001346C8E7204698472168A2688B680028F5D16A682960944297D1696095E74A4529
:2009A00011DB95F90900002806DA01EB080A297AC6F800A0697291E749F640434FF4FA62F9
:2009C0000B443360C3E7A87A0028EAD12D2003F06DFD00BF780C002000000020001000E069
:2009E00010E000E080E5F9FF400D030010B5047882B00D49204603F077FD72B60B4A0369FB
:200A0000526841691B690B4062B6002B214600F11E004FF000030CBF042400240094FFF707
:200A200035FF02B010BD00BF2D1B0208001000E010B5047882B00D49204603F055FD72B666
:200A40000B4A83695268C1691B690B4062B6002B214600F128004FF000030CBF0424002486
:200A60000094FFF713FF02B010BD00BFA9250208001000E010B504680749E0B203F034FD9D
:200A800003462146054893F85C205B6EC2F38002BDE8104003F0CEBD990C020800710208B5
:200AA00038B505460E49007803F01EFDAB68044603661BB9836580F85C3038BD6B68094981
:200AC0004366287B03F010FD2B690622A06584F85D306B6984F85C2084F85E3038BD00BF76
:200AE000990C0208493102082DE9F04707784449384603F0F9FC434BC1685A680469521AB2
:200B0000A24203D25A68521A9442FBD8868A84463C4B16365CF8161B5A680644D0E9015AF3
:200B2000664563D01CF801EB14464FF008081EF0800F2CD0D3F80490A9EB0209B9F5FA7F70
:200B4000F8D372B65A68D1F8149085EA0909C1F8149062B6141BA2453CD94FEA4E0E5C68F9
:200B6000A41AB4F5827FFAD372B64C696C404C6162B6D3F804905C68A4EB09044F2CFAD9E5
:200B8000B8F10108CCD01EF0800F1446D2D1D3F80490A9EB0209B9F5FA7FF8D372B65A6893
:200BA000D1F8149085EA0909C1F81490D3F80490A9EB0209B9F14F0FF8D9D1F8149085EA37
:200BC0000909C1F8149062B6141BA24502D94FEA4E0ED5E72D040B4B00228D6139465B6873
:200BE000BDE8F047C360084803F024BD054B394601225B68BDE8F047C360034803F01ABD09
:200C0000F5270208001000E0E070020838B504460A49007803F068FCE168D4E901321C04B2
:200C200009D49C18858AAC4205D816331844BDE8384005F07DBF242003F038FCF5270208C5
:200C400038B504461349007803F04EFC2379C27E1A44C27672B6827C9A4205D80022FE23B8
:200C60008274037762B638BDD21A12F0FF050ED0123300F114016C1E00F11302034451FABA
:200C800084F413F8011F02F8011BA242F9D1857462B638BDCD0D020838B5682205460649F2
:200CA000007803F099FC054B044605492879636003F01AFC206138BD990C02085505020856
:200CC0002931020838B5502205460649007803F083FC054B044605492879636003F004FC8E
:200CE000206138BDC50C0208910502089533020838B5542205460649007803F06DFC054B10
:200D0000044605492879636003F0EEFB206138BDF10C0208AD0502082931020870B5067AB9
:200D2000032E12D8044650220B49007803F054FC0A4B05460A4920796B6003F0D5FB28612A
:200D4000037CDB0704D56E7570BD292003F0AEFB282003F0ABFB00BF1D0D0208C9050208B8
:200D60009533020838B5502205460649007803F033FC054B044605492879636003F0B4FB20
:200D8000206138BD650D0208F90502089533020870B5067A032E0FD8044620220849007875
:200DA00003F01AFC074B0546074920796B6003F09BFBAE77A86170BD272003F077FB00BF8A
:200DC000910D0208150602089533020810B50479082C09D8221D00780549D20003F0FCFB5C
:200DE000044B8477436010BD222003F05FFB00BFCD0D0208950602082DE9F0412249064664
:200E0000007803F071FB057FAB0701D5BDE8F0813779B1680A2F367B32D80A2E94BF4FF052
:200E200000084FF00108B8F1000F29D105F0310504463A46283005F07BFE45F00205F600C3
:200E400084F81D80FB002577A677E3772FB194F8283003F03F032A2B0FD0226A0B4B626298
:200E6000636072B60A4A20460A4B52681344A36003F02CFE62B6BDE8F081074B6360F0E72D
:200E8000232003F013FB00BF41280208DD030208001000E0803801007503020838B50E4983
:200EA0000546007803F020FB044603F0E1FD002323776A68E26002B938BDE383238484F83C
:200EC000223072B6054A2046E36852681344A36003F0FCFD62B638BD2D1B0208001000E049
:200EE00038B512490546007803F0FEFA044603F0BFFD0023637363616A68226192B1D4E9F1
:200F0000081212048A612385638584F82C3072B6074A2046236952681344A36003F0D6FD09
:200F200062B638BDD4E908329A6138BDA9250208001000E038B50F490546007803F0D4FA2C
:200F4000044603F095FD237D23F0010323756B6803B938BD0022E360E2822283A27672B641
:200F6000054A2046E36852681344A36003F0AEFD62B638BD990C0208001000E038B50E49CF
:200F80000546007803F0B0FA044603F071FD002323766A6802B938BDE2606383A383A377A0
:200FA000636172B6054A2046E36852681344A36003F08CFD62B638BDF10C0208001000E0B1
:200FC00038B50D490546007803F08EFA044603F04FFD00232375AA6802B938BD6A68204652
:200FE000A260AA682377E260EA682383A2756383BDE8384003F06ABD1D0D020838B50D495E
:201000000446007803F070FA054603F031FD6368AB60A368EB6003B938BDE368002228468D
:201020002B6123696B6163696A772B77BDE8384003F04CBD910D020838B50A4905460078B9
:2010400003F052FA044603F013FD6B682046A360AA68E260EA68C4E90423BDE8384003F03E
:2010600035BD00BFB11B020838B511490546007803F03AFA044603F0FBFC6A680023FE2071
:20108000A260A968E1602A7C207762742274A374E376EB6863771B0606D401B938BD2046A6
:2010A000BDE8384003F012BD202003F0FFF900BFCD0D02082DE9F04387B02149804600785B
:2010C00003F012FA01230DF113023A24194605460069009204AA8DF8104002F063FC02F011
:2010E00063FD9DF81330DB0602D5AB8B0133AB83DFF8509005AA7223286901218DF80C30F9
:201100000223D9F80470009203AA02F04BFC02F04BFD9DF814409DF815603A462402D9F849
:20112000043098F8001005F11A0004F4F854DB1B34430094FFF7AAFB07B0BDE8F08300BF5D
:20114000F10C0208001000E02DE9F041AF2484B00646114F1149007803F0C6F9ADF80C4029
:20116000804603AB0069022201217D6802F0C4FD9DF80D407B6808F1160004F01F04317820
:201180002A465B1B04EB440464000094FFF77EFB04B0BDE8F08100BF001000E0C50C020877
:2011A0002DE9F0430678054683B02349304603F09BF990F815802C79B8F1020FAF681ED000
:2011C0001E4D3B46224600690121D5F8049002F093FD6D6844F62063A5EB0902B8F1010F67
:2011E00018BF4D469A4294BF234600232A4631461348009703F01EFA03B0BDE8F0830269B0
:201200000E4BD2E9025C19464FEA0C42AA615A6802F5C8724B68D31A002BFBDA72B6C5F8F3
:2012200018C04D6862B601213B460069224602F063FD2346DAE700BF1D0D0208001000E036
:20124000F8700208F0B585B01149124CB9270646007803F049F903AB022205460121006909
:20126000ADF80C70676802F047FD9DF80D20636822F08002202A09D802EB82003178DB1BEE
:201280003A46009005F11600FFF700FB05B0F0BD650D0208001000E070B50646174900782A
:2012A00003F022F9044603F04BF9736805464360B368038172B60022A369026023B1E3695F
:2012C0001860E06162B670BDC4E9060062B6204603F0CEFB0A4B62689A426B6807D0094A2B
:2012E0002046C4E90123BDE8704003F0EFBBA268D21A002AF3DA1E2003F0D8F8451A02086E
:20130000412E0208492E020838B5104C2025C4F88C50BFF34F8FBFF36F8F0D4B1B681A0474
:2013200008D5002B09DB014614220120FFF75EFAE56038BDE560142038BD064AD36943F06E
:201340000203D361E5604FF0FF3038BD00E100E0200908400008084003464FF0FF3230B58C
:20136000D3E9004187B00025029401A80192D3E90243CDE9035405938DF80C10FFF7C4FF42
:2013800007B030BD38B50E4CA2789AB90546FFF7E3FF00280EDB63780BB1237A1BB9002396
:2013A0006868637038BD204603F03CF9002368686370F7E701234FF0FF30637038BD00BF4A
:2013C000F808002008B504490023044A31200B60536003F06BF800BF40070020F808002067
:2013E00038B5094C2025C4F88C50BFF34F8FBFF36F8F064A0648136843F40013136003F0C5
:2014000011F9E56038BD00BF00E100E000090840800C0020194B70B51D6A82B0C5F30A15F2
:201420008D422C4628BF0C46032C24D9231F144923F00303043303440A6840F8042B98421D
:20144000FAD104F0030272B9E21C03359208C2EB9502531E22B10A4A116813F1FF33FBD275
:20146000204602B070BD06490E68184601A9019605F05EFBE8E703462246E4E700000840E2
:2014800000100840F8B50646164F7A6912F010021CD0FC69630C14F00D0203F00F0003F0D7
:2014A0000B0103F00D0313D1042813D0A1F10205B5FA85F56D09294628465DB9012B07D1FB
:2014C000FFF7A8FF7A6912F01002E2D11046F8BD3B6ADAE704F00F03B34208BF22461046D4
:2014E000F8BD00BF00000840F8B5154C202506460F46C4F88C50BFF34F8FBFF36F8F002044
:20150000FFF7C0FFB8B90F4B1B68002B05DB3A463146FFF76BF9E560F8BD0B490B4A8B69D5
:2015200043F010038B61D36943F00103D361E5604FF0FF30F8BDE5606FF00100F8BD00BF51
:2015400000E100E00009084000000840000808402DE9F84F914683460C46DFF8E48002F065
:201560000106304F102C254628BF1025B6B34FF0200AC8F88CA0BFF34F8FBFF36F8F002004
:20158000FFF780FF002845D0C0F34340022838D129465846FFF73EFF3B68002B23DB43F0F1
:2015A0000443214A3A613B602023C8F80C30A8421CD1241A8344D5D166B9102802D119F04F
:2015C000080F0AD1194B002219481A70BDE8F84F03F028B84FF00209264600252946584601
:2015E000FFF782FFE3E79A03DED5D8E701300AD11049114A0D4BC1F800B0147083F800908B
:2016000006E0C8F80CA0FFF7EBFE084B00221A70BDE8F88F09498A6942F010028A61C8F83A
:201620000CA0E5E7000B084040000800880C0020800C0020840C0020890C0020000008408A
:2016400000E100E010B40A4C05E0DB0609D463689B1A002B08DA83690B42F6D0002010BC94
:201660007047012010BC7047022010BC704700BF001000E082B002AB03E90300DDE90030F7
:20168000EFF3108272B6196BB1EB801F03D082F3108802B070479968480704D521F0140157
:2016A00041F01001996019684907F0D51B6C82F3108802B0704700BF2DE9F04706092E4DC6
:2016C0002E4C4FF0010E55F8265000F00F072C4B02262C4407FA0EFCD3F8E090002A4FEAC1
:2016E000942401F00F0806FA0CF60EFA04F444EA0904C1F303194FEA1121C3F8E040D3F80C
:20170000E03003D036DD0EFA0CFE00E09646FA0800F007004FF00F0A01FA07F405EB82024A
:201720000321800008FA0CF8136A01FA0CFC0AFA00FA09FA00F0012123EA0A096FEA0C03E4
:2017400001FA07F749EA000010622A681A4042EA08022A60EA681A4042EA0E02EA6069683C
:2017600021EA070121436960AA6813403343AB60BDE8F087B646CAE7AC7102080000FEA7AE
:20178000004402580B4BDA68D20108D4DA680A4942F08072DA600B6843F001030B60064A0C
:2017A0004FF4C871536801FB003053681B1A002BFBDB7047F0ED00E0001000E0BFF34F8FE1
:2017C0000549064BCA6802F4E0621343CB60BFF34F8F00BFFDE700BF00ED00E00400FA05BD
:2017E00038B5194B1B689A1E093B22F00702934200D038BD12A5D5E90045D3E90023AB42DE
:2018000008BFA242F5D14FF000631B68DA1D22F00704A342EDD172B602F01802C3E900019A
:201820000832BFF34F8F0949203AC1F868322033002AF9DCBFF34F8FBFF36F8FFFF7BEFF9A
:2018400043616E426F6F74210400000800ED00E008B503A1D1E90001FFF7C2FFFFF7AEFF72
:201860003D24A8A945EC067BB9B1014430B405464FF6FF7015F8013B040A43408D4283EA5C
:201880000313DBB24FEAC30244EA032482EA131384EA0300EED130BC70474FF6FF70704782
:2018A00000B585B0014601A8FEF79EFC019A039B1068184005B05DF804FB00BF10B584B0F5
:2018C000014601A8FEF790FC0398DDE90131EFF3108472B61A6802431A601B6811B10023BD
:2018E00008600B6084F3108804B010BD70B54E4C1646002304F5A47203E00834944234D03F
:2019000023798342F9D18D08484BB1F5FE7F4FF00002A3FB0535A1794FEA551528BF05F19E
:20192000FF35FFF7C9FE2068FFF7BAFFC8B12368ADB21A68D2070ED4FE229D62DA625A69C1
:2019400042F001025A616279013A032A68D8DFE802F0533F2B0F9A6AAA42F4D0332002F096
:20196000A5FD2068FFF7AAFFE1E7342002F09EFD1A6A03F1400022F480521A62DA6922F480
:20198000E642DA61DA6942F4D842DA611E641A6A42F480521A621A6842F001021A605A6C95
:2019A00042F400425A6470BD1A6A03F13C0022F480721A62DA6922F07302DA61DA6942F012
:2019C0006C02DA61DE631A6A42F480721A62E2E7196A03F13800164A21F01001196299697E
:2019E0000A409A619A6942F4D8429A619E631A6A42F010021A62CEE7196A03F134000D4A58
:201A000021F00101196299690A409A619A6942F06C029A615E631A6A42F001021A62BAE7BC
:201A2000322002F043FD00BFD071020805028140FF8CFFFE8CFFFEFF027A41680078FFF7AD
:201A400055BF00BF70B50446027B81680079FFF74DFF202206460949207802F0BDFD256971
:201A600003466469064A0C21DE6018309D821C615A60BDE8704002F04FBD00BF451A02087C
:201A8000492E020830B583B002AB03E90300144BDDE900459C4220D012480123124901E01F
:201AA00050F8041B8C420DD00133092BF8D10020EFF3108472B60021FFF7FEFD84F3108804
:201AC00003B030BD1B01002D95FAA5F0B0FA80F008BF4FF0FF301844EAE70023F3E700BFC1
:201AE00000000258B4710208000402588F2970B582B015D804460C4B080953F820607EB157
:201B000001F00F01012502AB00968D40019513E90300FFF7B7FF2046C4E9006502B070BDF6
:201B20002B2002F0C3FC00BFAC710208F0B5582283B006460D490078002702F04DFD0C4B9D
:201B40006D4604464360077710343079094902F0CBFCB168A0603A462846FFF7C7FF95E82F
:201B6000030084E8030003B0F0BD00BF2D1B0208CD0402089533020870B5064682B0FFF73C
:201B80008BF80A496C46307802F0AEFC0546B16820460122FFF7AAFF05F15003022294E804
:201BA000030083E803002A7502B070BD990C020870B582B005462C220A496C46007802F028
:201BC0000BFD0646AA6820466968FFF78FFF06F12403054A94E8030083E80300726002B006
:201BE00070BD00BFB11B020835060208F0B5054683B00D49007802F077FC2B79827F9A4207
:201C00000FD96F461E1D0446A9683846EA68FFF76DFF04EBC60497E8030084E8030003B002
:201C2000F0BD212002F042FCCD0D020882B002AB03E90300EFF3108172B6DDE90020536997
:201C40004340536181F3108802B070472DE9F04FC36991B08046027A00930D46D8F83430BA
:201C600081EA0209026A0EAC0193D8F83830C16A0293009B03920491CDE90C32019BD0E92E
:201C800005BAD0E909760693006B029B05900793CDE90EBACDE90A76CDE9081094E803007C
:201CA000FFF7C4FF19F0100F49D119F0200F4DD119F0400F51D119F0800F55D13A4A51685E
:201CC0005C3153685B1A002BFBDB94E80300FFF7ADFF35482901C9B288F8081043686C3321
:201CE0004268D21A002AFBDB009B4D400C93039B0D93049B0893059B0993019B0693029B01
:201D0000CDE90EBA94E80300CDE90A760793FFF78DFFE80641D4A90639D46A062AD42B0616
:201D20002FD4214B5A685C325968891A0029FBDB94E8030011B0BDE8F04FFFF777BF0CA97C
:201D400003C9FFF773FF19F0200FB1D00AA903C9FFF76CFF19F0400FADD008A903C9FFF76E
:201D600065FF19F0800FA9D006AA92E80300FFF75DFFA3E708AB93E80300FFF757FF2B0637
:201D8000CFD506AB93E80300FFF750FFC9E70AAB93E80300FFF74AFFBFE70CAB93E803002E
:201DA000FFF744FFB7E700BF001000E02DE9F04180460068D8F8045089B14B1E16460A4CAF
:201DC000DBB20133D71816F8011B63681B1AAB42FBD34046FFF73AFFB7426068F3D1C8F874
:201DE0000000BDE8F08100BF001000E010B507490446007802F078FBD0E903239361A26805
:201E00002179BDE81040FFF7D1BF00BF9D26020810B507490446007802F066FBD0E9032318
:201E20001B049361A2682179BDE81040FFF7BEBF9D2602082DE9F04100F10C0284B000F14B
:201E400014030C4602AFE8460825174E92E8030087E8030093E8030088E8030023061CD4AF
:201E60007268503273689B1A002BFBDB97E80300FFF7DCFE7268503273689B1A002BFBDB36
:201E8000013D640097E80300FFF7D0FE15F0FF05E4B2E3D104B0BDE8F081E44398E8030093
:201EA000FFF7C4FEE4B2DBE7001000E02DE9F84F17460D469146804617F801BB1A4C0BF04C
:201EC000F001D0E900A6FFF7B5FF6368A3EB0A039E42FAD84FEA0B11404601F0F001FFF73D
:201EE000A9FF012D6468D8F8086019D0AB1E0E4DDBB20233994417F801AB40460AF0F00130
:201F0000FFF798FF6B681B1B9E42FBD84FEA0A11404601F0F001FFF78DFFB9456C68EAD1AD
:201F2000C8F80040BDE8F88F001000E038B509490446007802F0D8FAFA210546FFF77AFFEB
:201F4000217901B938BDA2682846BDE83840FFF7ADBF00BF6127020838B5094904460078EF
:201F600002F0C2FAF8210546FFF764FF217901B938BDA2682846BDE83840FFF797BF00BF0D
:201F80006127020870B582B002AB03E90300164BDDE900459C4224D014480123144901E0C0
:201FA00050F8041B8C4211D00133092BF8D10020EFF3108672B602B92D04A56100220121E4
:201FC000FFF77AFB86F3108802B070BD1B01002D95FAA5F0B0FA80F008BF4FF0FF3018448E
:201FE000E6E70023F3E700BF00000258B4710208000402588F29F0B583B022D80546124B3F
:20200000080953F82060E6B110480123104F01F00F01304403FA01F4D7F8E010800A8340FF
:202020000B43C7F8E030D7F8E03002ABCDE9006413E90300FFF7A6FF2846C5E9006403B010
:20204000F0BD2C2002F032FAAC7102080000FEA7004402582DE9F047044682B008460F4693
:2020600004F04EFF804664F04F00E4011C4EC0B2023402F00BF9102002F008F9022002F092
:2020800005F9346008EB48035B007E2B25DCB8F1000F1ED07D1EDFF84C90C7F1010715F8AA
:2020A000014F01220921684604EB4404FFF7A2FF09EB440404F1FF3A05341AF8010F02F050
:2020C000B9F85445F9D132687B19063243453260E5DB002002B0BDE8F0874FF01508D9E7A2
:2020E000640C00202404002030B5B02583B000220A2168468424FFF77DFF284602F0C6F8E8
:20210000102002F0C3F8002002F0C0F8002002F091F8631E13F0FF04F8D10135EDB2B92D72
:20212000E5D103B030BD00BF00B5002383B0B4484FF0FF3200EB8301C1F88020BFF34F8FBB
:202140000133C1F88021082BF4D10023AC481946C2180133F02B82F80013F9D1A94B0422E9
:202160001A60BFF34F8FA84A00234FF02061144618465160E21801330C2B1076FAD1BFF3AF
:202180004F8FBFF36F8F62B6A04AA14BD21A07D0A0491A4451F8040B43F8040B9342F9D178
:2021A0009D4A9E4BD21A05D000211A4443F8041B9342FBD19A4A136803F00F03062B05D8A2
:2021C000136823F00F0343F007031360954B002495491868924A40F0010018601C611868CB
:2021E0000140196013681E0705D5136823F00F0343F0070313608B4B00228C498C4C8D48E1
:202200009A61DA611A629C62D86219635A639963DA6319645A641868874C20F48020874950
:2022200018601A6623681940B1F1005F02D2844B01221A6043F2D204824B00224FF00065E3
:202240001C607148774B804C80498560DA641A655A659A65C3F8E820C3F8EC20C3F8F0203D
:20226000C3F8E420C3F8F420846063A3D3E90023D1E900459D4208BF944209D10024002569
:20228000734B744A1B681268C1E900459D461047644B714AD3F8D810104621F08051C3F88C
:2022A000D810D3F8001121F08051C3F80011D36823F0070343F00203D36043689D04FCD5CC
:2022C000584A1168134641F4803111601A689403FCD5996A614A21F003015F4841F00201AB
:2022E00004469962996A21F47C7141F050019962D96A21F00C0141F00801D962D96A21F4E9
:202300008021D962D96A41F40031D962196B21F4FE0141F4E0211963D96A41F48031D9624F
:20232000196B0A4042F09F021A631A6B22F47E4242F400721A63836943F440438361A36969
:202340009804FCD5304B5A6912F4003211D1BFF34F8FBFF36F8FC3F85022BFF34F8FBFF309
:202360006F8F5A6942F400325A61BFF34F8FBFF36F8F254A536913F4803324D1C2F88430F1
:20238000BFF34F8FD2F8805043F6E076C5F34E30C5F3C905400100EA06042B4644EA837100
:2023A000013BC2F86012591CF8D1203810F1200FF1D1BFF34F8F536943F480335361BFF391
:2023C0004F8FBFF36F8F164B1A68194622F00F0242F002021A601A6822F0300242F0200240
:2023E0001A600B689C07FCD50E4B9A69194622F00F0235E0AFF30080544F4F422042535529
:2024000000E100E010E000E000ED00E0400700200000002028880208980D002040070020F1
:2024200000200052004402587FEDF6EA80020101000202020000FF010010005C0000FFFF4C
:20244000088100510040005200000208008000240098F01F0498F01F0048025800FEFFFF72
:2024600042F008029A619A6922F0700242F040029A61DA6922F0700242F04002DA61DA6976
:2024800022F4E06242F48062DA611A6A22F0700242F040021A621A6842F080721A600B6806
:2024A0009801FCD50B693C4A23F0070343F003030B61136903F03803182BFAD1116D364B3F
:2024C00021F0405141F080511165116841F4805111601A689204FCD5D3F8EC0000222F4CB5
:2024E000012140F00200B026C3F8EC001020D3F8945045F00205C3F89450D3F8945025F08D
:202500000205C3F89450656825F040556560256845F0600525605C6D214D24F440145C65C9
:202520005C6D44F440145C65FFF7C6F8684600221021FFF75FFD002201214B20FFF7BCF825
:20254000684600224B21FFF755FD01F021FF01F0C9FE1448FFF716F9FFF7C6FD00220A21C7
:202560006846A5F18004FFF745FD304601F08EFE102001F08BFE002001F088FE14F8010F0B
:2025800001F058FEA542F9D101368035F6B2B82EE4D103F0E5FE00BF00440258008400401D
:2025A0008B000020A086010070B506466022154982B0007802F010F8337913495A1E416033
:2025C000032A1CD86D46044603730122B1682846FFF78CFA04F11803002295E8030083E824
:2025E00003002846F168FFF705FD04F1200395E8030083E80300626A826102B070BD2A203B
:2026000001F054FFA92502080D050208F0B5224983B00646007801F067FF074628206C46DD
:2026200001F0ACFF41F288330546012220466B623369934085F820307168FFF757FA05F11D
:202640001003012294E8030083E8030020467168FFF7D0FC012294E8030085E803002046DE
:20266000B168FFF743FA05F11803012294E8030083E803002046B168FFF7BCFC05F10803BF
:2026800094E8030083E803003B7A3D6043F001033B7203B0F0BD00BF29310208F0B583B0BC
:2026A00005463C222C496C46007801F095FF0646696820460022FFF79DFC06F10C030022F1
:2026C00094E8030083E803002046A968FFF792FC06F11403002294E8030083E8030020468F
:2026E000E968FFF787FC06F11C03002294E8030083E8030020462969FFF77CFC06F1240367
:20270000002294E8030083E8030020466969FFF771FC06F12C03002294E8030083E80300DA
:202720002046A969FFF766FC06F1340394E8030083E8030072B6094F304600217C68FFF7BD
:2027400085FA7A6862B6EB69111B994202D2A41A1C44746003B0F0BD9D260208001000E0C2
:20276000F0B583B006461C2220496D46007801F033FF0446B16828460022FFF73BFC04F12B
:202780000C03002295E8030083E803002846F168FFF730FC04F11403012295E8030083E817
:2027A000030028467168FFF725FC2046F821FFF741FB20462021FFF73DFB72B60C4F204649
:2027C00000217D68FFF736FB7B6862B623605A1B31698A4202D2E81A0144616071698A42F1
:2027E00002D2ED1A0D44A56003B0F0BD61270208001000E070B582B00446002241686D46A7
:202800002846FFF7F7FBA3681A0413D49EB20B49207806F1180292B201F0DEFE034695E82E
:2028200003009E8283E80300E2689A6022691A6102B070BD252001F039FE00BFF52702088C
:202840002DE9F043054683B03422194900786C4601F0C2FE95F80890D5F80480064619F152
:20286000000220464146EF6818BF0122FFF73EF906F11403012294E8030083E8030039464E
:202880002046FFF7B7FBB9F1000F06F10C030CBF01221122B84594E8030008BF42F02002B3
:2028A00083E803002B693277336203B0BDE8F0834128020830B5044683B0074825462379E2
:2028C00035F8052B009501F0B5FE2388002201332271238003B030BD1071020800B585B016
:2028E00002238DF80F10012100920DF10F0201F059F801F059F905B05DF804FBF0B51B49B5
:2029000085B00546007801F0EFFD037D04469B0716D4174F03AA182100697E68FFF7DEFF1E
:202920009DF80D1004F116007B6832464C0829789B1B04F004040094FDF7A8FF05B0F0BD47
:2029400072B60B4A036D5268416D1B690B4062B6002B297800F116004FF000030CBF042433
:2029600000240094FDF792FF05B0F0BD990C0208001000E008B572B60449C36849680B44BC
:20298000836002F0A3F862B608BD00BF001000E038B50B490546007801F0A6FD044602F067
:2029A00067F8002323756A6802B938BDE2602046E3822383A376BDE83840FFF7DBBF00BF43
:2029C000C50C020838B50B490546007801F08CFD044602F04DF8002323756A6802B938BDE0
:2029E000E2602046E3822383A376BDE83840FFF7C1BF00BF650D0208F0B4847D511A2CB150
:202A0000621E012595400D4425FA04F1047FFE2904F1030504F1010704F102060444EDB24E
:202A20000744064406D81A0A61777B7772770577F0BC7047FF210122002361777A77737754
:202A40000577F0BC704700BF70B5164682B01D4604460A4600939DF8181033460E4801F018
:202A6000E9FD15B92369B3420FD9637F227F0133DBB29A42637701D902B070BD074B9B7A1F
:202A80003BB10023637702B070BD6369B342F8D2EBE7262001F00AFDF07002080000002049
:202AA000064B074903FB00F3064AA1FB0313506800EB934053689842FCD87047801A06004C
:202AC00083DE1B43001000E000F10803002210B5044693E80300FFF755FA606AFFF7E0FFB8
:202AE00004F110030122183493E80300FEF7CAFFE068FFF7D5FF012294E80300BDE810407A
:202B0000FEF7C0BF2DE9F843082604460D4600F1180800F1100700EB060917E099E8030097
:202B2000FFF730FA606A6D00FFF7BAFF0122EDB297E80300FEF7A6FF606AFFF7B1FF00221F
:202B400094E80300FFF71EFA013E0AD015F0800F4FF00002E2D0012298E80300FEF792FF1C
:202B6000E0E798E803000122FEF78CFF606AFFF797FF012297E80300FEF784FF606AD4E96E
:202B8000062315691D40FFF78BFF324694E80300FFF7F8F9012298E80300FEF773FF281C82
:202BA00018BF0120BDE8F88338B50446406A0D46FFF776FF04F11803012293E80300FEF7B8
:202BC00061FF04F11003012293E80300FEF75AFF606AFFF765FF04F10803002293E80300DA
:202BE000FFF7D0F9606AFFF75BFF002294E80300FFF7C8F929462046FFF784FF012808BF66
:202C0000032038BD08B5192001F050FC2DE9F04190F8108082B0B8F1030F36D86C46064611
:202C20001C49007801F060FC07461C2001F0A6FC0122054671682046FEF758FF002294E8B7
:202C4000030085E803002046B168FFF7D3F905F10803002294E8030083E803002046F168F1
:202C6000FFF7C8F905F1100394E8030083E8030085F818803B7C13F0060F08D143F00203B2
:202C80003D603B7402B0BDE8F081FFF7BBFFFFF7B9FF00BF9533020810B5037F04469A0600
:202CA0000DD500F10C03012293E80300FFF76AF9237F03F0300343F00103237710BD03F0DF
:202CC0003003D0E9032143F001039161237710BD70B545690122437F2E69856903F007011C
:202CE00000EBD3042E4202FA01F194F8282010D00A43D2B2013384F82820827FDBB29A42CD
:202D00000AD982680121446A437722448260084670BD22EA0102EDE70446FFF7BDFF05486D
:202D2000237F43F00803237701F07CFC0021084670BD00BF7C0C002038B5D0E90524054693
:202D4000017F126922400DD041F0040101776A7F511C3F2A69770ED8AA680120696A0A44B2
:202D6000AA6038BD4B07F2D50A4942774160BDE83840FFF7ADBF00242846AC77FFF78CFFD9
:202D80002B7F054843F008032B7701F04BFC204638BD00BFD12C02087C0C002038B5857F6A
:202DA0000446B5B1027F93060AD4A3680021656A01200D4A03EB85036177C4E9012338BDE4
:202DC00000F1140302F0100293E80300FEF75AFEEBE7FFF761FF237F044843F0080323772E
:202DE00001F020FC284638BD392D02087C0C002010B4D0E9061483684A6962404A6190F841
:202E0000301081F00102C90780F8302054BFC168016952070B4403D48360012010BC7047BA
:202E20004269991A0029F7DB1346034A10BC426083600120704700BFA12E0208704700BF5C
:202E400008B51F2001F032FB38B583690446C268196818461D89A161156001F017FBA06903
:202E6000A38A58B9AB4201D0206900B938BDA3680A4A03440120C4E9012338BDAB424268FB
:202E800001D0236913B9A260012038BDA1680B449B1A002BF7DA1E2001F008FB412E02083D
:202EA000F8B50446806A00287DD003688568A362D4E906233DBB1B04936101F0E7FA94F810
:202EC0003030002D83F010020EBF012100210126C2F3001208BF002691422DD0216A59B38E
:202EE000A36846F00406A26A1944002A4ED194F83020616102F01002324384F83020B20739
:202F000028D52B4430E0936101F0C0FA626AAA42D5D9216A002933D194F83030A06A03F08F
:202F200010035BB2002844D143F00303A168606184F830306B181BE003F01003A06A5BB2BA
:202F400058B10027416846F004066161334384F830303FB9A1600120F8BD3343606184F8C2
:202F60003030F8BDA3682B445A1A002AF2DA626A521B1149A36001206160C4E90352F8BD29
:202F8000A3680726A26A1944002AB0D05368C91A00290BDB94F83020194606F0020702F00D
:202FA000100253B2CFE7132001F080FA112001F07DFA03260227C5E7F12D02080368034A2F
:202FC000D9B20348137001F035BB00BF950C00208070020870B5047882B00C49204601F0BE
:202FE00083FA72B690F82420C36962B6D0E90315C2F3400206480E6921462E4214BF0124C0
:203000000024009401F016FB02B070BDB9370208A870020838B505460D49007801F064FAA6
:203020000C490446287901F05FFAEFF3108272B6236C4BB9C36904F13C01074DC4E90F3534
:20304000C16182F3108838BD172001F02FFA00BFED37020849310208CD35020810B504783D
:203060000D49204601F040FA72B690F84430026B13F0100F436914BFD21AA2EB5302002A3F
:20308000B8BF524262B60548214602F14042BDE8104001F0CFBA00BFED370208A07002086E
:2030A00010B504460A49007801F01EFA626872B643694BB990F84430826023F008038261AC
:2030C00080F8443062B610BD142001F0EFF900BFED37020810B504460949007801F004FA5D
:2030E0006368002B14BF0223002372B690F8442022F00202134380F8443062B610BD00BFAF
:20310000ED37020810B507490446007801F0ECF972B6836A1BB96368436262B610BD122064
:2031200001F0C4F9C538020800780C22014901F053BA00BF2931020800781422014901F0E0
:203140004BBA00BF9533020808B524220078044901F042FA034A044B4260036108BD00BFBE
:203160004931020891370208114002082DE9F84304461E49007801F0B7F9D4F80480267B92
:20318000B8F1030FD4F808902DD8194F054657F838402046FEF784FB40B12B7A76002C601F
:2031A00043F002032E712B72BDE8F88307EBC8072046FEF783FB012297F80680387948F4BC
:2031C00080784146FEF778FA414678790122FEF773FA0848084B01220849814588BF0B4697
:2031E00023612260D9E72F2001F060F929310208547302087F1A0600271F94C0090333C003
:203200002DE9F04745680646FF2D00F086804749FF22012304E001333C2B73D011F8012F76
:203220009542F8D1272B2DDD283B0127DFF824A19F409846D1463E4C5046FEF731FB80B323
:20324000D9F8083043F44033C9F80830A368D80731D5FE2D29D1D9F8083043F40003C9F8A9
:203260000830E3692C2233493B43E361307801F0B3F9314A0123426080F82A30C0E90848ED
:20328000BDE8F087132B40DDDFF8CCA0143B01272A4C504698469F40D146FEF701FB002804
:2032A000CED15046FEF70AFBCAE7284600220321FEF702FAD5E74FF08052214BA2601946EF
:2032C0005A6802F5FA524B689B1A002BFBDB1D4A1D4BE260A360A368002BFCDB01232360B8
:2032E0002368A368D90706D4A36843F00103A360A368DA07F8D52368DB07FCD5134B636120
:20330000A361A6E72E2001F0D1F80127DFF848A098460F4C9F40D1468EE7DFF83CA04FF097
:20332000000801270A4CD14686E700BF197302080060025801320208C936020800210240CB
:20334000001000E01800008000020190B66DDB3600200240006302580023024070B504462B
:203360000A49007901F0C0F8257A0646084905F10802207801F030F9034606602A461D713D
:203380000530E168BDE8704003F0D2BB953302085D330208F0B5064683B014220E49007845
:2033A0006D4601F019F9B76804467168B7FA87F228465209FEF71EFE002F04F1080214BF10
:2033C0000926012695E8030082E8030094F910303343237403B0F0BD9533020800B50346A0
:2033E00083B0D3E900126846FEF704FE03B05DF804FB00BF2DE9F04704463149007801F0E7
:2034000073F8A668F3B2032B54D8037C054613F0060F4FD1D4F80480D4F80C90B8F1090FB9
:203420004AD8284F57F838402046FEF739FA824638B3002324485A1C20FA02F1894537D202
:20344000082A1346F7D14FF0E043A268012113431E4A43F00703A360A36823F4F813A3605D
:20346000E36843EA06663243E260236843F4805323602B7C2C6043F0040369602B74BDE81F
:20348000F08707EBC8072046FEF718FA012297F8078038794146FEF70FF952464146787909
:2034A000FEF70AF952464146B879FEF705F9C0E71B07CAE7FFF7A6FB302000F0F7FF00BFCB
:2034C000953302087473020800E1F505000040A438B514490546007801F006F8044601F033
:2034E000C7FA04F1200393E80300FEF7C3F86B686361A360AB6823612B7B5A1C84F82B30A1
:2035000084F82A202A69E260EA69D5E9050184F829206083A18303B938BD2046BDE83840F9
:2035200001F0D4BA0132020870B50C490546007800F0DAFF72B690F82030DB0701D462B6FA
:2035400070BD00F10C060446304601F091FA6B683046636101F0BAFA62B670BD4931020884
:2035600038B517490546007800F0BEFF044601F07FFA6B68A360AB68A3612B7B84F8253076
:20358000CBB12A6984F8263062616A690D4B002A0D49636014BF0323022384F82430287E85
:2035A00000F0A2FFEB692062204684F82730BDE8384001F08BBA236284F8243038BD00BF0F
:2035C000B93702087D4002084931020838B504463C3801F04DFA0021237A002554F80C2C5C
:2035E000D80644F8341C44F8241C03F0140354F8281C43F0080354F8140C4CBF521AA2EB9D
:20360000510254F8101C002A23724FEA014144F8285CC8BF524244F80C2CDA06816105D4BB
:2036200009E0036844F8083C00F030FF54F8080C0028F6D138BD54E907125B0758BF12046E
:203640008A61F3E738B51D490546007800F04CFF044601F00DFAA36A63BB2A7994F8303058
:20366000002AB2FA82F2D4E906514FEA521212BF012009040020A96183F0100103F010039C
:20368000C1F3001103438A4201D0226A12B984F8303038BD0A4D43F004030A4920466D683B
:2036A00084F830302A4461606261A260BDE8384001F00CBA102000F0F9FE00BFC538020889
:2036C000001000E0A12E0208036A9A68510744D4416A10B51C688901640709D442F0040244
:2036E00019639A60836803F5FA538360012010BD1A6B8A42F6D190F82A2090F82B101B6C1F
:203700008A429BB219D3012203838A4280F82A201DD3428B04469A4225D8828B9A4222D3AF
:20372000002384F82830184800F07CFF6369E268012013446361A36010BD048B013223447C
:20374000D2B29BB28A4280F82A200383E1D28368026913448360012010BD836803F5FA5323
:2037600083600120704794F8283094F829200133DBB29A4284F82830D5D8044B9B7A002B28
:20378000CED1182000F092FE940C00200000002010B50446074894F8203043F0040384F802
:2037A000203000F03FFFA368A26901201344A36010BD00BF980C002070B582B006462822BD
:2037C00009496D46007800F007FF044671682846B268FEF78BF904F10C0395E8030083E863
:2037E000030002B070BD00BFB93702082DE9F041054682B048223149007800F0EDFEEF68DC
:203800000446002F27DD6E46042280F8442030466968FEF7EFFB04F12003002296E8030094
:2038200083E803003046A968FEF7E4FB04F128034FF0404296E8030083E803002263102139
:203840002B6904F13400E36100F066FE1C4B636002B0BDE8F0816E464FF0000880F84480EA
:20386000424669683046FEF7C5FB04F12003424696E8030083E803003046A968FEF7BAFB04
:2038800004F128034FF0404296E8030083E80300226310212B6904F13400E36100F03CFE77
:2038A000E369002BD2D14745D0DA94F8443043F0100384F8443002B0BDE8F081ED3702088C
:2038C000CD41020830B5826883B0044600326D46616818BF01222846FEF78CFB3422104943
:2038E000207800F079FE024695E8030002F1180383E80300D4E90231003318BF012311B1A5
:2039000043F010035BB282F8303002F1280023690C21136203B0BDE8304000F0FDBD00BF00
:20392000C538020870B506461C49007800F0DCFD044600F005FE75684560B368836072B684
:203940000022A36A026023B1E36A1860E06262B670BD94F830305A07C4E90A0016D443F095
:2039600004029B07656184F830200AD4204601F07FF80B4BA5602046636001F0A7F862B635
:2039800070BDA3685B1B002BF9DBEFE76269521B002AE4DA112000F089FD00BFC538020817
:2039A000A12E02082DE9F04F9946037A83B08846DB07154604680C9E66D594F82010B8F189
:2039C000000F40F08B8041F001012046FFF7ECF80746002840F0DF8009F1FF3B5FFA8BFB13
:2039E000B9F1000F49D004F10803B34404F1180A04F11009019301224FF0080800259AE82C
:203A00000300FEF73FF8606A6D00FFF749F80122EDB299E80300FEF735F8606AFFF740F8A9
:203A2000A269E36911690022194294E8030018BF45F00105FEF7A6FAB8F10108E3D1012289
:203A40009AE80300FEF71EF85E4540F0838001229AE80300FEF716F8606AFFF721F8012259
:203A600099E80300FEF70EF8606AFFF719F8424694E80300FEF786FA35702046FFF724F85D
:203A8000384603B0BDE8F08F90F804B04B1E43494BEA0842DFF80CA14968DBB242F40052D7
:203AA0008A446260B8F1000F32D0013305EB030804E015F8013B4545A36229D0524602211D
:203AC0002046FDF7BFFD07460028F2D06368384643F48043636003B0BDE8F08F2046FFF760
:203AE00063F807460028C8D108F1FF385FFA88F808F10108A84415F8011B2046FFF702F8E7
:203B000007460028B9D14545F5D194F820105AE75246402120464BEA094BFDF793FD204B82
:203B200009F1FF354BEA0303EDB26360B9F1000F29D00135354404E0636A06F8013BAE427E
:203B400021D0524604212046FDF77CFD07460028F2D0BBE7019B424693E80300FEF712FA68
:203B6000606AFEF79DFF012299E80300FDF78AFF606AFEF795FF424694E80300FEF702FA7B
:203B800006F8015B37E752462046202103B0BDE8F04FFDF757BD04276FE700BF001000E09F
:203BA0000024000280841E00013808B503280FD8DFE800F00B0805021B2000F077FC1C200A
:203BC00000F074FC1A2000F071FC1D2000F06EFC08BD00BF2DE9F04182B004460F4990F830
:203BE000008002AF404600F07FFC257BA268EE1D21792B4606F4FC74ADEB040D02AC00948E
:203C0000FFF7D0FEFFF7D0FF23462A464146044800F010FDBD46BDE8F08100BF2931020836
:203C2000C87002082DE9F0412F490446007800F05BFC027A6368D207A468DFB21DD5D0F803
:203C4000008098F820104046FEF7AEFF054660B9274406E016F8011BFEF754FF3446002833
:203C600040D1BC4226464046F4D14046FEF72CFF2846BDE8F041FFF797BF1B04057906683D
:203C8000791E03F47F03194A1948C9B22B43DFF864801A43436872609844C7B1671C0F44A8
:203CA00004E014F8013BA742B36210D0424602213046FDF7C7FC05460028F2D073682846A4
:203CC00043F480437360BDE8F041FFF76DBF424630460121FDF7B6FC05462846BDE8F041CA
:203CE000FFF762BF0546C0E72931020800200002001000E080841E002DE9F04F90F81090A6
:203D000085B019F0060F7BD08A460290046809F0010119F00200009175D0267ED4E90451A5
:203D2000B60758BF0904A9610099002940F0AE80511EC9B2002A00F097805A18CDF80C908A
:203D40005E1E04F11007A146019216F8018F4FF0080B002521E097E80300FDF767FF002C43
:203D6000D9E902324FEA024180F28C809A616D004FEA4808EDB25FFA88F897E80300FDF774
:203D800055FFD9F80020D9F8043012691A4218BF45F00105BBF1010B26D099F818304FFA20
:203DA00088F4DA07D7D4002CD9E902324FEA02416ADA9A616D004FEA4808EDB25FFA88F8B0
:203DC00097E80300FDF732FFD9F80020D9F8043012691A4297E8030018BF45F00105FDF7E7
:203DE00025FFBBF1010BD8D1BAF1000F00D03570019BB342A9D1009BDDF80C90002B36D1C6
:203E000005B0BDE8F08F009900293FD16568501E2449C0B2294011436160216841F00101A3
:203E20002160216841F40071216092B11A185E1E16F8013F84F82030636913F4604FFBD0F9
:203E400094F83030DBB2BAF1000F00D033709642EED163691B07FCD54FF0FF33A269A361E6
:203E6000236823F001032360009B002BC8D0029B19F0080F9A68DB6818BF1B04936105B01E
:203E8000BDE8F08F996172E7996193E7029919F0080F8D68C96808BF0904A96100287FF4DD
:203EA00047AFB3E70000FFFF10B504460549007800F01AFBA36822790021BDE81040FFF7E8
:203EC0001BBF00BF9533020870B5057804460949284600F009FBA668247901213346224629
:203EE000FFF70AFF3346224629460348BDE8704000F0A0BB95330208C070020810B504466D
:203F000000F0B6FD04F10C0000F0B2FDE36933B100221968C3E900220B460029F9D1002356
:203F2000E361238484F8223010BD00BF38B50F490546007800F0D8FA044672B6FFF7DEFF2D
:203F4000012384F820306B68A360AB68A36123B9EB6884F8223062B638BD204600F0B6FD71
:203F6000EB6884F8223062B638BD00BF493102082DE9F041EFF3108872B690F82030DA072E
:203F80001AD523F005020446C3690F4642F0040284F8211080F820205BB100251E6818469B
:203FA0005A683946E661C3E900559047E369002BF4D1034800F036FB88F31088BDE8F081D0
:203FC000980C002070B5057882B006460E49284600F08AFA044672B63179FFF7C9FF204684
:203FE00000F046FD04F10C0000F042FD002294F8213084F8202062B604482946009200F04E
:2040000019FB02B070BD00BF49310208B070020808B50C3890F82210FFF7AAFF002008BD01
:20402000D0E9031210B50969034690F82440114218BFE44304F001046CB990F82620013ACE
:2040400012F0FF0211D0816801209C6983F826202144996010BD084C0120D96993F82520FA
:20406000C3E9014183F8262010BD90F82710006AFFF77EFF204610BD7D400208D0E9022152
:2040800010B403460C69D0E904011144044293F8242018BFD24302F001021AB101209960B0
:2040A00010BC7047034A1846D9615A6010BCFFF7B7BF00BF21400208436B13B94361184600
:2040C000704770B5B3F9082090F84440D3E900610282551846635A89C560E5060ED58468AB
:2040E0004261214481601C7B016BE40710D40A440263184600F0CAF9012070BD85695400B1
:204100002944C0E9054181601C7B016BE407EED5846A521AC56A6169026318466940616130
:2041200000F0B4F9012070BD38B505462649007800F0DAF9044600F003FA6B6843602B8951
:204140004381002B3DD0EA6800230281037372B694F8443003F00101C3F34002914205D038
:20416000027B83F0010342F0010202736269B2B913F0080203D000F089F962B638BD616B40
:2041800084F844300260A9B1A36B1860A0632046FFF792FF204600F099FC62B638BD0021E4
:2041A000626B84F8443001603AB1A36B1860A06362B638BDC4E90D00E9E7C4E90D0062B604
:2041C00038BD152000F072F9ED37020838B5D0E90813164D04464A695A4043694A61013BDE
:2041E0006D68C26943611544DA0702D50120A56038BD6BB1C1688369B0F910200B440A4448
:20420000591B8361C2600029F0DB8360012038BDFFF752FF0028EBD0A3685B1BE8D5044A81
:204220009342E3DA162000F041F900BF001000E080E5F9FF30B583B0012209210546684622
:204240000824FDF7D7FE684600220A21FDF7D2FE00221D216846FDF7CDFE15F0800F4FF00A
:2042600000024FF01F0118BF01226846FDF7C2FE01221D216846FDF7BDFE631E6D0013F0D2
:20428000FF04EDB2E4D103B030BD00BF30B583B000220921054668460824FDF7ABFE684694
:2042A00000220A21FDF7A6FE00221D216846FDF7A1FE15F0800F4FF000024FF01F0118BF6D
:2042C00001226846FDF796FE01221D216846FDF791FE631E6D0013F0FF04EDB2E4D103B0F8
:2042E00030BD00BF00B583B000222B216846FDF781FE4FF4FA60FDF745FA01222B216846AE
:20430000FDF778FE4FF47A60FDF73CFA1F48FDF739FAE220FFF7BAFF4020FFF7B7FFA020E1
:20432000FFF7B4FFC820FFF7B1FFA220FFF7AEFF2C20FFF7ABFF2E20FFF7A8FF2F20FFF7C5
:20434000A5FFF820FFF7A2FF0020FFF79FFF2320FFF79CFF8120FFF799FF3620FFF796FF72
:20436000AC20FFF793FF0020FFF790FFA620FFF78DFFAF20FFF78AFFA520FFF787FFA420A9
:2043800003B05DF804EBFFF781BF00BFA086010008B5002201210A20FDF78EF90022012120
:2043A0000920FDF789F9002201212B20FDF784F9002201211F20FDF77FF9002201211D20EE
:2043C000BDE80840FDF778B910B48268D0E90034EFF3108172B6DBB2012B07D0022B0BD0FD
:2043E000D2B2227081F3108810BC704792B2228081F3108810BC7047226081F3108810BC49
:20440000704700BFF0B403780C4A5C1C0C4D1268E3B22E7802EBC30203E052F8085B8D421A
:2044200008D0E3B217469E4203F10104F5D80020F0BC704703707868F0BC70471C0D00208A
:20444000180D00200378DBB213B1002201230270184670470020704707490120074A084B92
:2044600030B48C68002522442344064C8A60064AA360157230BC70470C040020005A6202CB
:20448000005A62821804002000000020054A0649136810B4013B0C6808600460136010BCEA
:2044A000704700BF140D0020040D002008B5014672B6014802F094FC280D0020054A08B5BC
:2044C000937A23B1022B01D00023937208BD0220FFF7ECFF0000002008B5024B1878FFF75D
:2044E000E5FF00BF950C002008B5094B1B7883420AD9084B00B21B6853F8302003EBC0003B
:204500008A4201D1406808BD0A20FFF7CFFF00BF180D00201C0D0020074A08B5128800238A
:20452000C0E900332AB9054B1A788A42B8BF197008BD0C20FFF7BAFF020D0020080D00200A
:2045400070B5EFF3108572B60949086868B1094C094B22681B680132066893420E6038BF2B
:204560001346236085F3108870BD0D20FFF79EFF040D0020100D0020140D002038B50A4D6F
:204580000A4B2C6822189A420BD8C31C02460021204623F0030323442B6002F0CBFB204662
:2045A00038BD0F20FFF782FF9C0C002000FE012038B5074C236843B90568E8B2C000FFF7F5
:2045C000DDFF044B20601D7038BD0820FFF76EFF1C0D0020180D002038B50D4C24788442ED
:2045E00012D903460B481BB2046854F8330004EBC30548B90848008830B944F8331010462E
:20460000FFF7BCFF686038BD0920FFF74FFF00BF180D00201C0D0020020D002008B5032063
:20462000FFF744FF024B00221A72012303707047000000200FB42DE9F04FDFF838A287B0D8
:204640009AF80030109FDBB223B107B0BDE8F04F04B07047DFF820B211AA01209BF80B104F
:2046600090469BF80C608AF80000B142059205D31E4619468BF80C308BF80B30BD78AB1948
:204680002C46602B18D95B1A602B07D900238AF8003007B0BDE8F04F04B07047761A983118
:2046A00070485944324602F0DDFA00238BF80C608BF80B30BD782C4606F19803052D5B448A
:2046C00001933CD9981C1C463B88053DF9787F2B05447F6800F2B4807A1803F07F03039605
:2046E000029200F8013B029B9F4223D08542C0F0B58017F8013B072B00F2B080DFE803F07C
:204700005A5A5A5A5A44040444462E1A034654F8082B964228BF164603F8016B3246D8F827
:204720000410184602F004FA8219029BA04610469F42DBD1019B039EC01AC41CE5B24A4BF3
:204740000BEB0602DDF80480E71E1B782E4482F89850394688F801304046FDF785F84444E7
:204760000346010A7E22414808F8071004F8023C04F8012CCDF804808BF80C60FFF752FFC3
:2047800000238AF8003084E74446421C54F8043B197800295AD0954201D857E029B102F8C7
:2047A000011B954213F8011FF8D8131A013BDBB20370BAE74446421C54F8043B03F1200179
:2047C0007F292FD903F58056811CB6F5804F00912CD303F50026264900F1030E8E422AD952
:2047E00003F18066011DB6F1805F32D31E0F80469146084666F07F06DDF800C0CDF800E009
:2048000008F8056B42465E0D66F07F0689F800609E0B66F07F068CF80060DE09009966F03B
:204820007F060E7003F07F0303707EE7861C009010463246F1E78446009800927246E7E7D6
:20484000DA09E01C62F07F02A27045E7002303706BE7944681460A467046D4E70520FFF703
:2048600025FE00BFD8070020300700204A070020FFFF1F00000D002040070020034602484B
:204880005A681978FFF7D6BE90700208D0E90031EFF3108272B6DBB2012B08D0022B0DD010
:2048A0000978C9B282F310880748FFF7C3BE098889B282F310880448FFF7BCBE096882F3AE
:2048C00010880148FFF7B6BE9870020840F68341D0E9003210B48B420FD8D2B240F684419F
:2048E000D018884202D9C3F18402D2B2044C19460448234410BCFFF79DBE0022F6E700BF30
:204900004874020878700208064A0749074B526809681B680648914294BF1946591CFFF701
:2049200089BE00BF001000E0840D0020880D002040710208024B03485968FFF77BBE00BF19
:20494000001000E0487102080B4A0C4B11880C4AA1F10A00003100B59B7A83B018BF012146
:2049600000330090074818BF01231268FFF762FE03B05DF804FB00BF020D00200000002045
:20498000D80C002088700208114B1888E0B1114A0138114B30B415681C7816D02B46002226
:2049A00001321946234482420B60F9D104FB025200240A480A490B4B14601D6002680968C7
:2049C000094830BCFFF736BE70472A46F0E700BF020D00200C0D0020080D0020140D002015
:2049E000A00C0020040D002040740208F8B5194D2B885BBB184A06461378032B1BD9174A64
:204A00000024174F10680146CA18BA4217D801341146B4F5805FF7D12746101AFFF7AEFD6C
:204A2000104A114B10601C602F80FFF7ADFF32680E4B1A60F8BD04210B461170DFE714B1DF
:204A40000A46A7B2E9E70E20FFF730FD0B20FFF72DFD00BF020D0020080D00209C0C002056
:204A600000FE01200C0D0020A00C0020D80C002030B4EFF3108472B611490A68824203D128
:204A800017E083420AD01A461368002BF9D14B68834208D084F3108830BC704703681360D0
:204AA0004B688342F6D1074B4B6084F3108830BC7047054B026885681A609D600B60E6E7B2
:204AC000000000200C04002024070020F0B48368EFF3108572B61A4A1A4E546831681B1BB6
:204AE000322B11D484688B68E31A002B01DA12E011460A689368E31A002BF9DA0260086017
:204B000085F31088F0BC70475468323484608B68E31A002BEDDA0C4B00270C4A4FF0806C3B
:204B2000994208BF096801600949186033609C6057609760C1F804C085F31088F0BC70470A
:204B4000001000E0000000202407002010E000E000ED00E0000000002DE9804891B09D4B56
:204B600002AF5C68FB619C4991F90830002B00F03C85FB695A6872B691F90830002B40F076
:204B8000BE8762B6FB695B689B1A2344FB600123914A92481372FFF755FC48B3FF2307F160
:204BA000280A8F4C8F4D87F8283021465046FFF729FCE8B190F820305B07F6D5FB695E6855
:204BC00072B690F8202090F8213022F0040180F8201062B697F82810284602F00102009675
:204BE000FFF728FD21465046FFF70CFC0028E1D17D48FFF727FC00B3FF2307F1280A7B4C21
:204C00007B4D87F8283021465046FFF7FBFBA0B190F82A2090F82B309A42F4D172B690F8B5
:204C20002A2090F82B30934200F0E28462B621465046FFF7E7FB0028EAD16E48FFF702FCA2
:204C400020B3FF2307F1280A6B4C6C4D87F8283021465046FFF7D6FBC0B1037FFF2BF7D145
:204C600072B6837C002B00F0D084427F027762B6C27E133097F8281000902846FFF7DAFC38
:204C800021465046FFF7BEFB0028E6D15C48FFF7D9FB18B3FF2307F1280A5A4C5A4D87F838
:204CA000283021465046FFF7ADFBB8B1037F1E07F7D572B6037F23F00803037762B6827FCA
:204CC00000F1280397F828102846D208FFF7B2FC21465046FFF796FB0028E7D14B48FFF718
:204CE000B1FB30B3FF2307F1280A494C494D87F8283021465046FFF785FBD0B190F820300B
:204D0000D907F6D572B690F82010826821F00101D0E9063680F8201062B697F82810284621
:204D20000096FFF787FC21465046FFF76BFB0028E4D13948FFF786FB00283DD0FF2307F1E7
:204D4000240BDFF8E0904FF0000887F8243049465846FFF757FB044670B3E37FDA07F6D5D3
:204D600072B6E37FA66823F00103E37762B6A37F032BECD8DFE813F0610240021902040070
:204D8000A7F8288007F12803A0690222012197F82450FEF7B1FF3A8D2046314652BA00956D
:204DA00092B202F00603FDF74FFE49465846FFF729FB04460028D0D11848FFF743FB00285D
:204DC0003DD0FF2307F1240B154D87F82430DFF84CA02DE0001000E000000020980C0020A4
:204DE00049310208B0700208940C002001320208B87002085C0C0020CD0D0208D070020820
:204E00007C0C002041280208D8700208600C0020B11B0208E8700208740C0020540C002041
:204E2000650D0208910D0208237DDB0700F1F08329465846FFF7E6FA04460028F4D1A24864
:204E4000FFF700FB002854D0FF2307F1240B994687F824309D495846FFF7D4FA0446002860
:204E600047D0237D5E07F5D572B60026E57DD4F808A02675E67562B6D4F80C8004F11803B2
:204E8000AAEB0802BA6015F1FF3514D3227FD11C2244C9B282F81D9096773029D677217757
:204EA000F1D9184697F82410BB61FDF703FD15F1FF35BB69EAD2637DBD617B61002B00F0E8
:204EC00043857B69012B00F0EE857B69022B00F0EB86217F3029BDD904F1180097F82410C6
:204EE000FDF7E8FC79495846FFF78CFA04460028B7D17748FFF7A6FA98B1FF2307F1240B1D
:204F0000744D87F82430DFF8C88103E0237EDE0700F1F18329465846FFF774FA044600282C
:204F2000F4D16D48FFF78EFA90B1FF236B4EDFF8A89187F8203003E0237DDD0700F11C8486
:204F4000314607F12000FFF75DFA04460028F3D16348FFF777FA00286CD0FF2307F1240B80
:204F6000604E87F8243031465846FFF74BFA044600285FD0237DD807F5D507F1280218211B
:204F8000206997F82450FDF7A9FC97F8282097F8293043EA022372B6227D22F00102227568
:204FA00062B61907DFD594F81A900021206909F11B08A0444246FDF791FC08F10202206995
:204FC0000121FDF78BFCA37E94F85C0004334207DBB2A37620D5A14498F8032098F801C027
:204FE00099F81BE098F8021042EA0E6242EA0C4242EA0122B2F1805F80F0F185F969D1F88B
:2050000004C0810700F1E385216E8A4200F2998500F0FD0084F85C002F2BA4D904F11600D9
